000520170802                2017080220170802ALLPAYMENTS  LOGIN        000001                                                                                                                                                                    
52017070220170802000003610214099717      02010601C000000000449000000000000960000000000000000000000000111497822222623                                           03410006970000000135929000018SHOPPING BA SALVADOR00000000000028781619PAG0000000004394000000000000018           
52017070220170802000247996410090262      02010601C000000000449500000000000960000000000000000000000000111497822222713                                           03410006970000000135929000018SHOPPING BA SALVADOR00000000000028781619PAG0000000004399000000000000018           
52017070220170802000248143804630442      02010601C000000000898900000000001920000000000000000000000000111497822222658                                           03410006970000000135929000018SHOPPING BA SALVADOR00000000000028781619PAG0000000008797000000000000018           
52017070220170802000003645194652812      03010601C000000001530200000000003270000000000000000000000000111497822222637                                           03410006970000000135929000018SHOPPING BA SALVADOR00000000000028781619PAG0000000014975000000000000018           
52017070220170802000004004242739075      03010601C000000000563200000000001210000000000000000000000000111497822222778                                           03410006970000000135929000018SHOPPING BA SALVADOR00000000000028781619PAG0000000005511000000000000018           
52017070220170802000004092236795092      03010601C000000000430000000000000920000000000000000000000000111497822222803                                           03410006970000000135929000018SHOPPING BA SALVADOR00000000000028781619PAG0000000004208000000000000018           
52017070220170802000004280796922026      03010601C000000000319200000000000680000000000000000000000000111497822222881                                           03410006970000000135929000018SHOPPING BA SALVADOR00000000000028781619PAG0000000003124000000000000018           
52017070220170802000247787210759714      03010601C000000000216200000000000460000000000000000000000000111497822222788                                           03410006970000000135929000018SHOPPING BA SALVADOR00000000000028781619PAG0000000002116000000000000018           
52017070220170802000248260596013440      03010601C000000001530200000000003270000000000000000000000000111497822222607                                           03410006970000000135929000018SHOPPING BA SALVADOR00000000000028781619PAG0000000014975000000000000018           
52017070220170802000248271726063577      03010601C000000000296500000000000630000000000000000000000000111497822222605                                           03410006970000000135929000018SHOPPING BA SALVADOR00000000000028781619PAG0000000002902000000000000018           
52017070220170802000247847806723681      04010601C000000000399400000000000860000000000000000000000000111497822222766                                           03410006970000000135929000018SHOPPING BA SALVADOR00000000000028781619PAG0000000003908000000000000018           
52017070220170802000247799144752374      05010601C000000000369700000000000790000000000000000000000000111497822222784                                           03410006970000000135929000018SHOPPING BA SALVADOR00000000000028781619PAG0000000003618000000000000018           
52017070220170802000248042594024497      05010601C000000001495900000000003200000000000000000000000000111497822222697                                           03410006970000000135929000018SHOPPING BA SALVADOR00000000000028781619PAG0000000014639000000000000018           
52017070220170802000003376554351250      06010601C000000000548100000000001170000000000000000000000000111497822222529                                           03410006970000000135929000018SHOPPING BA SALVADOR00000000000028781619PAG0000000005364000000000000018           
52017070220170802000004175686850541      06010601C000000002007400000000004300000000000000000000000000111497822222834                                           03410006970000000135929000018SHOPPING BA SALVADOR00000000000028781619PAG0000000019644000000000000018           
52017070220170802000004327448290927      06010601C000000009640100000000020630000000000000000000000000111497822222895                                           03410006970000000135929000018SHOPPING BA SALVADOR00000000000028781619PAG0000000094338000000000000018           
52017070220170802000248111686051159      06010601C000000006648000000000014230000000000000000000000000111497822222672                                           03410006970000000135929000018SHOPPING BA SALVADOR00000000000028781619PAG0000000065057000000000000018           
52017070220170802000003514980681651      01010602C000000007191000000000013590000000000000000000000000690312962222586                                           03410006970000000135929000021SHOPPING IGUATEMI   00000000000031120199PAG0000000070551000000000000021           
52017070220170802000003522140077332      01010602C000000000499000000000000940000000000000000000000000690312962222587                                           03410006970000000135929000021SHOPPING BA IGUATEMI00000000000031120199PAG0000000004896000000000000021           
52017070220170802000003858202073954      01010602C000000001439100000000002720000000000000000000000000690312962222721                                           03410006970000000135929000021SHOPPING BA IGUATEMI00000000000031120199PAG0000000014119000000000000021           
52017070220170802000004035876695876      01010602C000000000790000000000001490000000000000000000000000690312962222786                                           03410006970000000135929000021SHOPPING BA IGUATEMI00000000000031120199PAG0000000007751000000000000021           
52017070220170802000004163702128136      01010602C000000002090000000000003950000000000000000000000000690312962222827                                           03410006970000000135929000021SHOPPING BA IGUATEMI00000000000031120199PAG0000000020505000000000000021           
52017070220170802000004210926018521      01010602C000000000459000000000000870000000000000000000000000690312962222850                                           03410006970000000135929000021SHOPPING BA IGUATEMI00000000000031120199PAG0000000004503000000000000021           
52017070220170802000248170742430278      01010602C000000000390000000000000740000000000000000000000000690312962222644                                           03410006970000000135929000021SHOPPING BA IGUATEMI00000000000031120199PAG0000000003826000000000000021           
52017070220170802000003211196082335      01010601C000000000389000000000000750000000000000000000000000686308682222510                                           03410006970000000135929000018SHOPPING BA SALVADOR00000000000028781619PAG0000000003815000000000000018           
52017070220170802000003238238640035      01010601C000000000990000000000001920000000000000000000000000686308682222517                                           03410006970000000135929000018SHOPPING BA SALVADOR00000000000028781619PAG0000000009708000000000000018           
52017070220170802000003415508651328      01010601C000000001299000000000002520000000000000000000000000686308682222541                                           03410006970000000135929000018SHOPPING BA SALVADOR00000000000028781619PAG0000000012738000000000000018           
52017070220170802000003499990030778      01010601C000000001586000000000003080000000000000000000000000686308682222573                                           03410006970000000135929000018SHOPPING BA SALVADOR00000000000028781619PAG0000000015552000000000000018           
52017070220170802000003589862087007      01010601C000000000349000000000000680000000000000000000000000686308682222611                                           03410006970000000135929000018SHOPPING BA SALVADOR00000000000028781619PAG0000000003422000000000000018           
52017070220170802000003888416669211      01010601C000000000890000000000001730000000000000000000000000686308682222730                                           03410006970000000135929000018SHOPPING BA SALVADOR00000000000028781619PAG0000000008727000000000000018           
52017060220170802000004122656453155      01010601C000000003410500000000006620000000000000000000000000686308682194695                                           03410006970000000135929000034SHOPPING SE RIOMAR A00000000000028781619PAG0000000033443000000000000034           
52017070220170802000004238056754412      01010601C000000000549000000000001070000000000000000000000000686308682222871                                           03410006970000000135929000018SHOPPING BA SALVADOR00000000000028781619PAG0000000005383000000000000018           
52017070220170802000004283854923949      01010601C000000000159000000000000310000000000000000000000000686308682222883                                           03410006970000000135929000018SHOPPING BA SALVADOR00000000000028781619PAG0000000001559000000000000018           
52017070220170802000004314490100542      01010601C000000000369000000000000720000000000000000000000000686308682222892                                           03410006970000000135929000018SHOPPING BA SALVADOR00000000000028781619PAG0000000003618000000000000018           
52017070220170802000247663082834025      01010601C000000000299000000000000580000000000000000000000000686308682222823                                           03410006970000000135929000018SHOPPING BA SALVADOR00000000000028781619PAG0000000002932000000000000018           
52017070220170802000247663446671599      01010601C000000000499000000000000970000000000000000000000000686308682222822                                           03410006970000000135929000018SHOPPING BA SALVADOR00000000000028781619PAG0000000004893000000000000018           
52017070220170802000247801176751180      01010601C000000000499000000000000970000000000000000000000000686308682222783                                           03410006970000000135929000018SHOPPING BA SALVADOR00000000000028781619PAG0000000004893000000000000018           
52017070220170802000003395798037393      02010601C000000000445000000000000950000000000000000000000000116493742222535                                           03410006970000000135929000021SHOPPING BA IGUATEMI00000000000031120199PAG0000000004355000000000000021           
52017070220170802000003975154634406      02010601C000000000745000000000001600000000000000000000000000116493742222764                                           03410006970000000135929000021SHOPPING BA IGUATEMI00000000000031120199PAG0000000007290000000000000021           
52017070220170802000004189054076501      03010601C000000001530300000000003270000000000000000000000000116493742222846                                           03410006970000000135929000021SHOPPING IGUATEMI   00000000000031120199PAG0000000014976000000000000021           
52017070220170802000004239790289950      03010601C000000000529900000000001130000000000000000000000000116493742222872                                           03410006970000000135929000021SHOPPING BA IGUATEMI00000000000031120199PAG0000000005186000000000000021           
52017070220170802000003385582655131      04010601C000000000447300000000000960000000000000000000000000116493742222532                                           03410006970000000135929000021SHOPPING BA IGUATEMI00000000000031120199PAG0000000004377000000000000021           
52017070220170802000003515456040558      04010601C000000000607800000000001300000000000000000000000000116493742222580                                           03410006970000000135929000021SHOPPING BA IGUATEMI00000000000031120199PAG0000000005948000000000000021           
52017060320170802000003161620082896      05010601C000000001059200000000002270000000000000000000000000116493742195394                                           03410006970000000135929000007LOJA SE ARACAJU - 0200000000000031120199PAG0000000010365000000000000007           
52017070220170802000003639716055864      05010601C000000001519900000000003250000000000000000000000000116493742222642                                           03410006970000000135929000021SHOPPING IGUATEMI   00000000000031120199PAG0000000014874000000000000021           
52017070220170802000004061700044200      05010601C000000001822100000000003900000000000000000000000000116493742222794                                           03410006970000000135929000021SHOPPING BA IGUATEMI00000000000031120199PAG0000000017831000000000000021           
52017070220170802000004346940070965      06010601C000000000998200000000002140000000000000000000000000116493742222899                                           03410006970000000135929000021SHOPPING BA IGUATEMI00000000000031120199PAG0000000009768000000000000021           
52017070220170802000004350104071243      06010601C000000000199700000000000430000000000000000000000000116493742222901                                           03410006970000000135929000021SHOPPING BA IGUATEMI00000000000031120199PAG0000000001954000000000000021           
52017070220170802000003594578025063      02010602C000000000940000000000002010000000000000000000000000111497812222612                                           03410006970000000135929000018SHOPPING BA SALVADOR00000000000028781619PAG0000000009199000000000000018           
52017070220170802000003710914480548      02010602C000000001277300000000002740000000000000000000000000111497812222666                                           03410006970000000135929000018SHOPPING BA SALVADOR00000000000028781619PAG0000000012499000000000000018           
52017070220170802000004044512032819      02010602C000000002340000000000005010000000000000000000000000111497812222790                                           03410006970000000135929000018SHOPPING BA SALVADOR00000000000028781619PAG0000000022899000000000000018           
52017070220170802000004164752008837      02010602C000000000304000000000000650000000000000000000000000111497812222829                                           03410006970000000135929000018SHOPPING BA SALVADOR00000000000028781619PAG0000000002975000000000000018           
52017070220170802000248438650059452      02010602C000000001295000000000002770000000000000000000000000111497812222538                                           03410006970000000135929000018SHOPPING BA SALVADOR00000000000028781619PAG0000000012673000000000000018           
52017070220170802000004217568019799      05010602C000000000577800000000001240000000000000000000000000111497812222860                                           03410006970000000135929000018SHOPPING BA SALVADOR00000000000028781619PAG0000000005654000000000000018           
52017070220170802000247585952050069      06010602C000000003164900000000006770000000000000000000000000111497812222861                                           03410006970000000135929000018SHOPPING BA SALVADOR00000000000028781619PAG0000000030972000000000000018           
52017070220170802000003291380031004      02010602C000000000429000000000000920000000000000000000000000116493732222520                                           03410006970000000135929000021SHOPPING BA IGUATEMI00000000000031120199PAG0000000004198000000000000021           
52017070220170802000003657962R64303      02010602C000000000499500000000001070000000000000000000000000116493732222640                                           03410006970000000135929000021SHOPPING BA IGUATEMI00000000000031120199PAG0000000004888000000000000021           
52017070220170802000003672972550325      03010602C000000000430000000000000920000000000000000000000000116493732222648                                           03410006970000000135929000021SHOPPING IGUATEMI   00000000000031120199PAG0000000004208000000000000021           
52017070220170802000003464128067912      04010602C000000000422300000000000900000000000000000000000000116493732222559                                           03410006970000000135929000021SHOPPING BA IGUATEMI00000000000031120199PAG0000000004133000000000000021           
52017070220170802000003514004081269      05010602C000000000337800000000000720000000000000000000000000116493732222579                                           03410006970000000135929000021SHOPPING BA IGUATEMI00000000000031120199PAG0000000003306000000000000021           
52017070220170802000003641178057045      05010602C000000000378100000000000810000000000000000000000000116493732222643                                           03410006970000000135929000021SHOPPING IGUATEMI   00000000000031120199PAG0000000003700000000000000021           
52017070220170802000003273096031298      06010602C000000000758300000000001620000000000000000000000000116493732222521                                           03410006970000000135929000021SHOPPING IGUATEMI   00000000000031120199PAG0000000007421000000000000021           
52017070220170802000003306366043622      06010602C000000003154000000000006750000000000000000000000000116493732222522                                           03410006970000000135929000021SHOPPING BA IGUATEMI00000000000031120199PAG0000000030865000000000000021           
52017070220170802000003938254046192      06010602C000000001787300000000003820000000000000000000000000116493732222746                                           03410006970000000135929000021SHOPPING BA IGUATEMI00000000000031120199PAG0000000017491000000000000021           
52017070220170802000003944286064384      06010602C000000000311200000000000670000000000000000000000000116493732222752                                           03410006970000000135929000021SHOPPING BA IGUATEMI00000000000031120199PAG0000000003045000000000000021           
52017070220170802000004172502024643      06010602C000000000498200000000001070000000000000000000000000116493732222830                                           03410006970000000135929000021SHOPPING BA IGUATEMI00000000000031120199PAG0000000004875000000000000021           
52017070220170802000003464766039027      02010602C000000000449000000000000960000000000000000000000000120496052222560                                           03410006970000000135929000023SHOPPING BA SSA NORT00000000000033879419PAG0000000004394000000000000023           
52017070220170802000003645598353866      02010602C000000000424500000000000910000000000000000000000000120496052222635                                           03410006970000000135929000023SHOPPING BA SSA NORT00000000000033879419PAG0000000004154000000000000023           
52017070220170802000004180640030861      02010602C000000000894000000000001920000000000000000000000000120496052222838                                           03410006970000000135929000023SHOPPING BA SSA NORT00000000000033879419PAG0000000008748000000000000023           
52017070220170802000248552858670866      02010602C000000000445000000000000950000000000000000000000000120496052222519                                           03410006970000000135929000023SHOPPING BA SSA NORT00000000000033879419PAG0000000004355000000000000023           
52017070220170802000003373748R49834      03010602C000000000619700000000001330000000000000000000000000120496052222528                                           03410006970000000135929000023SHOPPING BA SSA NORT00000000000033879419PAG0000000006064000000000000023           
52017070220170802000003518150494174      03010602C000000002940900000000006290000000000000000000000000120496052222582                                           03410006970000000135929000023SHOPPING BA SSA NORT00000000000033879419PAG0000000028780000000000000023           
52017070220170802000003706012002354      05010602C000000001517800000000003250000000000000000000000000120496052222665                                           03410006970000000135929000023SHOPPING BA SSA NORT00000000000033879419PAG0000000014853000000000000023           
52017070220170802000004340628048074      05010602C000000000207800000000000450000000000000000000000000120496052222897                                           03410006970000000135929000023SHOPPING BA SSA NORT00000000000033879419PAG0000000002033000000000000023           
52017070220170802000003642470133647      06010602C000000000596700000000001280000000000000000000000000120496052222634                                           03410006970000000135929000023SHOPPING BA SSA NORT00000000000033879419PAG0000000005839000000000000023           
52017070220170802000003813242602553      02010601C000000000399500000000000860000000000000000000000000120496062222702                                           03410006970000000135929000023SHOPPING BA SSA NORT00000000000033879419PAG0000000003909000000000000023           
52017070220170802000003844422028677      02010601C000000000424500000000000910000000000000000000000000120496062222716                                           03410006970000000135929000023SHOPPING BA SSA NORT00000000000033879419PAG0000000004154000000000000023           
52017070220170802000247856386054064      02010601C000000000445000000000000950000000000000000000000000120496062222763                                           03410006970000000135929000023SHOPPING BA SSA NORT00000000000033879419PAG0000000004355000000000000023           
52017070220170802000004172220660399      03010601C000000002199900000000004710000000000000000000000000120496062222831                                           03410006970000000135929000023SHOPPING BA SSA NORT00000000000033879419PAG0000000021528000000000000023           
52017070220170802000248178060820405      04010601C000000000697400000000001490000000000000000000000000120496062222641                                           03410006970000000135929000023SHOPPING BA SSA NORT00000000000033879419PAG0000000006825000000000000023           
52017070220170802000003163032034581      05010601C000000000379500000000000810000000000000000000000000120496062222503                                           03410006970000000135929000023SHOPPING BA SSA NORT00000000000033879419PAG0000000003714000000000000023           
52017070220170802000003894776673075      05010601C000000000318000000000000680000000000000000000000000120496062222731                                           03410006970000000135929000023SHOPPING BA SSA NORT00000000000033879419PAG0000000003112000000000000023           
52017070220170802000003333180056384      06010601C000000001423200000000003050000000000000000000000000120496062222524                                           03410006970000000135929000023SHOPPING BA SSA NORT00000000000033879419PAG0000000013927000000000000023           
52017070220170802000003537606562362      06010601C000000000498200000000001070000000000000000000000000120496062222593                                           03410006970000000135929000023SHOPPING BA SSA NORT00000000000033879419PAG0000000004875000000000000023           
52017070220170802000003490620056082      10010602C000000001399500000000003140000000000000000000000000120496072222570                                           03410006970000000135929000023SHOPPING BA SSA NORT00000000000033879419PAG0000000013681000000000000023           
52017070220170802000003716642971907      10010602C000000000086000000000000190000000000000000000000000120496072222669                                           03410006970000000135929000023SHOPPING BA SSA NORT00000000000033879419PAG0000000000841000000000000023           
52017070220170802000003833024482468      10010602C000000001998300000000004480000000000000000000000000120496072222711                                           03410006970000000135929000023SHOPPING BA SSA NORT00000000000033879419PAG0000000019535000000000000023           
52017070220170802000003836302494368      10010602C000000000242800000000000540000000000000000000000000120496072222712                                           03410006970000000135929000023SHOPPING BA SSA NORT00000000000033879419PAG0000000002374000000000000023           
52017070220170802000004019170004414      10010602C000000000288400000000000650000000000000000000000000120496072222779                                           03410006970000000135929000023SHOPPING BA SSA NORT00000000000033879419PAG0000000002819000000000000023           
52017070220170802000004021300004492      10010602C000000000062700000000000140000000000000000000000000120496072222780                                           03410006970000000135929000023SHOPPING BA SSA NORT00000000000033879419PAG0000000000613000000000000023           
52017070220170802000247582830063897      10010602C000000000998300000000002240000000000000000000000000120496072222865                                           03410006970000000135929000023SHOPPING BA SSA NORT00000000000033879419PAG0000000009759000000000000023           
52017070220170802000248094304026508      10010602C000000001323400000000002970000000000000000000000000120496072222679                                           03410006970000000135929000023SHOPPING BA SSA NORT00000000000033879419PAG0000000012937000000000000023           
52017070220170802000248149454088617      02010603C000000000405000000000000990000000000000000000000000120496092222653                                           03410006970000000135929000023SHOPPING BA SSA NORT00000000000033879419PAG0000000003951000000000000023           
52017070220170802000003601880030332      03010603C000000000996700000000002440000000000000000000000000120496092222619                                           03410006970000000135929000023SHOPPING BA SSA NORT00000000000033879419PAG0000000009723000000000000023           
52017070220170802000004298884040868      03010603C000000000393300000000000960000000000000000000000000120496092222889                                           03410006970000000135929000023SHOPPING BA SSA NORT00000000000033879419PAG0000000003837000000000000023           
52017070220170802000003699162044035      04010603C000000000499800000000001220000000000000000000000000120496092222662                                           03410006970000000135929000023SHOPPING BA SSA NORT00000000000033879419PAG0000000004876000000000000023           
52017070220170802000003732024047996      04010603C000000000497500000000001220000000000000000000000000120496092222676                                           03410006970000000135929000023SHOPPING BA SSA NORT00000000000033879419PAG0000000004853000000000000023           
52017070220170802000003910086071241      06010603C000000001423200000000003490000000000000000000000000120496092222734                                           03410006970000000135929000023SHOPPING BA SSA NORT00000000000033879419PAG0000000013883000000000000023           
52017070220170802000003912084071370      06010603C000000000299800000000000740000000000000000000000000120496092222735                                           03410006970000000135929000023SHOPPING BA SSA NORT00000000000033879419PAG0000000002924000000000000023           
52017070220170802000004230164013903      06010603C000000000581700000000001420000000000000000000000000120496092222866                                           03410006970000000135929000023SHOPPING BA SSA NORT00000000000033879419PAG0000000005675000000000000023           
52017070220170802000004348868047062      06010603C000000000876600000000002150000000000000000000000000120496092222900                                           03410006970000000135929000023SHOPPING BA SSA NORT00000000000033879419PAG0000000008551000000000000023           
52017070220170802000003489540055287      01010602C000000001690000000000003190000000000000000000000000694323922222569                                           03410006970000000135929000023SHOPPING BA SSA NORT00000000000033879419PAG0000000016581000000000000023           
52017070220170802000003560398001884      01010602C000000000429000000000000810000000000000000000000000694323922222602                                           03410006970000000135929000023SHOPPING BA SSA NORT00000000000033879419PAG0000000004209000000000000023           
52017070220170802000003588470021417      01010602C000000001290000000000002440000000000000000000000000694323922222610                                           03410006970000000135929000023SHOPPING BA SSA NORT00000000000033879419PAG0000000012656000000000000023           
52017070220170802000003694352540067      01010602C000000000139000000000000260000000000000000000000000694323922222659                                           03410006970000000135929000023SHOPPING BA SSA NORT00000000000033879419PAG0000000001364000000000000023           
52017070220170802000003744988433711      01010602C000000000219000000000000410000000000000000000000000694323922222680                                           03410006970000000135929000023SHOPPING BA SSA NORT00000000000033879419PAG0000000002149000000000000023           
52017070220170802000003877116060863      01010602C000000000549000000000001040000000000000000000000000694323922222727                                           03410006970000000135929000023SHOPPING BA SSA NORT00000000000033879419PAG0000000005386000000000000023           
52017070220170802000004243390015502      01010602C000000000590000000000001120000000000000000000000000694323922222873                                           03410006970000000135929000023SHOPPING BA SSA NORT00000000000033879419PAG0000000005788000000000000023           
52017070220170802000004319918448172      01010602C000000000130000000000000250000000000000000000000000694323922222894                                           03410006970000000135929000023SHOPPING BA SSA NORT00000000000033879419PAG0000000001275000000000000023           
52017070220170802000004337730089021      01010602C000000000369000000000000700000000000000000000000000694323922222896                                           03410006970000000135929000023SHOPPING BA SSA NORT00000000000033879419PAG0000000003620000000000000023           
52017070220170802000248655468330484      01010602C000000000299000000000000570000000000000000000000000694323922222507                                           03410006970000000135929000023SHOPPING BA SSA NORT00000000000033879419PAG0000000002933000000000000023           
52017070220170802000003309534526818      01010601C000000000699000000000001360000000000000000000000000690312982222523                                           03410006970000000135929000021SHOPPING BA IGUATEMI00000000000031120199PAG0000000006854000000000000021           
52017070220170802000003487224009425      01010601C000000000329000000000000640000000000000000000000000690312982222567                                           03410006970000000135929000021SHOPPING BA IGUATEMI00000000000031120199PAG0000000003226000000000000021           
52017070220170802000004002298664060      01010601C000000000359000000000000700000000000000000000000000690312982222775                                           03410006970000000135929000021SHOPPING BA IGUATEMI00000000000031120199PAG0000000003520000000000000021           
52017070220170802000004233486630015      01010601C000000000139000000000000270000000000000000000000000690312982222869                                           03410006970000000135929000021SHOPPING BA IGUATEMI00000000000031120199PAG0000000001363000000000000021           
52017070220170802000004253694620643      01010601C000000000399000000000000770000000000000000000000000690312982222874                                           03410006970000000135929000021SHOPPING BA IGUATEMI00000000000031120199PAG0000000003913000000000000021           
52017070220170802000004363058978748      01010601C000000000100000000000000190000000000000000000000000690312982222903                                           03410006970000000135929000021SHOPPING BA IGUATEMI00000000000031120199PAG0000000000981000000000000021           
52017070220170802000248279712067125      01010601C000000003507300000000006800000000000000000000000000690312982222601                                           03410006970000000135929000021SHOPPING BA IGUATEMI00000000000031120199PAG0000000034393000000000000021           
52017070220170802000004309726023783      10010603C000000001267700000000003230000000000000000000000000145496862222890                                           03410006970000000135929000034SHOPPING SE RIOMAR A00000000000046138781PAG0000000012354000000000000034           
52017070220170802000004314792024146      10010603C000000000244100000000000620000000000000000000000000145496862222893                                           03410006970000000135929000034SHOPPING SE RIOMAR A00000000000046138781PAG0000000002379000000000000034           
52017070220170802000248120196064055      10010603C000000003250900000000008290000000000000000000000000145496862222668                                           03410006970000000135929000034SHOPPING SE RIOMAR A00000000000046138781PAG0000000031680000000000000034           
52017070220170802000003484864052244      10010601C000000003074400000000007040000000000000000000000000116493762222566                                           03410006970000000135929000021SHOPPING BA IGUATEMI00000000000031120199PAG0000000030040000000000000021           
52017070220170802000003505344034216      10010601C000000001271300000000002910000000000000000000000000116493762222575                                           03410006970000000135929000021SHOPPING BA IGUATEMI00000000000031120199PAG0000000012422000000000000021           
52017070220170802000247716478108070      10010601C000000000298500000000000680000000000000000000000000116493762222806                                           03410006970000000135929000021SHOPPING BA IGUATEMI00000000000031120199PAG0000000002917000000000000021           
52017070220170802000003979390673608      01010601C000000000590000000000001140000000000000000000000000745320152222769                                           03410006970000000135929000046SHOPPING BA BELA VIS00000000000063582791PAG0000000005786000000000000046           
52017070220170802000004076952784944      01010601C000000002847200000000005520000000000000000000000000745320152222799                                           03410006970000000135929000046SHOPPING BA BELA VIS00000000000063582791PAG0000000027920000000000000046           
52017070220170802000004290320023285      01010601C000000000599000000000001160000000000000000000000000745320152222886                                           03410006970000000135929000046SHOPPING BA BELA VIS00000000000063582791PAG0000000005874000000000000046           
52017070220170802000247976716042624      01010601C000000000239000000000000460000000000000000000000000745320152222720                                           03410006970000000135929000046SHOPPING BA BELA VIS00000000000063582791PAG0000000002344000000000000046           
52017070220170802000003338224514671      01010602C000000001729000000000003270000000000000000000000000686308672222525                                           03410006970000000135929000018SHOPPING BA SALVADOR00000000000028781619PAG0000000016963000000000000018           
52017070220170802000003536866660744      01010602C000000000359000000000000680000000000000000000000000686308672222592                                           03410006970000000135929000018SHOPPING BA SALVADOR00000000000028781619PAG0000000003522000000000000018           
52017070220170802000003542726047401      01010602C000000000390000000000000740000000000000000000000000686308672222596                                           03410006970000000135929000018SHOPPING BA SALVADOR00000000000028781619PAG0000000003826000000000000018           
52017070220170802000004119454193205      01010602C000000000390000000000000740000000000000000000000000686308672222811                                           03410006970000000135929000018SHOPPING BA SALVADOR00000000000028781619PAG0000000003826000000000000018           
52017070220170802000004351892057486      01010602C000000000599000000000001130000000000000000000000000686308672222904                                           03410006970000000135929000018SHOPPING BA SALVADOR00000000000028781619PAG0000000005877000000000000018           
52017070220170802000004363498050187      01010602C000000000100000000000000190000000000000000000000000686308672222907                                           03410006970000000135929000018SHOPPING BA SALVADOR00000000000028781619PAG0000000000981000000000000018           
52017070220170802000247841938073044      01010602C000000000149000000000000280000000000000000000000000686308672222772                                           03410006970000000135929000018SHOPPING BA SALVADOR00000000000028781619PAG0000000001462000000000000018           
52017070220170802000247845246072465      01010602C000000000199000000000000380000000000000000000000000686308672222768                                           03410006970000000135929000018SHOPPING BA SALVADOR00000000000028781619PAG0000000001952000000000000018           
52017070220170802000248286368058337      01010602C000000000209000000000000400000000000000000000000000686308672222599                                           03410006970000000135929000018SHOPPING BA SALVADOR00000000000028781619PAG0000000002050000000000000018           
52017070220170802000003449174015675      01010603C000000003600500000000007920000000000000000000000000726292952222552                                           03410006970000000135929000038SHOPPING SE JARDINS 00000000000051121808PAG0000000035213000000000000038           
52017070220170802000003631194035720      01010603C000000000369000000000000810000000000000000000000000726292952222631                                           03410006970000000135929000038SHOPPING SE JARDINS 00000000000051121808PAG0000000003609000000000000038           
52017070220170802000003863596604188      02010601C000000000394900000000000840000000000000000000000000181497452222723                                           03410006970000000135929000047SHOPPING BA CONQUIST00000000000067067492PAG0000000003865000000000000047           
52017070220170802000003452282031324      04010601C000000000897500000000001920000000000000000000000000181497452222553                                           03410006970000000135929000047SHOPPING BA CONQUIST00000000000067067492PAG0000000008783000000000000047           
52017070220170802000003993082732264      05010601C000000000397900000000000850000000000000000000000000181497452222774                                           03410006970000000135929000047SHOPPING BA CONQUIST00000000000067067492PAG0000000003894000000000000047           
52017070220170802000003773444642305      06010601C000000002263100000000004840000000000000000000000000181497452222689                                           03410006970000000135929000047SHOPPING BA CONQUIST00000000000067067492PAG0000000022147000000000000047           
52017070220170802000003144700043392      01010601C000000000099000000000000190000000000000000000000000694323932222502                                           03410006970000000135929000023SHOPPING BA SSA NORT00000000000033879419PAG0000000000971000000000000023           
52017070220170802000003639328017625      01010601C000000000899000000000001740000000000000000000000000694323932222632                                           03410006970000000135929000023SHOPPING BA SSA NORT00000000000033879419PAG0000000008816000000000000023           
52017070220170802000003702656017308      01010601C000000000299000000000000580000000000000000000000000694323932222663                                           03410006970000000135929000023SHOPPING BA SSA NORT00000000000033879419PAG0000000002932000000000000023           
52017070220170802000003757000089880      01010601C000000001890000000000003670000000000000000000000000694323932222682                                           03410006970000000135929000023SHOPPING BA SSA NORT00000000000033879419PAG0000000018533000000000000023           
52017070220170802000004276248520948      01010601C000000000690000000000001340000000000000000000000000694323932222879                                           03410006970000000135929000023SHOPPING BA SSA NORT00000000000033879419PAG0000000006766000000000000023           
52017070220170802000004124190000132      02010603C000000000299500000000000740000000000000000000000000174494922222814                                           03410006970000000135929000046SHOPPING BA BELA VIS00000000000063582791PAG0000000002921000000000000046           
52017070220170802000004343628027694      02010603C000000000574500000000001410000000000000000000000000174494922222898                                           03410006970000000135929000046SHOPPING BA BELA VIS00000000000063582791PAG0000000005604000000000000046           
52017070220170802000248402600014303      06010603C000000001331500000000003260000000000000000000000000174494922222548                                           03410006970000000135929000046SHOPPING BA BELA VIS00000000000063582791PAG0000000012989000000000000046           
52017070220170802000248440918010326      06010603C000000001598000000000003920000000000000000000000000174494922222537                                           03410006970000000135929000046SHOPPING BA BELA VIS00000000000063582791PAG0000000015588000000000000046           
52017070220170802000003382314645188      01010602C000000000780000000000001470000000000000000000000000716326312222531                                           03410006970000000135929000034SHOPPING SE RIOMAR A00000000000046138781PAG0000000007653000000000000034           
52017070220170802000003675060464588      01010602C000000000764100000000001440000000000000000000000000716326312222649                                           03410006970000000135929000034SHOPPING SE RIOMAR A00000000000046138781PAG0000000007497000000000000034           
52017070220170802000003726440060865      01010602C000000001299000000000002460000000000000000000000000716326312222674                                           03410006970000000135929000034SHOPPING SE RIOMAR A00000000000046138781PAG0000000012744000000000000034           
52017070220170802000004209876224165      01010602C000000000489000000000000920000000000000000000000000716326312222851                                           03410006970000000135929000034SHOPPING SE RIOMAR A00000000000046138781PAG0000000004798000000000000034           
52017070220170802000003341130048197      10010602C000000000648600000000001450000000000000000000000000116493752222526                                           03410006970000000135929000021SHOPPING BA IGUATEMI00000000000031120199PAG0000000006341000000000000021           
52017070220170802000003621820062167      10010602C000000001599600000000003580000000000000000000000000116493752222627                                           03410006970000000135929000021SHOPPING BA IGUATEMI00000000000031120199PAG0000000015638000000000000021           
52017070220170802000003815674061782      10010602C000000000498300000000001120000000000000000000000000116493752222704                                           03410006970000000135929000021SHOPPING BA IGUATEMI00000000000031120199PAG0000000004871000000000000021           
52017070220170802000003819698079359      10010602C000000000094700000000000210000000000000000000000000116493752222708                                           03410006970000000135929000021SHOPPING BA IGUATEMI00000000000031120199PAG0000000000926000000000000021           
52017070220170802000003862994R76313      10010602C000000000498300000000001120000000000000000000000000116493752222722                                           03410006970000000135929000021SHOPPING BA IGUATEMI00000000000031120199PAG0000000004871000000000000021           
52017070220170802000003526760047450      01010601C000000001680000000000003260000000000000000000000000716326322222588                                           03410006970000000135929000034SHOPPING SE RIOMAR A00000000000046138781PAG0000000016474000000000000034           
52017070220170802000003894564672970      01010601C000000000790000000000001530000000000000000000000000716326322222732                                           03410006970000000135929000034SHOPPING SE RIOMAR A00000000000046138781PAG0000000007747000000000000034           
52017070220170802000003378036084003      02010602C000000000325000000000000700000000000000000000000000152499112222530                                           03410006970000000135929000036SHOPPING BA JEQUITIB00000000000049693867PAG0000000003180000000000000036           
52017070220170802000003768814032038      06010602C000000000464800000000001000000000000000000000000000152499112222683                                           03410006970000000135929000036SHOPPING BA JEQUITIB00000000000049693867PAG0000000004548000000000000036           
52017070220170802000004178960026493      06010602C000000000046100000000000100000000000000000000000000152499112222837                                           03410006970000000135929000036SHOPPING BA JEQUITIB00000000000049693867PAG0000000000451000000000000036           
52017070220170802000004216432746425      06010602C000000001564200000000003350000000000000000000000000152499112222857                                           03410006970000000135929000036SHOPPING BA JEQUITIB00000000000049693867PAG0000000015307000000000000036           
52017070220170802000004176458026095      10010602C000000000348800000000000780000000000000000000000000152499132222835                                           03410006970000000135929000036SHOPPING BA JEQUITIB00000000000049693867PAG0000000003410000000000000036           
52017070220170802000247630748030748      10010602C000000001299000000000002910000000000000000000000000152499132222840                                           03410006970000000135929000036LOJA SALVADOR SHOPPI00000000000049693867PAG0000000012699000000000000036           
52017070220170802000247986432072265      10010602C000000000698500000000001570000000000000000000000000152499132222718                                           03410006970000000135929000036SHOPPING BA JEQUITIB00000000000049693867PAG0000000006828000000000000036           
52017070220170802000003585150280907      02010601C000000000495000000000001060000000000000000000000000145496842222609                                           03410006970000000135929000034SHOPPING SE RIOMAR A00000000000046138781PAG0000000004844000000000000034           
52017070220170802000248017096755008      06010601C000000001739900000000003720000000000000000000000000145496842222706                                           03410006970000000135929000034SHOPPING SE RIOMAR A00000000000046138781PAG0000000017027000000000000034           
52017070220170802000003211234091347      02010603C000000001171000000000002870000000000000000000000000116493772222513                                           03410006970000000135929000021SHOPPING IGUATEMI   00000000000031120199PAG0000000011423000000000000021           
52017070220170802000247717136097096      02010603C000000000744900000000001820000000000000000000000000116493772222805                                           03410006970000000135929000021SHOPPING BA IGUATEMI00000000000031120199PAG0000000007267000000000000021           
52017070220170802000004208368011219      04010603C000000000249800000000000610000000000000000000000000116493772222848                                           03410006970000000135929000021SHOPPING IGUATEMI   00000000000031120199PAG0000000002437000000000000021           
52017070220170802000003598736031241      01010602C000000000099000000000000190000000000000000000000000745320142222617                                           03410006970000000135929000046SHOPPING BA BELA VIS00000000000063582791PAG0000000000971000000000000046           
52017070220170802000004137248613621      01010602C000000001290000000000002440000000000000000000000000745320142222818                                           03410006970000000135929000046SHOPPING BA BELA VIS00000000000063582791PAG0000000012656000000000000046           
52017070220170802000004312082R03431      01010602C000000000599000000000001130000000000000000000000000745320142222891                                           03410006970000000135929000046SHOPPING BA BELA VIS00000000000063582791PAG0000000005877000000000000046           
52017040120170802000247953666657104      10040605C000000001881000000000004210000000000000000000000000962493552124819                                           03410006970000000536571000023SHOPPING BA SSA NORT00000000000033879419PAG0000000018389000000000000023           
52017070220170802000003930330092129      05010603C000000001707900000000004180000000000000000000000000155494262222743                                           03410006970000000135929000038SHOPPING SE JARDINS 00000000000051121808PAG0000000016661000000000000038           
52017070220170802000003938334074710      10010603C000000001298800000000003310000000000000000000000000155494272222747                                           03410006970000000135929000038SHOPPING SE JARDINS 00000000000051121808PAG0000000012657000000000000038           
52017070220170802000003942548075497      10010603C000000000259600000000000660000000000000000000000000155494272222750                                           03410006970000000135929000038SHOPPING SE JARDINS 00000000000051121808PAG0000000002530000000000000038           
52017070220170802000004296800022147      10010603C000000001498800000000003820000000000000000000000000181497482222888                                           03410006970000000135929000047SHOPPING BA CONQUIST00000000000067067492PAG0000000014606000000000000047           
52017070220170802000004135574823727      01010601C000000000349000000000000680000000000000000000000000754292252222817                                           03410006970000000135929000047SHOPPING BA CONQUIST00000000000067067492PAG0000000003422000000000000047           
52017070220170802000247635354851642      01010601C000000000890000000000001730000000000000000000000000754292252222836                                           03410006970000000135929000047SHOPPING BA CONQUIST00000000000067067492PAG0000000008727000000000000047           
52017070220170802000247707560080090      01010601C000000000139000000000000270000000000000000000000000754292252222809                                           03410006970000000135929000047SHOPPING BA CONQUIST00000000000067067492PAG0000000001363000000000000047           
52017070220170802000003943128023245      10010601C000000000967400000000002220000000000000000000000000111497832222751                                           03410006970000000135929000018SHOPPING BA SALVADOR00000000000028781619PAG0000000009452000000000000018           
52017070220170802000003945432023597      10010601C000000000119400000000000270000000000000000000000000111497832222753                                           03410006970000000135929000018SHOPPING BA SALVADOR00000000000028781619PAG0000000001167000000000000018           
52017070220170802000003819814452881      01010602C000000000499000000000000940000000000000000000000000754292242222709                                           03410006970000000135929000047SHOPPING BA CONQUIST00000000000067067492PAG0000000004896000000000000047           
52017070220170802000004081140282374      01010602C000000000159000000000000300000000000000000000000000754292242222800                                           03410006970000000135929000047SHOPPING BA CONQUIST00000000000067067492PAG0000000001560000000000000047           
52017070220170802000004216094533856      01010602C000000000349000000000000660000000000000000000000000754292242222856                                           03410006970000000135929000047SHOPPING BA CONQUIST00000000000067067492PAG0000000003424000000000000047           
52017070220170802000248407072533727      02010602C000000000490000000000001050000000000000000000000000174494892222544                                           03410006970000000135929000046SHOPPING BA BELA VIS00000000000063582791PAG0000000004795000000000000046           
52017070220170802000003678890041340      10010603C000000000916300000000002340000000000000000000000000120496102222651                                           03410006970000000135929000023SHOPPING BA SSA NORT00000000000033879419PAG0000000008929000000000000023           
52017070220170802000247446788028762      10010603C000000000062700000000000160000000000000000000000000120496102222902                                           03410006970000000135929000023SHOPPING BA SSA NORT00000000000033879419PAG0000000000611000000000000023           
52017070220170802000003987946093516      10010601C000000000898200000000002060000000000000000000000000120496082222773                                           03410006970000000135929000023SHOPPING BA SSA NORT00000000000033879419PAG0000000008776000000000000023           
52017070220170802000004183722008008      03010603C000000000330000000000000810000000000000000000000000111497842222842                                           03410006970000000135929000018SHOPPING BA SALVADOR00000000000028781619PAG0000000003219000000000000018           
52017070220170802000003733652047939      05010603C000000000477900000000001170000000000000000000000000111497842222677                                           03410006970000000135929000018SHOPPING BA SALVADOR00000000000028781619PAG0000000004662000000000000018           
52017070220170802000004266534475077      03010602C000000000389900000000000830000000000000000000000000181497442222878                                           03410006970000000135929000047SHOPPING BA CONQUIST00000000000067067492PAG0000000003816000000000000047           
52017070220170802000004287020752309      05010602C000000000349500000000000750000000000000000000000000181497442222885                                           03410006970000000135929000047SHOPPING BA CONQUIST00000000000067067492PAG0000000003420000000000000047           
52017070220170802000248303752051945      10010601C000000000728200000000001670000000000000000000000000152499142222590                                           03410006970000000135929000036SHOPPING BA JEQUITIB00000000000049693867PAG0000000007115000000000000036           
52017070220170802000003594392089838      10010601C000000000717600000000001640000000000000000000000000181497472222613                                           03410006970000000135929000047SHOPPING BA CONQUIST00000000000067067492PAG0000000007012000000000000047           
52017070220170802000003519226042883      04010601C000000000472500000000001010000000000000000000000000152499122222583                                           03410006970000000135929000036SHOPPING BA JEQUITIB00000000000049693867PAG0000000004624000000000000036           
52017070220170802000003645770023130      04010601C000000000222400000000000480000000000000000000000000152499122222636                                           03410006970000000135929000036SHOPPING BA JEQUITIB00000000000049693867PAG0000000002176000000000000036           
52017070220170802000003771350032527      01010602C000000000243500000000000460000000000000000000000000723308682222685                                           03410006970000000135929000036SHOPPING BA JEQUITIB00000000000049693867PAG0000000002389000000000000036           
52017070220170802000003941544048344      01010602C000000000449000000000000850000000000000000000000000723308682222749                                           03410006970000000135929000036SHOPPING BA JEQUITIB00000000000049693867PAG0000000004405000000000000036           
52017070220170802000247684192001111      01010603C000000000590000000000001300000000000000000000000000690312992222816                                           03410006970000000135929000021SHOPPING BA IGUATEMI00000000000031120199PAG0000000005770000000000000021           
52017040120170802000004937088599729      06040605C000000000581600000000001240000000000000000000000000962493532124823                                           03410006970000000536571000023SHOPPING BA SSA NORT00000000000033879419PAG0000000005692000000000000023           
52017070220170802000003912140025701      02010601C000000000549000000000001180000000000000000000000000174494902222736                                           03410006970000000135929000046SHOPPING BA BELA VIS00000000000063582791PAG0000000005372000000000000046           
52017070220170802000248054126054002      10010603C000000000043100000000000110000000000000000000000000152499152222691                                           03410006970000000135929000036SHOPPING BA JEQUITIB00000000000049693867PAG0000000000420000000000000036           
52017070220170802000248056870053684      10010603C000000000498800000000001270000000000000000000000000152499152222690                                           03410006970000000135929000036SHOPPING BA JEQUITIB00000000000049693867PAG0000000004861000000000000036           
52017070220170802000003473620044257      10010602C000000000518000000000001160000000000000000000000000181497462222563                                           03410006970000000135929000047SHOPPING BA CONQUIST00000000000067067492PAG0000000005064000000000000047           
52017070220170802000003435426580945      01010605C000000000449000000000000850000000000000000000000000690312972222546                                           03410006970000000536571000021SHOPPING BA IGUATEMI00000000000031120199PAG0000000004405000000000000021           
52017070220170802000003843530080836      03010602C000000000442900000000000950000000000000000000000000145496832222717                                           03410006970000000135929000034SHOPPING SE RIOMAR A00000000000046138781PAG0000000004334000000000000034           
52017070220170802000003457456035003      10010602C000000000425900000000000960000000000000000000000000174494912222556                                           03410006970000000135929000046SHOPPING BA BELA VIS00000000000063582791PAG0000000004163000000000000046           
52017070220170802000004282232020290      02010603C000000000424500000000001040000000000000000000000000145496852222884                                           03410006970000000135929000034SHOPPING SE RIOMAR A00000000000046138781PAG0000000004141000000000000034           
52017070220170802000003938442699623      01010601C000000000299000000000000580000000000000000000000000723308692222745                                           03410006970000000135929000036SHOPPING BA JEQUITIB00000000000049693867PAG0000000002932000000000000036           
52017070220170802000003936468074458      01010603C000000000299000000000000660000000000000000000000000694323942222744                                           03410006970000000135929000023SHOPPING BA SSA NORT00000000000033879419PAG0000000002924000000000000023           
52017070220170802000004223446013169      01010603C000000000199000000000000440000000000000000000000000745320162222862                                           03410006970000000135929000046SHOPPING BA BELA VIS00000000000063582791PAG0000000001946000000000000046           
52017032820170802000004562462031076      01010602D000000000900000000000000980000000000000000000000002130289962111742                                           03410006970000000135929000018SHOPPING BA SALVADOR00000000000009796037PAG0000000008902000000000000018           
52017032420170802000004858438340653      01010601D000000000478000000000000540000000000000000000000002134193482098903                                           03410006970000000135929000021SHOPPING BA IGUATEMI00000000000009796037PAG0000000004726000000000000021           
52017040420170802000004040958350350      01010601D000000000199000000000000230000000000000000000000002135269492127288                                           03410006970000000135929000007LOJA SE ARACAJU - 0200000000000028781619PAG0000000001967000000000000007           
52017050220170802000005312320364346      01010601D000000002379000000000002710000000000000000000000002135269492168834                                           03410006970000000135929000044SHOPPING BA PIEDADE 00000000000028781619PAG0000000023519000000000000044           
52017013020170802000004717836258145      01010601D000000000159000000000000180000000000000000000000002135377622057475                                           03410006970000000135929000046SHOPPING BA BELA VIS00000000000031120199PAG0000000001572000000000000046           
52017031820170802000248954012202813      01010602D000000000780000000000000850000000000000000000000002131902772093498                                           03410006970000000135929000007LOJA SE ARACAJU - 0200000000000033879419PAG0000000007715000000000000007           
52017051720170802000005457894879792      01010601D000000001688000000000001920000000000000000000000002135500412182694                                           03410006970000000135929000038SHOPPING SE JARDINS 00000000000033879419PAG0000000016688000000000000038           
52017070820170802000004601608256864      01010601D000000001748000000000001990000000000000000000000002136785392227382                                           03410006970000000135929000042SHOPPING BA BOULEVAR00000000000063582791PAG0000000017281000000000000042           
52017060120170802000005096740024772      01010601D000000001198000000000001370000000000000000000000002136785392194212                                           03410006970000000135929000044SHOPPING BA PIEDADE 00000000000063582791PAG0000000011843000000000000044           
52017070720170802000004853602024340      01010601D000000001399000000000001590000000000000000000000002136962072226693                                           03410006970000000135929000044SHOPPING BA PIEDADE 00000000000067067492PAG0000000013831000000000000044           
900023000000020603560000000042804000000000000000000000000000000000000000                                                                                                                                                                        
