000520170602                2017060220170602ALLPAYMENTS  LOGIN        000001                                                                                                                                                                    
52017060120170602000002606092341184      01010602D000000000040000000000000040000000000000000000000001520253692193560                                           03410006970000000135929000006LOJA BA ESPAT?DEAS -00000000000009005048PAG0000000000396000000000000006           
52017060120170602000004023184308422      01010602D000000000349000000000000380000000000000000000000001520253692193938                                           03410006970000000135929000006LOJA BA ESPAT?DEAS -00000000000009005048PAG0000000003452000000000000006           
52017060120170602000248767312284644      01010602D000000000269000000000000290000000000000000000000001520253692193673                                           03410006970000000135929000006LOJA BA ESPAT?DEAS -00000000000009005048PAG0000000002661000000000000006           
52017060120170602000002582306136532      01010601D000000000429000000000000490000000000000000000000001524391942193553                                           03410006970000000135929000006LOJA BA ESPAT?DEAS -00000000000009005048PAG0000000004241000000000000006           
52017060120170602000002885566021325      01010601D000000000299000000000000340000000000000000000000001524391942193642                                           03410006970000000135929000006LOJA BA ESPAT?DEAS -00000000000009005048PAG0000000002956000000000000006           
52017060120170602000003806756252721      01010601D000000000120000000000000140000000000000000000000001524391942193876                                           03410006970000000135929000006LOJA BA ESPAT?DEAS -00000000000009005048PAG0000000001186000000000000006           
52017060120170602000004169176157849      01010601D000000004491000000000005120000000000000000000000001524391942193984                                           03410006970000000135929000006LOJA BA ESPAT?DEAS -00000000000009005048PAG0000000044398000000000000006           
52017060120170602000004179964472464      01010601D000000000269000000000000310000000000000000000000001524391942193988                                           03410006970000000135929000006LOJA BA ESPAT?DEAS -00000000000009005048PAG0000000002659000000000000006           
52017060120170602000004260364024274      01010601D000000020000000000000022800000000000000000000000001524391942194006                                           03410006970000000135929000006LOJA BA ESPAT?DEAS -00000000000009005048PAG0000000197720000000000000006           
52017060120170602000004455738060159      01010601D000000015200100000000017330000000000000000000000001524391942194050                                           03410006970000000135929000006LOJA BA ESPAT?DEAS -00000000000009005048PAG0000000150268000000000000006           
52017060120170602000248170572149620      01010601D000000000949000000000001080000000000000000000000001524391942193802                                           03410006970000000135929000006LOJA BA ESPAT?DEAS -00000000000009005048PAG0000000009382000000000000006           
52017060120170602000002617826018384      01010602D000000004000000000000004360000000000000000000000001520298772193567                                           03410006970000000135929000007LOJA SE ARACAJU - 0200000000000009796037PAG0000000039564000000000000007           
52017060120170602000002641832314507      01010602D000000000598000000000000650000000000000000000000001520298772193569                                           03410006970000000135929000007LOJA SE ARACAJU - 0200000000000009796037PAG0000000005915000000000000007           
52017060120170602000003295876030415      01010602D000000000129000000000000140000000000000000000000001520298772193740                                           03410006970000000135929000007LOJA SE ARACAJU - 0200000000000009796037PAG0000000001276000000000000007           
52017060120170602000004071806043423      01010602D000000000838000000000000910000000000000000000000001520298772193952                                           03410006970000000135929000007LOJA SE ARACAJU - 0200000000000009796037PAG0000000008289000000000000007           
52017060120170602000004084232315622      01010602D000000000489000000000000530000000000000000000000001520298772193959                                           03410006970000000135929000007LOJA SE ARACAJU - 0200000000000009796037PAG0000000004837000000000000007           
52017060120170602000004159028328031      01010602D000000000349000000000000380000000000000000000000001520298772193983                                           03410006970000000135929000007LOJA SE ARACAJU - 0200000000000009796037PAG0000000003452000000000000007           
52017060120170602000004458990240342      01010602D000000000699000000000000760000000000000000000000001520298772194054                                           03410006970000000135929000007LOJA SE ARACAJU - 0200000000000009796037PAG0000000006914000000000000007           
52017060120170602000247053466424777      01010602D000000000369000000000000400000000000000000000000001520298772194098                                           03410006970000000135929000007LOJA SE ARACAJU - 0200000000000009796037PAG0000000003650000000000000007           
52017060120170602000249615128012993      01010602D000000001348000000000001470000000000000000000000001520298772193512                                           03410006970000000135929000007LOJA SE ARACAJU - 0200000000000009796037PAG0000000013333000000000000007           
52017060120170602000003228310402580      01010601D000000001796000000000002050000000000000000000000001524427932193724                                           03410006970000000135929000007LOJA SE ARACAJU - 0200000000000009796037PAG0000000017755000000000000007           
52017031220170602000003558042055659      01010601D000000000799900000000000910000000000000000000000001524427932088678                                           03410006970000000135929000021SHOPPING BA IGUATEMI00000000000009796037PAG0000000007908000000000000021           
52017060120170602000003630642022811      01010601D000000003644200000000004150000000000000000000000001524427932193822                                           03410006970000000135929000007LOJA SE ARACAJU - 0200000000000009796037PAG0000000036027000000000000007           
52017060120170602000004008498023712      01010601D000000000249000000000000280000000000000000000000001524427932193933                                           03410006970000000135929000007LOJA SE ARACAJU - 0200000000000009796037PAG0000000002462000000000000007           
52017060120170602000004387680024562      01010601D000000000849000000000000970000000000000000000000001524427932194037                                           03410006970000000135929000007LOJA SE ARACAJU - 0200000000000009796037PAG0000000008393000000000000007           
52017060120170602000247567206257530      01010601D000000002460500000000002800000000000000000000000001524427932193977                                           03410006970000000135929000007LOJA SE ARACAJU - 0200000000000009796037PAG0000000024325000000000000007           
52017060120170602000249227518136823      01010601D000000003890000000000004430000000000000000000000001524427932193559                                           03410006970000000135929000007LOJA SE ARACAJU - 0200000000000009796037PAG0000000038457000000000000007           
52017060120170602000002941346132039      01010602D000000000690000000000000750000000000000000000000001521561412193653                                           03410006970000000135929000011LOJA BA LAURO DE FRE00000000000026404095PAG0000000006825000000000000011           
52017060120170602000003531306230308      01010602D000000000449000000000000490000000000000000000000001521561412193793                                           03410006970000000135929000011LOJA BA LAURO DE FRE00000000000026404095PAG0000000004441000000000000011           
52017060120170602000003786006271310      01010602D000000002848000000000003100000000000000000000000001521561412193869                                           03410006970000000135929000011LOJA BA LAURO DE FRE00000000000026404095PAG0000000028170000000000000011           
52017060120170602000247255104370523      01010602D000000001251000000000001360000000000000000000000001521561412194049                                           03410006970000000135929000011LOJA BA LAURO DE FRE00000000000026404095PAG0000000012374000000000000011           
52017060120170602000247777264295665      01010602D000000001099000000000001200000000000000000000000001521561412193921                                           03410006970000000135929000011LOJA BA LAURO DE FRE00000000000026404095PAG0000000010870000000000000011           
52017060120170602000249189098329969      01010602D000000000798000000000000870000000000000000000000001521561412193570                                           03410006970000000135929000011LOJA BA LAURO DE FRE00000000000026404095PAG0000000007893000000000000011           
52017060120170602000002424266133603      01010601D000000000449000000000000510000000000000000000000001525443692193523                                           03410006970000000135929000011LOJA BA LAURO DE FRE00000000000026404095PAG0000000004439000000000000011           
52017060120170602000002679628024265      01010601D000000003125500000000003560000000000000000000000001525443692193577                                           03410006970000000135929000011LOJA BA LAURO DE FRE00000000000026404095PAG0000000030899000000000000011           
52017060120170602000002765106139480      01010601D000000003590000000000004090000000000000000000000001525443692193606                                           03410006970000000135929000011LOJA BA LAURO DE FRE00000000000026404095PAG0000000035491000000000000011           
52017060120170602000004505648262164      01010601D000000000849000000000000970000000000000000000000001525443692194062                                           03410006970000000135929000011LOJA BA LAURO DE FRE00000000000026404095PAG0000000008393000000000000011           
52017060120170602000248257944022550      01010601D000000000828000000000000940000000000000000000000001525443692193788                                           03410006970000000135929000011LOJA BA LAURO DE FRE00000000000026404095PAG0000000008186000000000000011           
52017060120170602000249099646138839      01010601D000000000790000000000000900000000000000000000000001525443692193591                                           03410006970000000135929000011LOJA BA LAURO DE FRE00000000000026404095PAG0000000007810000000000000011           
52017060120170602000249134428020845      01010601D000000005688600000000006490000000000000000000000001525443692193583                                           03410006970000000135929000011LOJA BA LAURO DE FRE00000000000026404095PAG0000000056237000000000000011           
52017060120170602000002810658113043      01010602D000000000498000000000000540000000000000000000000001521708012193619                                           03410006970000000135929000018SHOPPING BA SALVADOR00000000000028781619PAG0000000004926000000000000018           
52017060120170602000003357328915645      01010602D000000000449000000000000490000000000000000000000001521708012193754                                           03410006970000000135929000018SHOPPING BA SALVADOR00000000000028781619PAG0000000004441000000000000018           
52017060120170602000003554250414896      01010602D000000000250000000000000270000000000000000000000001521708012193796                                           03410006970000000135929000018SHOPPING BA SALVADOR00000000000028781619PAG0000000002473000000000000018           
52017060120170602000004261200852948      01010602D000000000299000000000000330000000000000000000000001521708012194008                                           03410006970000000135929000018SHOPPING BA SALVADOR00000000000028781619PAG0000000002957000000000000018           
52017060120170602000004502356378788      01010602D000000000099000000000000110000000000000000000000001521708012194061                                           03410006970000000135929000018SHOPPING BA SALVADOR00000000000028781619PAG0000000000979000000000000018           
52017060120170602000005268768502714      01010602D000000000499000000000000540000000000000000000000001521708012194256                                           03410006970000000135929000018SHOPPING BA SALVADOR00000000000028781619PAG0000000004936000000000000018           
52017060120170602000005355894439049      01010602D000000000449000000000000490000000000000000000000001521708012194274                                           03410006970000000135929000018SHOPPING BA SALVADOR00000000000028781619PAG0000000004441000000000000018           
52017060120170602000245963084370542      01010602D000000004662000000000005080000000000000000000000001521708012194335                                           03410006970000000135929000018SHOPPING BA SALVADOR00000000000028781619PAG0000000046112000000000000018           
52017060120170602000245965320561663      01010602D000000008100000000000008830000000000000000000000001521708012194334                                           03410006970000000135929000018SHOPPING BA SALVADOR00000000000028781619PAG0000000080117000000000000018           
52017060120170602000246631462044163      01010602D000000000590000000000000640000000000000000000000001521708012194205                                           03410006970000000135929000018SHOPPING BA SALVADOR00000000000028781619PAG0000000005836000000000000018           
52017060120170602000247772190174945      01010602D000000003310800000000003610000000000000000000000001521708012193922                                           03410006970000000135929000018SHOPPING BA SALVADOR00000000000028781619PAG0000000032747000000000000018           
52017071620170602000247848552361999      01010602D000000000728000000000000790000000000000000000000001521708012234421                                           03410006970000000135929000018SHOPPING BA SALVADOR00000000000028781619PAG0000000007201000000000000018           
52017060120170602000248605710310266      01010602D000000001189000000000001300000000000000000000000001521708012193713                                           03410006970000000135929000018SHOPPING BA SALVADOR00000000000028781619PAG0000000011760000000000000018           
52017060120170602000002460870020166      01010601D000000001730000000000001970000000000000000000000001525566362193526                                           03410006970000000135929000018SHOPPING BA SALVADOR00000000000028781619PAG0000000017103000000000000018           
52017060120170602000003112262144327      01010601D000000000119000000000000140000000000000000000000001525566362193701                                           03410006970000000135929000018SHOPPING BA SALVADOR00000000000028781619PAG0000000001176000000000000018           
52017060120170602000003660736350647      01010601D000000001199000000000001370000000000000000000000001525566362193833                                           03410006970000000135929000018SHOPPING BA SALVADOR00000000000028781619PAG0000000011853000000000000018           
52017060120170602000003711738251343      01010601D000000000299000000000000340000000000000000000000001525566362193850                                           03410006970000000135929000018SHOPPING BA SALVADOR00000000000028781619PAG0000000002956000000000000018           
52017060120170602000003843140023286      01010601D000000000269000000000000310000000000000000000000001525566362193897                                           03410006970000000135929000018SHOPPING BA SALVADOR00000000000028781619PAG0000000002659000000000000018           
52017060120170602000004045600023781      01010601D000000000529000000000000600000000000000000000000001525566362193944                                           03410006970000000135929000018SHOPPING BA SALVADOR00000000000028781619PAG0000000005230000000000000018           
52017030120170602000004058430905733      01010601D000000000718000000000000820000000000000000000000001525566362078683                                           03410006970000000135929000018SHOPPING BA SALVADOR00000000000028781619PAG0000000007098000000000000018           
52017060120170602000004060314023834      01010601D000000000170000000000000190000000000000000000000001525566362193955                                           03410006970000000135929000018SHOPPING BA SALVADOR00000000000028781619PAG0000000001681000000000000018           
52017060120170602000004482822361891      01010601D000000000790000000000000900000000000000000000000001525566362194059                                           03410006970000000135929000018SHOPPING BA SALVADOR00000000000028781619PAG0000000007810000000000000018           
52017060120170602000004989248842855      01010601D000000000499000000000000570000000000000000000000001525566362194176                                           03410006970000000135929000018SHOPPING BA SALVADOR00000000000028781619PAG0000000004933000000000000018           
52017060120170602000005133322169662      01010601D000000000599000000000000680000000000000000000000001525566362194222                                           03410006970000000135929000018SHOPPING BA SALVADOR00000000000028781619PAG0000000005922000000000000018           
52017020720170602000005258988614301      01010601D000000000180000000000000210000000000000000000000001525566362064172                                           03410006970000000135929000021SHOPPING BA IGUATEMI00000000000028781619PAG0000000001779000000000000021           
52017060120170602000005361146273374      01010601D000000000369000000000000420000000000000000000000001525566362194276                                           03410006970000000135929000018SHOPPING BA SALVADOR00000000000028781619PAG0000000003648000000000000018           
52017060120170602000246530442026114      01010601D000000001190000000000001360000000000000000000000001525566362194225                                           03410006970000000135929000018SHOPPING BA SALVADOR00000000000028781619PAG0000000011764000000000000018           
52017060120170602000247324438160632      01010601D000000000599000000000000680000000000000000000000001525566362194034                                           03410006970000000135929000018SHOPPING BA SALVADOR00000000000028781619PAG0000000005922000000000000018           
52017060120170602000248348400247669      01010601D000000003780000000000004310000000000000000000000001525566362193767                                           03410006970000000135929000018SHOPPING BA SALVADOR00000000000028781619PAG0000000037369000000000000018           
52017060120170602000002502016445348      01010602D000000000159000000000000170000000000000000000000001521845112193534                                           03410006970000000135929000021SHOPPING BA IGUATEMI00000000000031120199PAG0000000001573000000000000021           
52017060120170602000002823896851861      01010602D000000000790000000000000860000000000000000000000001521845112193623                                           03410006970000000135929000021SHOPPING BA IGUATEMI00000000000031120199PAG0000000007814000000000000021           
52017060120170602000002938762131906      01010602D000000001469000000000001600000000000000000000000001521845112193652                                           03410006970000000135929000021SHOPPING BA IGUATEMI00000000000031120199PAG0000000014530000000000000021           
52017060120170602000003412562208806      01010602D000000002090000000000002280000000000000000000000001521845112193765                                           03410006970000000135929000021SHOPPING IGUATEMI   00000000000031120199PAG0000000020672000000000000021           
52017060120170602000003805640844554      01010602D000000001708200000000001860000000000000000000000001521845112193875                                           03410006970000000135929000021SHOPPING BA IGUATEMI00000000000031120199PAG0000000016896000000000000021           
52017060120170602000003936266144776      01010602D000000000529000000000000580000000000000000000000001521845112193918                                           03410006970000000135929000021SHOPPING BA IGUATEMI00000000000031120199PAG0000000005232000000000000021           
52017060120170602000004222954162679      01010602D000000000890000000000000970000000000000000000000001521845112193997                                           03410006970000000135929000021SHOPPING BA IGUATEMI00000000000031120199PAG0000000008803000000000000021           
52017060120170602000004225196336397      01010602D000000005000000000000005450000000000000000000000001521845112194000                                           03410006970000000135929000021SHOPPING BA IGUATEMI00000000000031120199PAG0000000049455000000000000021           
52017060120170602000004273364877719      01010602D000000003000000000000003270000000000000000000000001521845112194011                                           03410006970000000135929000021SHOPPING BA IGUATEMI00000000000031120199PAG0000000029673000000000000021           
52017060120170602000004543160386629      01010602D000000005000000000000005450000000000000000000000001521845112194074                                           03410006970000000135929000021SHOPPING BA IGUATEMI00000000000031120199PAG0000000049455000000000000021           
52017060120170602000004742176000968      01010602D000000000449000000000000490000000000000000000000001521845112194113                                           03410006970000000135929000021SHOPPING BA IGUATEMI00000000000031120199PAG0000000004441000000000000021           
52017060120170602000004811744837113      01010602D000000000449000000000000490000000000000000000000001521845112194133                                           03410006970000000135929000021SHOPPING BA IGUATEMI00000000000031120199PAG0000000004441000000000000021           
52017060120170602000004833282869743      01010602D000000000109000000000000120000000000000000000000001521845112194137                                           03410006970000000135929000021SHOPPING BA IGUATEMI00000000000031120199PAG0000000001078000000000000021           
52017060120170602000004909184977615      01010602D000000000289000000000000320000000000000000000000001521845112194155                                           03410006970000000135929000021SHOPPING BA IGUATEMI00000000000031120199PAG0000000002858000000000000021           
52017060120170602000005094136219497      01010602D000000000899000000000000980000000000000000000000001521845112194210                                           03410006970000000135929000021SHOPPING BA IGUATEMI00000000000031120199PAG0000000008892000000000000021           
52017060120170602000005437772532413      01010602D000000000599000000000000650000000000000000000000001521845112194292                                           03410006970000000135929000021SHOPPING BA IGUATEMI00000000000031120199PAG0000000005925000000000000021           
52017060120170602000247211348300459      01010602D000000007191000000000007840000000000000000000000001521845112194068                                           03410006970000000135929000021SHOPPING IGUATEMI   00000000000031120199PAG0000000071126000000000000021           
52017060120170602000248081824251320      01010602D000000000890000000000000970000000000000000000000001521845112193834                                           03410006970000000135929000021SHOPPING IGUATEMI   00000000000031120199PAG0000000008803000000000000021           
52017060120170602000003146096021868      01010601D000000000678000000000000770000000000000000000000001525681422193708                                           03410006970000000135929000021SHOPPING BA IGUATEMI00000000000031120199PAG0000000006703000000000000021           
52017060120170602000003263780022103      01010601D000000001830000000000002090000000000000000000000001525681422193729                                           03410006970000000135929000021SHOPPING BA IGUATEMI00000000000031120199PAG0000000018091000000000000021           
52017060120170602000003343698646872      01010601D000000000899000000000001020000000000000000000000001525681422193749                                           03410006970000000135929000021SHOPPING BA IGUATEMI00000000000031120199PAG0000000008888000000000000021           
52017060120170602000003349896746939      01010601D000000001889000000000002150000000000000000000000001525681422193751                                           03410006970000000135929000021SHOPPING BA IGUATEMI00000000000031120199PAG0000000018675000000000000021           
52017060120170602000003396534247465      01010601D000000000299000000000000340000000000000000000000001525681422193762                                           03410006970000000135929000021SHOPPING BA IGUATEMI00000000000031120199PAG0000000002956000000000000021           
52017060120170602000003534614375560      01010601D000000001225500000000001400000000000000000000000001525681422193792                                           03410006970000000135929000021SHOPPING IGUATEMI   00000000000031120199PAG0000000012115000000000000021           
52017060120170602000003628606350235      01010601D000000001867500000000002130000000000000000000000001525681422193820                                           03410006970000000135929000021SHOPPING BA IGUATEMI00000000000031120199PAG0000000018462000000000000021           
52017060120170602000003644166022831      01010601D000000001890500000000002160000000000000000000000001525681422193825                                           03410006970000000135929000021SHOPPING BA IGUATEMI00000000000031120199PAG0000000018689000000000000021           
52017060120170602000003777152313065      01010601D000000000459000000000000520000000000000000000000001525681422193864                                           03410006970000000135929000021SHOPPING BA IGUATEMI00000000000031120199PAG0000000004538000000000000021           
52017060120170602000003795850023209      01010601D000000000990000000000001130000000000000000000000001525681422193873                                           03410006970000000135929000021SHOPPING IGUATEMI   00000000000031120199PAG0000000009787000000000000021           
52017060120170602000003798804152603      01010601D000000001347000000000001540000000000000000000000001525681422193872                                           03410006970000000135929000021SHOPPING BA IGUATEMI00000000000031120199PAG0000000013316000000000000021           
52017060120170602000004130056023959      01010601D000000007549200000000008610000000000000000000000001525681422193971                                           03410006970000000135929000021SHOPPING BA IGUATEMI00000000000031120199PAG0000000074631000000000000021           
52017060120170602000004271120293352      01010601D000000000549000000000000630000000000000000000000001525681422194009                                           03410006970000000135929000021SHOPPING BA IGUATEMI00000000000031120199PAG0000000005427000000000000021           
52017060120170602000004359450160349      01010601D000000002961000000000003380000000000000000000000001525681422194026                                           03410006970000000135929000021SHOPPING BA IGUATEMI00000000000031120199PAG0000000029272000000000000021           
52017060120170602000004754554025241      01010601D000000000549000000000000630000000000000000000000001525681422194117                                           03410006970000000135929000021SHOPPING BA IGUATEMI00000000000031120199PAG0000000005427000000000000021           
52017060120170602000005047886025830      01010601D000000000390000000000000440000000000000000000000001525681422194200                                           03410006970000000135929000021SHOPPING IGUATEMI   00000000000031120199PAG0000000003856000000000000021           
52017060120170602000005218962026268      01010601D000000000269000000000000310000000000000000000000001525681422194242                                           03410006970000000135929000021SHOPPING BA IGUATEMI00000000000031120199PAG0000000002659000000000000021           
52017032520170602000005247800025387      01010601D000000019880800000000022660000000000000000000000001525681422109838                                           03410006970000000135929000038SHOPPING SE JARDINS 00000000000031120199PAG0000000196542000000000000038           
52017060120170602000005346766026601      01010601D000000000449000000000000510000000000000000000000001525681422194271                                           03410006970000000135929000021SHOPPING BA IGUATEMI00000000000031120199PAG0000000004439000000000000021           
52017060120170602000246523802291754      01010601D000000001311000000000001490000000000000000000000001525681422194226                                           03410006970000000135929000021SHOPPING BA IGUATEMI00000000000031120199PAG0000000012961000000000000021           
52017060120170602000246704056025715      01010601D000000002090000000000002380000000000000000000000001525681422194199                                           03410006970000000135929000021SHOPPING IGUATEMI   00000000000031120199PAG0000000020662000000000000021           
52017060120170602000247864850023344      01010601D000000000199000000000000230000000000000000000000001525681422193900                                           03410006970000000135929000021SHOPPING BA IGUATEMI00000000000031120199PAG0000000001967000000000000021           
52017060120170602000248129292383680      01010601D000000009891000000000011280000000000000000000000001525681422193813                                           03410006970000000135929000021SHOPPING BA IGUATEMI00000000000031120199PAG0000000097782000000000000021           
52017060120170602000249085786239032      01010601D000000000150000000000000170000000000000000000000001525681422193597                                           03410006970000000135929000021SHOPPING BA IGUATEMI00000000000031120199PAG0000000001483000000000000021           
52017060120170602000002526218072949      01010602D000000000690000000000000750000000000000000000000001522000322193539                                           03410006970000000135929000023SHOPPING BA SSA NORT00000000000033879419PAG0000000006825000000000000023           
52017060120170602000002659588090497      01010602D000000000518000000000000560000000000000000000000001522000322193572                                           03410006970000000135929000023SHOPPING BA SSA NORT00000000000033879419PAG0000000005124000000000000023           
52017060120170602000002671478399493      01010602D000000000299000000000000330000000000000000000000001522000322193575                                           03410006970000000135929000023SHOPPING BA SSA NORT00000000000033879419PAG0000000002957000000000000023           
52017060120170602000003314234192827      01010602D000000001008000000000001100000000000000000000000001522000322193741                                           03410006970000000135929000023SHOPPING BA SSA NORT00000000000033879419PAG0000000009970000000000000023           
52017060120170602000003397060206260      01010602D000000001000000000000001090000000000000000000000001522000322193763                                           03410006970000000135929000023SHOPPING BA SSA NORT00000000000033879419PAG0000000009891000000000000023           
52017060120170602000003401046207518      01010602D000000000590000000000000640000000000000000000000001522000322193764                                           03410006970000000135929000023SHOPPING BA SSA NORT00000000000033879419PAG0000000005836000000000000023           
52017060120170602000004022500191474      01010602D000000001159000000000001260000000000000000000000001522000322193937                                           03410006970000000135929000023SHOPPING BA SSA NORT00000000000033879419PAG0000000011464000000000000023           
52017060120170602000004149322617826      01010602D000000000129000000000000140000000000000000000000001522000322193980                                           03410006970000000135929000023SHOPPING BA SSA NORT00000000000033879419PAG0000000001276000000000000023           
52017060120170602000004560140388998      01010602D000000001149000000000001250000000000000000000000001522000322194079                                           03410006970000000135929000023SHOPPING BA SSA NORT00000000000033879419PAG0000000011365000000000000023           
52017060120170602000004914014984143      01010602D000000001590000000000001730000000000000000000000001522000322194157                                           03410006970000000135929000023SHOPPING BA SSA NORT00000000000033879419PAG0000000015727000000000000023           
52017060120170602000004947274030431      01010602D000000000569000000000000620000000000000000000000001522000322194168                                           03410006970000000135929000023SHOPPING BA SSA NORT00000000000033879419PAG0000000005628000000000000023           
52017060120170602000005111932241909      01010602D000000006561000000000007150000000000000000000000001522000322194216                                           03410006970000000135929000023SHOPPING BA SSA NORT00000000000033879419PAG0000000064895000000000000023           
52017060120170602000005128906480406      01010602D000000000449000000000000490000000000000000000000001522000322194219                                           03410006970000000135929000023SHOPPING BA SSA NORT00000000000033879419PAG0000000004441000000000000023           
52017060120170602000005458064615028      01010602D000000000849000000000000930000000000000000000000001522000322194297                                           03410006970000000135929000023SHOPPING BA SSA NORT00000000000033879419PAG0000000008397000000000000023           
52017060120170602000246862992877412      01010602D000000000499000000000000540000000000000000000000001522000322194138                                           03410006970000000135929000023SHOPPING BA SSA NORT00000000000033879419PAG0000000004936000000000000023           
52017060120170602000247915724861340      01010602D000000003000000000000003270000000000000000000000001522000322193881                                           03410006970000000135929000023SHOPPING BA SSA NORT00000000000033879419PAG0000000029673000000000000023           
52017060120170602000249030976109054      01010602D000000000499000000000000540000000000000000000000001522000322193609                                           03410006970000000135929000023SHOPPING BA SSA NORT00000000000033879419PAG0000000004936000000000000023           
52017060120170602000002790810139886      01010601D000000000499000000000000570000000000000000000000001525813962193612                                           03410006970000000135929000023SHOPPING BA SSA NORT00000000000033879419PAG0000000004933000000000000023           
52017060120170602000003152378263055      01010601D000000000849000000000000970000000000000000000000001525813962193710                                           03410006970000000135929000023SHOPPING BA SSA NORT00000000000033879419PAG0000000008393000000000000023           
52017031720170602000003224690144127      01010601D000000000819000000000000930000000000000000000000001525813962092807                                           03410006970000000135929000042SHOPPING BA BOULEVAR00000000000033879419PAG0000000008097000000000000042           
52017060120170602000003455846248144      01010601D000000000299000000000000340000000000000000000000001525813962193776                                           03410006970000000135929000023SHOPPING BA SSA NORT00000000000033879419PAG0000000002956000000000000023           
52017060120170602000005409654026827      01010601D000000007307100000000008330000000000000000000000001525813962194284                                           03410006970000000135929000023SHOPPING BA SSA NORT00000000000033879419PAG0000000072238000000000000023           
52017060120170602000005584002398770      01010601D000000000499000000000000570000000000000000000000001525813962194321                                           03410006970000000135929000023SHOPPING BA SSA NORT00000000000033879419PAG0000000004933000000000000023           
52017060120170602000246802652025514      01010601D000000007191000000000008200000000000000000000000001525813962194151                                           03410006970000000135929000023SHOPPING BA SSA NORT00000000000033879419PAG0000000071090000000000000023           
52017060120170602000246967636025236      01010601D000000000250000000000000290000000000000000000000001525813962194111                                           03410006970000000135929000023SHOPPING BA SSA NORT00000000000033879419PAG0000000002471000000000000023           
52017060120170602000247124988024921      01010601D000000000390000000000000440000000000000000000000001525813962194082                                           03410006970000000135929000023SHOPPING BA SSA NORT00000000000033879419PAG0000000003856000000000000023           
52017060120170602000249437596333516      01010601D000000000849000000000000970000000000000000000000001525813962193522                                           03410006970000000135929000023SHOPPING BA SSA NORT00000000000033879419PAG0000000008393000000000000023           
52017060120170602000003033026306824      01010602D000000004932000000000005380000000000000000000000001522719422193677                                           03410006970000000135929000034SHOPPING SE RIOMAR A00000000000046138781PAG0000000048782000000000000034           
52017060120170602000003114044011774      01010602D000000001239000000000001350000000000000000000000001522719422193703                                           03410006970000000135929000034SHOPPING SE RIOMAR A00000000000046138781PAG0000000012255000000000000034           
52017060120170602000003793392038957      01010602D000000000404100000000000440000000000000000000000001522719422193871                                           03410006970000000135929000034SHOPPING SE RIOMAR A00000000000046138781PAG0000000003997000000000000034           
52017060120170602000004913542983487      01010602D000000001790000000000001950000000000000000000000001522719422194159                                           03410006970000000135929000034SHOPPING SE RIOMAR A00000000000046138781PAG0000000017705000000000000034           
52017060120170602000248969438854867      01010602D000000003314600000000003610000000000000000000000001522719422193628                                           03410006970000000135929000034SHOPPING SE RIOMAR A00000000000046138781PAG0000000032785000000000000034           
52017060120170602000003617950533440      01010601D000000000790000000000000900000000000000000000000001526443962193814                                           03410006970000000135929000034SHOPPING SE RIOMAR A00000000000046138781PAG0000000007810000000000000034           
52017060120170602000004060622853694      01010601D000000001213200000000001380000000000000000000000001526443962193949                                           03410006970000000135929000034SHOPPING SE RIOMAR A00000000000046138781PAG0000000011994000000000000034           
52017060120170602000004435248014670      01010601D000000001080000000000001230000000000000000000000001526443962194046                                           03410006970000000135929000034SHOPPING SE RIOMAR A00000000000046138781PAG0000000010677000000000000034           
52017060120170602000246195550584272      01010601D000000000849000000000000970000000000000000000000001526443962194303                                           03410006970000000135929000034SHOPPING SE RIOMAR A00000000000046138781PAG0000000008393000000000000034           
52017060120170602000248299354082472      01010602D000000001289000000000001410000000000000000000000001522926882193778                                           03410006970000000135929000036SHOPPING BA JEQUITIB00000000000049693867PAG0000000012749000000000000036           
52017060120170602000003097152021801      01010601D000000000818000000000000930000000000000000000000001526625572193695                                           03410006970000000135929000036SHOPPING BA JEQUITIB00000000000049693867PAG0000000008087000000000000036           
52017060120170602000003105894644253      01010601D000000000499000000000000570000000000000000000000001526625572193699                                           03410006970000000135929000036SHOPPING BA JEQUITIB00000000000049693867PAG0000000004933000000000000036           
52017060120170602000003451462148092      01010601D000000018000000000000020520000000000000000000000001526625572193773                                           03410006970000000135929000036SHOPPING BA JEQUITIB00000000000049693867PAG0000000177948000000000000036           
52017060120170602000003641426022849      01010601D000000000890000000000001010000000000000000000000001526625572193823                                           03410006970000000135929000036SHOPPING BA JEQUITIB00000000000049693867PAG0000000008799000000000000036           
52017060120170602000004305038024351      01010601D000000020000000000000022800000000000000000000000001526625572194018                                           03410006970000000135929000036SHOPPING BA JEQUITIB00000000000049693867PAG0000000197720000000000000036           
52017060120170602000005146760169858      01010601D000000001190000000000001360000000000000000000000001526625572194223                                           03410006970000000135929000036SHOPPING BA JEQUITIB00000000000049693867PAG0000000011764000000000000036           
52017060120170602000005497896673831      01010601D000000000099000000000000110000000000000000000000001526625572194309                                           03410006970000000135929000036SHOPPING BA JEQUITIB00000000000049693867PAG0000000000979000000000000036           
52017060120170602000005523680141972      01010601D000000000099000000000000110000000000000000000000001526625572194312                                           03410006970000000135929000036SHOPPING BA JEQUITIB00000000000049693867PAG0000000000979000000000000036           
52017060120170602000005556368376983      01010601D000000000390000000000000440000000000000000000000001526625572194317                                           03410006970000000135929000036SHOPPING BA JEQUITIB00000000000049693867PAG0000000003856000000000000036           
52017060120170602000246393806026437      01010601D000000000599000000000000680000000000000000000000001526625572194258                                           03410006970000000135929000036SHOPPING BA JEQUITIB00000000000049693867PAG0000000005922000000000000036           
52017021120170602000246820816078643      01010601D000000002590000000000002950000000000000000000000001526625572067651                                           03410006970000000135929000023SHOPPING BA SSA NORT00000000000049693867PAG0000000025605000000000000023           
52017060120170602000248760492243313      01010601D000000002990000000000003410000000000000000000000001526625572193674                                           03410006970000000135929000036SHOPPING BA JEQUITIB00000000000049693867PAG0000000029559000000000000036           
52017060120170602000002954932132960      01010602D000000000849000000000000930000000000000000000000001523012652193655                                           03410006970000000135929000038SHOPPING SE JARDINS 00000000000051121808PAG0000000008397000000000000038           
52017060120170602000003253366732109      01010602D000000001985500000000002160000000000000000000000001523012652193728                                           03410006970000000135929000038SHOPPING SE JARDINS 00000000000051121808PAG0000000019639000000000000038           
52017060120170602000003972462182065      01010602D000000000269000000000000290000000000000000000000001523012652193928                                           03410006970000000135929000038SHOPPING SE JARDINS 00000000000051121808PAG0000000002661000000000000038           
52017060120170602000004545020052209      01010602D000000000349000000000000380000000000000000000000001523012652194076                                           03410006970000000135929000038SHOPPING SE JARDINS 00000000000051121808PAG0000000003452000000000000038           
52017060120170602000005347180509092      01010602D000000000764100000000000830000000000000000000000001523012652194272                                           03410006970000000135929000038SHOPPING SE JARDINS 00000000000051121808PAG0000000007558000000000000038           
52017060120170602000005389340523955      01010602D000000000169000000000000180000000000000000000000001523012652194281                                           03410006970000000135929000038SHOPPING SE JARDINS 00000000000051121808PAG0000000001672000000000000038           
52017060120170602000246347528492493      01010602D000000000853200000000000930000000000000000000000001523012652194266                                           03410006970000000135929000038SHOPPING SE JARDINS 00000000000051121808PAG0000000008439000000000000038           
52017060120170602000246700926092820      01010602D000000000169000000000000180000000000000000000000001523012652194179                                           03410006970000000135929000038SHOPPING SE JARDINS 00000000000051121808PAG0000000001672000000000000038           
52017060120170602000247274672049925      01010602D000000008999900000000009810000000000000000000000001523012652194045                                           03410006970000000135929000038SHOPPING SE JARDINS 00000000000051121808PAG0000000089018000000000000038           
52017060120170602000247588884566133      01010602D000000000198000000000000220000000000000000000000001523012652193970                                           03410006970000000135929000038SHOPPING SE JARDINS 00000000000051121808PAG0000000001958000000000000038           
52017060120170602000248850824876666      01010602D000000001339000000000001460000000000000000000000001523012652193654                                           03410006970000000135929000038SHOPPING SE JARDINS 00000000000051121808PAG0000000013244000000000000038           
52017060120170602000002886170141335      01010601D000000001289000000000001470000000000000000000000001526697672193643                                           03410006970000000135929000038SHOPPING SE JARDINS 00000000000051121808PAG0000000012743000000000000038           
52017060120170602000003496274648619      01010601D000000000790000000000000900000000000000000000000001526697672193786                                           03410006970000000135929000038SHOPPING SE JARDINS 00000000000051121808PAG0000000007810000000000000038           
52017060120170602000003702368151213      01010601D000000000329000000000000380000000000000000000000001526697672193846                                           03410006970000000135929000038SHOPPING SE JARDINS 00000000000051121808PAG0000000003252000000000000038           
52017060120170602000003815656152848      01010601D000000003125500000000003560000000000000000000000001526697672193885                                           03410006970000000135929000038SHOPPING SE JARDINS 00000000000051121808PAG0000000030899000000000000038           
52017060120170602000003941132023556      01010601D000000000808200000000000920000000000000000000000001526697672193920                                           03410006970000000135929000038SHOPPING SE JARDINS 00000000000051121808PAG0000000007990000000000000038           
52017060120170602000004524084262369      01010601D000000000404100000000000460000000000000000000000001526697672194070                                           03410006970000000135929000038SHOPPING SE JARDINS 00000000000051121808PAG0000000003995000000000000038           
52017031420170602000004521482683597      01010601D000000000339000000000000390000000000000000000000001526697672090517                                           03410006970000000135929000021SHOPPING BA IGUATEMI00000000000051121808PAG0000000003351000000000000021           
52017060120170602000004886860366492      01010601D000000001290000000000001470000000000000000000000001526697672194150                                           03410006970000000135929000038SHOPPING SE JARDINS 00000000000051121808PAG0000000012753000000000000038           
52017060120170602000248812914242651      01010601D000000000249000000000000280000000000000000000000001526697672193662                                           03410006970000000135929000038SHOPPING SE JARDINS 00000000000051121808PAG0000000002462000000000000038           
52017060120170602000003655062120548      01010602D000000001423100000000001550000000000000000000000001523174882193829                                           03410006970000000135929000042SHOPPING BA BOULEVAR00000000000053856864PAG0000000014076000000000000042           
52017060120170602000004716330263750      01010602D000000003844600000000004190000000000000000000000001523174882194106                                           03410006970000000135929000042SHOPPING BA BOULEVAR00000000000053856864PAG0000000038027000000000000042           
52017060120170602000004995172267821      01010601D000000001780000000000002030000000000000000000000001526838202194181                                           03410006970000000135929000042SHOPPING BA BOULEVAR00000000000053856864PAG0000000017597000000000000042           
52017060120170602000002565802078709      01010602D000000000998000000000001090000000000000000000000001523629702193550                                           03410006970000000135929000044SHOPPING BA PIEDADE 00000000000063370859PAG0000000009871000000000000044           
52017060120170602000003104332009713      01010602D000000000050000000000000050000000000000000000000001523629702193700                                           03410006970000000135929000044SHOPPING BA PIEDADE 00000000000063370859PAG0000000000495000000000000044           
52017060120170602000003950756178945      01010602D000000000790000000000000860000000000000000000000001523629702193923                                           03410006970000000135929000044SHOPPING BA PIEDADE 00000000000063370859PAG0000000007814000000000000044           
52017060120170602000004228250786378      01010602D000000005174100000000005640000000000000000000000001523629702194004                                           03410006970000000135929000044SHOPPING BA PIEDADE 00000000000063370859PAG0000000051177000000000000044           
52017060120170602000004579880303278      01010602D000000000449000000000000490000000000000000000000001523629702194085                                           03410006970000000135929000044SHOPPING BA PIEDADE 00000000000063370859PAG0000000004441000000000000044           
52017060120170602000004993540092610      01010602D000000001290000000000001410000000000000000000000001523629702194177                                           03410006970000000135929000044SHOPPING BA PIEDADE 00000000000063370859PAG0000000012759000000000000044           
52017041520170602000005251508155426      01010602D000000002071000000000002260000000000000000000000001523629702146576                                           03410006970000000135929000047SHOPPING BA CONQUIST00000000000063370859PAG0000000020484000000000000047           
52017060120170602000248099192248447      01010602D000000001753200000000001910000000000000000000000001523629702193827                                           03410006970000000135929000044SHOPPING BA PIEDADE 00000000000063370859PAG0000000017341000000000000044           
52017060120170602000248231634353188      01010602D000000000590000000000000640000000000000000000000001523629702193790                                           03410006970000000135929000044SHOPPING BA PIEDADE 00000000000063370859PAG0000000005836000000000000044           
52017060120170602000248314602213926      01010602D000000001159000000000001260000000000000000000000001523629702193772                                           03410006970000000135929000044SHOPPING BA PIEDADE 00000000000063370859PAG0000000011464000000000000044           
52017060120170602000003005946143001      01010601D000000001213200000000001380000000000000000000000001527224232193668                                           03410006970000000135929000044SHOPPING BA PIEDADE 00000000000063370859PAG0000000011994000000000000044           
52017060120170602000003014026243113      01010601D000000000100000000000000110000000000000000000000001527224232193670                                           03410006970000000135929000044SHOPPING BA PIEDADE 00000000000063370859PAG0000000000989000000000000044           
52017060120170602000003309412022198      01010601D000000010000000000000011400000000000000000000000001527224232193744                                           03410006970000000135929000044SHOPPING BA PIEDADE 00000000000063370859PAG0000000098860000000000000044           
52017060120170602000003611400350017      01010601D000000017830100000000020330000000000000000000000001527224232193816                                           03410006970000000135929000044SHOPPING BA PIEDADE 00000000000063370859PAG0000000176268000000000000044           
52017060120170602000003624146650179      01010601D000000000490000000000000560000000000000000000000001527224232193819                                           03410006970000000135929000044SHOPPING BA PIEDADE 00000000000063370859PAG0000000004844000000000000044           
52017060120170602000004931808025583      01010601D000000002151000000000002450000000000000000000000001527224232194165                                           03410006970000000135929000044SHOPPING BA PIEDADE 00000000000063370859PAG0000000021265000000000000044           
52017060120170602000004952826413657      01010601D000000000299000000000000340000000000000000000000001527224232194170                                           03410006970000000135929000044SHOPPING BA PIEDADE 00000000000063370859PAG0000000002956000000000000044           
52017060120170602000005016468025786      01010601D000000000999000000000001140000000000000000000000001527224232194186                                           03410006970000000135929000044SHOPPING BA PIEDADE 00000000000063370859PAG0000000009876000000000000044           
52017060120170602000247278238361177      01010601D000000001390000000000001580000000000000000000000001527224232194044                                           03410006970000000135929000044SHOPPING BA PIEDADE 00000000000063370859PAG0000000013742000000000000044           
52017060120170602000248952826140853      01010601D000000000050000000000000060000000000000000000000001527224232193633                                           03410006970000000135929000044SHOPPING BA PIEDADE 00000000000063370859PAG0000000000494000000000000044           
52017060120170602000003097642155766      01010602D000000000399000000000000430000000000000000000000001523642822193696                                           03410006970000000135929000046SHOPPING BA BELA VIS00000000000063582791PAG0000000003947000000000000046           
52017060120170602000004091790317995      01010602D000000001590000000000001730000000000000000000000001523642822193961                                           03410006970000000135929000046SHOPPING BA BELA VIS00000000000063582791PAG0000000015727000000000000046           
52017060120170602000004222514161952      01010602D000000000299000000000000330000000000000000000000001523642822194001                                           03410006970000000135929000046SHOPPING BA BELA VIS00000000000063582791PAG0000000002957000000000000046           
52017060120170602000004813130133481      01010602D000000000499000000000000540000000000000000000000001523642822194134                                           03410006970000000135929000046SHOPPING BA BELA VIS00000000000063582791PAG0000000004936000000000000046           
52017060120170602000005010528114612      01010602D000000000399000000000000430000000000000000000000001523642822194184                                           03410006970000000135929000046SHOPPING BA BELA VIS00000000000063582791PAG0000000003947000000000000046           
52017060120170602000005102728474112      01010602D000000000297000000000000320000000000000000000000001523642822194214                                           03410006970000000135929000046SHOPPING BA BELA VIS00000000000063582791PAG0000000002938000000000000046           
52017060120170602000005382216523503      01010602D000000001248000000000001360000000000000000000000001523642822194279                                           03410006970000000135929000046SHOPPING BA BELA VIS00000000000063582791PAG0000000012344000000000000046           
52017060120170602000246167938641536      01010602D000000006561000000000007150000000000000000000000001523642822194308                                           03410006970000000135929000046SHOPPING BA BELA VIS00000000000063582791PAG0000000064895000000000000046           
52017060120170602000247330692491755      01010602D000000003420700000000003730000000000000000000000001523642822194031                                           03410006970000000135929000046SHOPPING BA BELA VIS00000000000063582791PAG0000000033834000000000000046           
52017060120170602000003593912249794      01010601D000000002097000000000002390000000000000000000000001527235322193806                                           03410006970000000135929000046SHOPPING BA BELA VIS00000000000063582791PAG0000000020731000000000000046           
52017060120170602000004336706024455      01010601D000000000349000000000000400000000000000000000000001527235322194021                                           03410006970000000135929000046SHOPPING BA BELA VIS00000000000063582791PAG0000000003450000000000000046           
52017060120170602000004634822163628      01010601D000000000778000000000000890000000000000000000000001527235322194097                                           03410006970000000135929000046SHOPPING BA BELA VIS00000000000063582791PAG0000000007691000000000000046           
52017060120170602000005038724025816      01010601D000000000329000000000000380000000000000000000000001527235322194196                                           03410006970000000135929000046SHOPPING BA BELA VIS00000000000063582791PAG0000000003252000000000000046           
52017060120170602000005422100425073      01010601D000000000790000000000000900000000000000000000000001527235322194289                                           03410006970000000135929000046SHOPPING BA BELA VIS00000000000063582791PAG0000000007810000000000000046           
52017060120170602000005485966027083      01010601D000000000290000000000000330000000000000000000000001527235322194306                                           03410006970000000135929000046SHOPPING BA BELA VIS00000000000063582791PAG0000000002867000000000000046           
52017060120170602000247592060757198      01010601D000000000699000000000000800000000000000000000000001527235322193967                                           03410006970000000135929000046SHOPPING BA BELA VIS00000000000063582791PAG0000000006910000000000000046           
52017060120170602000247797258754417      01010601D000000000839000000000000960000000000000000000000001527235322193917                                           03410006970000000135929000046SHOPPING BA BELA VIS00000000000063582791PAG0000000008294000000000000046           
52017060120170602000005021828555472      01010602D000000001098000000000001200000000000000000000000001523885962194192                                           03410006970000000135929000047SHOPPING BA CONQUIST00000000000067067492PAG0000000010860000000000000047           
52017060120170602000004904204166701      01010601D000000001290000000000001470000000000000000000000001527440262194152                                           03410006970000000135929000047SHOPPING BA CONQUIST00000000000067067492PAG0000000012753000000000000047           
52017060120170602000005386730773869      01010601D000000002696000000000003070000000000000000000000001527440262194280                                           03410006970000000135929000047SHOPPING BA CONQUIST00000000000067067492PAG0000000026653000000000000047           
52017060120170602000005327682172745      01010601D000000004491000000000005120000000000000000000000001527440262194263                                           03410006970000000135929000047SHOPPING BA CONQUIST00000000000067067492PAG0000000044398000000000000047           
52017021520170602000005329966527158      01010601D000000000898200000000001020000000000000000000000001527440262070632                                           03410006970000000135929000007LOJA SE ARACAJU - 0200000000000067067492PAG0000000008880000000000000007           
900022700000042905700000000048134000000000000000000000000000000000000000                                                                                                                                                                        
