000520170605                2017060520170605ALLPAYMENTS  LOGIN        000001                                                                                                                                                                    
52017050420170605000004045426681297      02010601C000000000674000000000001440000000000000000000000000016495572170417                                           03410006970000000135929000006LOJA BA ESPAT?DEAS -00000000000009005048PAG0000000006596000000000000006           
52017050420170605000002570590038789      04010601C000000002610000000000005580000000000000000000000000016495572170047                                           03410006970000000135929000006LOJA BA ESPAT?DEAS -00000000000009005048PAG0000000025542000000000000006           
52017050420170605000002705838415241      06010601C000000000722800000000001550000000000000000000000000016495572170079                                           03410006970000000135929000006LOJA BA ESPAT?DEAS -00000000000009005048PAG0000000007073000000000000006           
52017050420170605000249039220678324      06010601C000000000299900000000000640000000000000000000000000016495572170080                                           03410006970000000135929000006LOJA BA ESPAT?DEAS -00000000000009005048PAG0000000002935000000000000006           
52017050420170605000002397900050179      10010601C000000000197600000000000450000000000000000000000000016495592170014                                           03410006970000000135929000006LOJA BA ESPAT?DEAS -00000000000009005048PAG0000000001931000000000000006           
52017050420170605000249378640047551      10010601C000000000943800000000002160000000000000000000000000016495592170013                                           03410006970000000135929000006LOJA BA ESPAT?DEAS -00000000000009005048PAG0000000009222000000000000006           
52017050420170605000002913018060062      01010601C000000000599000000000001160000000000000000000000000794328282170126                                           03410006970000000135929000006LOJA BA ESPAT?DEAS -00000000000009005048PAG0000000005874000000000000006           
52017050420170605000002934572238202      01010601C000000005190000000000010070000000000000000000000000794328282170138                                           03410006970000000135929000006LOJA BA ESPAT?DEAS -00000000000009005048PAG0000000050893000000000000006           
52017050420170605000003896790012743      01010601C000000000810000000000001570000000000000000000000000794328282170378                                           03410006970000000135929000006LOJA BA ESPAT?DEAS -00000000000009005048PAG0000000007943000000000000006           
52017050420170605000247209154203425      01010601C000000000229000000000000440000000000000000000000000794328282170569                                           03410006970000000135929000006LOJA BA ESPAT?DEAS -00000000000009005048PAG0000000002246000000000000006           
52017050520170605000004298522002929      02010601C000000000544900000000001160000000000000000000000000352491692171361                                           03410006970000000135929000006LOJA BA ESPAT?DEAS -00000000000009005048PAG0000000005333000000000000006           
52017050520170605000002627660007750      03010601C000000003428500000000007340000000000000000000000000352491692170950                                           03410006970000000135929000006LOJA BA ESPAT?DEAS -00000000000009005048PAG0000000033551000000000000006           
52017050520170605000246597628554226      03010601C000000000329900000000000710000000000000000000000000352491692171613                                           03410006970000000135929000006LOJA BA ESPAT?DEAS -00000000000009005048PAG0000000003228000000000000006           
52017050520170605000246774982759781      05010601C000000000369600000000000790000000000000000000000000352491692171570                                           03410006970000000135929000006LOJA BA ESPAT?DEAS -00000000000009005048PAG0000000003617000000000000006           
52017050520170605000004633440009361      06010601C000000000623300000000001330000000000000000000000000352491692171462                                           03410006970000000135929000006LOJA ESPAT?DEAS     00000000000009005048PAG0000000006100000000000000006           
52017050520170605000247829856018170      08010601C000000000493500000000001130000000000000000000000000352491712171275                                           03410006970000000135929000006LOJA BA ESPAT?DEAS -00000000000009005048PAG0000000004822000000000000006           
52017050520170605000248831106076479      10010601C000000000241700000000000550000000000000000000000000352491712171050                                           03410006970000000135929000006LOJA BA ESPAT?DEAS -00000000000009005048PAG0000000002362000000000000006           
52017050520170605000248841178071715      10010601C000000001098400000000002520000000000000000000000000352491712171045                                           03410006970000000135929000006LOJA BA ESPAT?DEAS -00000000000009005048PAG0000000010732000000000000006           
52017050520170605000003010434730531      01010601C000000000229000000000000440000000000000000000000000983324682171060                                           03410006970000000135929000006LOJA BA ESPAT?DEAS -00000000000009005048PAG0000000002246000000000000006           
52017050520170605000003858562590253      01010601C000000000790000000000001530000000000000000000000000983324682171238                                           03410006970000000135929000006LOJA BA ESPAT?DEAS -00000000000009005048PAG0000000007747000000000000006           
52017050520170605000003885958241363      01010601C000000001149000000000002230000000000000000000000000983324682171248                                           03410006970000000135929000006LOJA BA ESPAT?DEAS -00000000000009005048PAG0000000011267000000000000006           
52017050520170605000005258910664477      01010601C000000000898000000000001740000000000000000000000000983324682171618                                           03410006970000000135929000006LOJA BA ESPAT?DEAS -00000000000009005048PAG0000000008806000000000000006           
52017050520170605000247556208052325      01010601C000000003315500000000006430000000000000000000000000983324682171350                                           03410006970000000135929000006LOJA BA ESPAT?DEAS -00000000000009005048PAG0000000032512000000000000006           
52017050520170605000248115726078470      01010601C000000001500000000000002910000000000000000000000000983324682171190                                           03410006970000000135929000006LOJA ESPAT?DEAS     00000000000009005048PAG0000000014709000000000000006           
52017050520170605000248501994291474      01010601C000000001515000000000002940000000000000000000000000983324682171118                                           03410006970000000135929000006LOJA BA ESPAT?DEAS -00000000000009005048PAG0000000014856000000000000006           
52017050420170605000246995298089200      02010600C000000000390000000000000840000000000000000000000000016495562170623                                           03410006970000000135929000006LOJA BA ESPAT?DEAS -00000000000009005048PAG0000000003816000000000000006           
52017050420170605000248096412465227      02010600C000000000345000000000000740000000000000000000000000016495562170299                                           03410006970000000135929000006LOJA BA ESPAT?DEAS -00000000000009005048PAG0000000003376000000000000006           
52017050420170605000002877632172760      03010600C000000002782400000000005950000000000000000000000000016495562170113                                           03410006970000000135929000006LOJA BA ESPAT?DEAS -00000000000009005048PAG0000000027229000000000000006           
52017050420170605000248576688133469      03010600C000000000349700000000000750000000000000000000000000016495562170197                                           03410006970000000135929000006LOJA BA ESPAT?DEAS -00000000000009005048PAG0000000003422000000000000006           
52017050420170605000004083182305663      04010600C000000000337400000000000720000000000000000000000000016495562170430                                           03410006970000000135929000006LOJA ESPAT?DEAS     00000000000009005048PAG0000000003302000000000000006           
52017050420170605000004445754070163      06010600C000000000449800000000000960000000000000000000000000016495562170560                                           03410006970000000135929000006LOJA ESPAT?DEAS     00000000000009005048PAG0000000004402000000000000006           
52017050420170605000004723574020862      06010600C000000000631900000000001350000000000000000000000000016495562170632                                           03410006970000000135929000006LOJA ESPAT?DEAS     00000000000009005048PAG0000000006184000000000000006           
52017050420170605000002889748601607      10010600C000000001498300000000003360000000000000000000000000016495582170114                                           03410006970000000135929000006LOJA BA ESPAT?DEAS -00000000000009005048PAG0000000014647000000000000006           
52017050420170605000247092670035467      10010600C000000000339800000000000760000000000000000000000000016495582170603                                           03410006970000000135929000006LOJA BA ESPAT?DEAS -00000000000009005048PAG0000000003322000000000000006           
52017050420170605000247096934032574      10010600C000000001934600000000004330000000000000000000000000016495582170598                                           03410006970000000135929000006LOJA BA ESPAT?DEAS -00000000000009005048PAG0000000018913000000000000006           
52017050420170605000004276448056738      01010600C000000000200000000000000380000000000000000000000000794328272170498                                           03410006970000000135929000006LOJA BA ESPAT?DEAS -00000000000009005048PAG0000000001962000000000000006           
52017050420170605000005057854083089      01010600C000000019000100000000035910000000000000000000000000794328272170713                                           03410006970000000135929000006LOJA BA ESPAT?DEAS -00000000000009005048PAG0000000186410000000000000006           
52017050520170605000002774866032029      03010600C000000002012700000000004310000000000000000000000000352491682170987                                           03410006970000000135929000006LOJA BA ESPAT?DEAS -00000000000009005048PAG0000000019696000000000000006           
52017050520170605000247270786030108      03010600C000000001082700000000002320000000000000000000000000352491682171428                                           03410006970000000135929000006LOJA BA ESPAT?DEAS -00000000000009005048PAG0000000010595000000000000006           
52017050520170605000003952648494546      04010600C000000000860000000000001840000000000000000000000000352491682171269                                           03410006970000000135929000006LOJA ESPAT?DEAS     00000000000009005048PAG0000000008416000000000000006           
52017050520170605000004923550071128      06010600C000000000464800000000001000000000000000000000000000352491682171530                                           03410006970000000135929000006LOJA BA ESPAT?DEAS -00000000000009005048PAG0000000004548000000000000006           
52017050520170605000246675278658265      06010600C000000000432700000000000930000000000000000000000000352491682171594                                           03410006970000000135929000006LOJA BA ESPAT?DEAS -00000000000009005048PAG0000000004234000000000000006           
52017050520170605000246817638141998      06010600C000000000524800000000001120000000000000000000000000352491682171554                                           03410006970000000135929000006LOJA ESPAT?DEAS     00000000000009005048PAG0000000005136000000000000006           
52017050520170605000002511176330872      10010600C000000002251600000000005040000000000000000000000000352491702170935                                           03410006970000000135929000006LOJA BA ESPAT?DEAS -00000000000009005048PAG0000000022012000000000000006           
52017050520170605000002514064335972      10010600C000000000436500000000000980000000000000000000000000352491702170936                                           03410006970000000135929000006LOJA BA ESPAT?DEAS -00000000000009005048PAG0000000004267000000000000006           
52017050520170605000002360710023491      01010600C000000000339000000000000640000000000000000000000000983324672170919                                           03410006970000000135929000006LOJA BA ESPAT?DEAS -00000000000009005048PAG0000000003326000000000000006           
52017050520170605000002828854081562      01010600C000000000359000000000000680000000000000000000000000983324672171001                                           03410006970000000135929000006LOJA BA ESPAT?DEAS -00000000000009005048PAG0000000003522000000000000006           
52017021420170605000003149654026103      01010600C000000000269000000000000510000000000000000000000000983324672069509                                           03410006970000000135929000038SHOPPING SE JARDINS 00000000000009005048PAG0000000002639000000000000038           
52017050520170605000247441902246140      01010600C000000038764900000000073270000000000000000000000000983324672171380                                           03410006970000000135929000006LOJA BA ESPAT?DEAS -00000000000009005048PAG0000000380322000000000000006           
52017050520170605000247743528573163      01010600C000000000289000000000000550000000000000000000000000983324672171299                                           03410006970000000135929000006LOJA BA ESPAT?DEAS -00000000000009005048PAG0000000002835000000000000006           
52017050520170605000247898754076410      01010600C000000000699000000000001320000000000000000000000000983324672171252                                           03410006970000000135929000006LOJA BA ESPAT?DEAS -00000000000009005048PAG0000000006858000000000000006           
52017050520170605000248225758554593      01010600C000000000500000000000000950000000000000000000000000983324672171160                                           03410006970000000135929000006LOJA ESPAT?DEAS     00000000000009005048PAG0000000004905000000000000006           
52017050520170605000248234678989813      01010600C000000000849000000000001600000000000000000000000000983324672171159                                           03410006970000000135929000006LOJA BA ESPAT?DEAS -00000000000009005048PAG0000000008330000000000000006           
52017050520170605000248441472384963      01010600C000000001749000000000003310000000000000000000000000983324672171132                                           03410006970000000135929000006LOJA BA ESPAT?DEAS -00000000000009005048PAG0000000017159000000000000006           
52017050520170605000002668162037516      03010603C000000000396700000000000970000000000000000000000000352491722170958                                           03410006970000000135929000006LOJA BA ESPAT?DEAS -00000000000009005048PAG0000000003870000000000000006           
52017050520170605000003849692013766      06010603C000000000490800000000001200000000000000000000000000352491722171236                                           03410006970000000135929000006LOJA BA ESPAT?DEAS -00000000000009005048PAG0000000004788000000000000006           
52017050520170605000002651868034362      10010603C000000001499500000000003820000000000000000000000000352491732170954                                           03410006970000000135929000006LOJA BA ESPAT?DEAS -00000000000009005048PAG0000000014613000000000000006           
52017050520170605000003953774027497      10010603C000000000854000000000002180000000000000000000000000352491732171270                                           03410006970000000135929000006LOJA BA ESPAT?DEAS -00000000000009005048PAG0000000008322000000000000006           
52017050420170605000246798670094111      02010600C000000000424500000000000910000000000000000000000000021495552170671                                           03410006970000000135929000007LOJA SE ARACAJU - 0200000000000009796037PAG0000000004154000000000000007           
52017050420170605000004235598034961      03010600C000000000465900000000001000000000000000000000000000021495552170484                                           03410006970000000135929000007LOJA SE ARACAJU - 0200000000000009796037PAG0000000004559000000000000007           
52017050420170605000247669892442423      06010600C000000001011200000000002160000000000000000000000000021495552170416                                           03410006970000000135929000007LOJA SE ARACAJU - 0200000000000009796037PAG0000000009896000000000000007           
52017050420170605000248314274002245      06010600C000000000391300000000000840000000000000000000000000021495552170253                                           03410006970000000135929000007LOJA SE ARACAJU - 0200000000000009796037PAG0000000003829000000000000007           
52017050420170605000249005148052542      06010600C000000000623000000000001330000000000000000000000000021495552170087                                           03410006970000000135929000007LOJA SE ARACAJU - 0200000000000009796037PAG0000000006097000000000000007           
52017050420170605000002400338037582      10010600C000000003672400000000008230000000000000000000000000021495572170015                                           03410006970000000135929000007LOJA SE ARACAJU - 0200000000000009796037PAG0000000035901000000000000007           
52017050420170605000004313172566576      10010600C000000003299000000000007390000000000000000000000000021495572170513                                           03410006970000000135929000007LOJA SE ARACAJU - 0200000000000009796037PAG0000000032251000000000000007           
52017050420170605000004658570387839      10010600C000000003599500000000008060000000000000000000000000021495572170616                                           03410006970000000135929000007LOJA SE ARACAJU - 0200000000000009796037PAG0000000035189000000000000007           
52017050420170605000004663002383903      10010600C000000000436200000000000980000000000000000000000000021495572170615                                           03410006970000000135929000007LOJA SE ARACAJU - 0200000000000009796037PAG0000000004264000000000000007           
52017050420170605000002890920203272      01010600C000000001499000000000002830000000000000000000000000797304332170117                                           03410006970000000135929000007LOJA SE ARACAJU - 0200000000000009796037PAG0000000014707000000000000007           
52017050420170605000247204504086793      01010600C000000001349000000000002550000000000000000000000000797304332170572                                           03410006970000000135929000007LOJA SE ARACAJU - 0200000000000009796037PAG0000000013235000000000000007           
52017050520170605000002331868078079      02010600C000000000374500000000000800000000000000000000000000357493722170918                                           03410006970000000135929000007LOJA SE ARACAJU - 0200000000000009796037PAG0000000003665000000000000007           
52017050520170605000003883620448450      02010600C000000000394900000000000840000000000000000000000000357493722171249                                           03410006970000000135929000007LOJA SE ARACAJU - 0200000000000009796037PAG0000000003865000000000000007           
52017050520170605000246641790002541      02010600C000000000474500000000001020000000000000000000000000357493722171608                                           03410006970000000135929000007LOJA SE ARACAJU - 0200000000000009796037PAG0000000004643000000000000007           
52017050520170605000248037796120723      02010600C000000000474500000000001020000000000000000000000000357493722171215                                           03410006970000000135929000007LOJA SE ARACAJU - 0200000000000009796037PAG0000000004643000000000000007           
52017050520170605000246789958755077      03010600C000000000729900000000001560000000000000000000000000357493722171567                                           03410006970000000135929000007LOJA SE ARACAJU - 0200000000000009796037PAG0000000007143000000000000007           
52017050520170605000246895422121966      03010600C000000000529900000000001130000000000000000000000000357493722171527                                           03410006970000000135929000007LOJA SE ARACAJU - 0200000000000009796037PAG0000000005186000000000000007           
52017050520170605000247010776977586      03010600C000000000430000000000000920000000000000000000000000357493722171499                                           03410006970000000135929000007LOJA SE ARACAJU - 0200000000000009796037PAG0000000004208000000000000007           
52017050520170605000248934546990064      03010600C000000000666200000000001430000000000000000000000000357493722171019                                           03410006970000000135929000007LOJA SE ARACAJU - 0200000000000009796037PAG0000000006519000000000000007           
52017050520170605000004781684153103      04010600C000000001116000000000002390000000000000000000000000357493722171495                                           03410006970000000135929000007LOJA SE ARACAJU - 0200000000000009796037PAG0000000010921000000000000007           
52017050520170605000247799804031302      04010600C000000000337100000000000720000000000000000000000000357493722171286                                           03410006970000000135929000007LOJA SE ARACAJU - 0200000000000009796037PAG0000000003299000000000000007           
52017050520170605000004101832969196      05010600C000000000369700000000000790000000000000000000000000357493722171312                                           03410006970000000135929000007LOJA SE ARACAJU - 0200000000000009796037PAG0000000003618000000000000007           
52017050520170605000247115080028787      06010600C000000002309900000000004940000000000000000000000000357493722171475                                           03410006970000000135929000007LOJA SE ARACAJU - 0200000000000009796037PAG0000000022605000000000000007           
52017050520170605000246951136572862      07010600C000000000426700000000000960000000000000000000000000357493742171513                                           03410006970000000135929000007LOJA SE ARACAJU - 0200000000000009796037PAG0000000004171000000000000007           
52017070920170605000248331688R86007      07010600C000000000699500000000001570000000000000000000000000357493742227964                                           03410006970000000135929000046SHOPPING BA BELA VIS00000000000009796037PAG0000000006838000000000000046           
52017050520170605000003844350853832      10010600C000000002198500000000004930000000000000000000000000357493742171237                                           03410006970000000135929000007LOJA SE ARACAJU - 0200000000000009796037PAG0000000021492000000000000007           
52017050520170605000003870420201183      10010600C000000000243700000000000550000000000000000000000000357493742171242                                           03410006970000000135929000007LOJA SE ARACAJU - 0200000000000009796037PAG0000000002382000000000000007           
52017050520170605000002386208784636      01010600C000000000738000000000001390000000000000000000000000986306562170921                                           03410006970000000135929000007LOJA SE ARACAJU - 0200000000000009796037PAG0000000007241000000000000007           
52017050520170605000002991248021843      01010600C000000000990000000000001870000000000000000000000000986306562171055                                           03410006970000000135929000007LOJA SE ARACAJU - 0200000000000009796037PAG0000000009713000000000000007           
52017050520170605000247458298023479      01010600C000000000500000000000000950000000000000000000000000986306562171377                                           03410006970000000135929000007LOJA DE ARACAJU     00000000000009796037PAG0000000004905000000000000007           
52017050520170605000247803700026993      01010600C000000000699000000000001320000000000000000000000000986306562171285                                           03410006970000000135929000007LOJA SE ARACAJU - 0200000000000009796037PAG0000000006858000000000000007           
52017050520170605000247940324797661      01010600C000000001990000000000003760000000000000000000000000986306562171240                                           03410006970000000135929000007LOJA SE ARACAJU - 0200000000000009796037PAG0000000019524000000000000007           
52017050520170605000249462620242386      01010600C000000000749000000000001420000000000000000000000000986306562170922                                           03410006970000000135929000007LOJA SE ARACAJU - 0200000000000009796037PAG0000000007348000000000000007           
52017050420170605000004150838057662      02010601C000000000424500000000000910000000000000000000000000021495562170453                                           03410006970000000135929000007LOJA SE ARACAJU - 0200000000000009796037PAG0000000004154000000000000007           
52017050420170605000247447516006199      02010601C000000001849500000000003960000000000000000000000000021495562170486                                           03410006970000000135929000007LOJA SE ARACAJU - 0200000000000009796037PAG0000000018099000000000000007           
52017050420170605000247556036050163      02010601C000000000424500000000000910000000000000000000000000021495562170442                                           03410006970000000135929000007LOJA SE ARACAJU - 0200000000000009796037PAG0000000004154000000000000007           
52017050420170605000248012086029801      02010601C000000000374500000000000800000000000000000000000000021495562170329                                           03410006970000000135929000007LOJA SE ARACAJU - 0200000000000009796037PAG0000000003665000000000000007           
52017050420170605000248497482956373      02010601C000000000445000000000000950000000000000000000000000021495562170211                                           03410006970000000135929000007LOJA SE ARACAJU - 0200000000000009796037PAG0000000004355000000000000007           
52017050420170605000002476846091005      10010601C000000000598800000000001370000000000000000000000000021495582170031                                           03410006970000000135929000007LOJA SE ARACAJU - 0200000000000009796037PAG0000000005851000000000000007           
52017050420170605000002660710088284      10010601C000000000099200000000000230000000000000000000000000021495582170068                                           03410006970000000135929000007LOJA SE ARACAJU - 0200000000000009796037PAG0000000000969000000000000007           
52017050420170605000002664414084707      10010601C000000000399500000000000920000000000000000000000000021495582170069                                           03410006970000000135929000007LOJA SE ARACAJU - 0200000000000009796037PAG0000000003903000000000000007           
52017050420170605000004217624064322      10010601C000000000997500000000002280000000000000000000000000021495582170477                                           03410006970000000135929000007LOJA SE ARACAJU - 0200000000000009796037PAG0000000009747000000000000007           
52017050420170605000004273872055074      10010601C000000000241000000000000550000000000000000000000000021495582170501                                           03410006970000000135929000007LOJA SE ARACAJU - 0200000000000009796037PAG0000000002355000000000000007           
52017050420170605000004682326080802      10010601C000000008041600000000018420000000000000000000000000021495582170624                                           03410006970000000135929000007LOJA SE ARACAJU - 0200000000000009796037PAG0000000078574000000000000007           
52017050420170605000247431318034319      10010601C000000001098400000000002520000000000000000000000000021495582170492                                           03410006970000000135929000007LOJA SE ARACAJU - 0200000000000009796037PAG0000000010732000000000000007           
52017050420170605000248629510725518      10010601C000000002118700000000004850000000000000000000000000021495582170187                                           03410006970000000135929000007LOJA SE ARACAJU - 0200000000000009796037PAG0000000020702000000000000007           
52017050420170605000248651306713886      10010601C000000002293600000000005250000000000000000000000000021495582170183                                           03410006970000000135929000007LOJA SE ARACAJU - 0200000000000009796037PAG0000000022411000000000000007           
52017050420170605000002405262053787      01010601C000000004671000000000009060000000000000000000000000797304342170017                                           03410006970000000135929000007LOJA SE ARACAJU - 0200000000000009796037PAG0000000045804000000000000007           
52017050420170605000002426360674654      01010601C000000003636600000000007060000000000000000000000000797304342170023                                           03410006970000000135929000007LOJA SE ARACAJU - 0200000000000009796037PAG0000000035660000000000000007           
52017050420170605000004743620065200      01010601C000000000449000000000000870000000000000000000000000797304342170638                                           03410006970000000135929000007LOJA SE ARACAJU - 0200000000000009796037PAG0000000004403000000000000007           
52017050420170605000247273218045413      01010601C000000000399000000000000770000000000000000000000000797304342170551                                           03410006970000000135929000007LOJA SE ARACAJU - 0200000000000009796037PAG0000000003913000000000000007           
52017050420170605000247964794207343      01010601C000000000849000000000001650000000000000000000000000797304342170344                                           03410006970000000135929000007LOJA SE ARACAJU - 0200000000000009796037PAG0000000008325000000000000007           
52017050420170605000249130770080816      01010601C000000012851100000000024930000000000000000000000000797304342170057                                           03410006970000000135929000007LOJA SE ARACAJU - 0200000000000009796037PAG0000000126018000000000000007           
52017050520170605000002931966686656      02010601C000000001544400000000003300000000000000000000000000357493732171030                                           03410006970000000135929000007LOJA SE ARACAJU - 0200000000000009796037PAG0000000015114000000000000007           
52017050520170605000004474520064183      02010601C000000000595000000000001280000000000000000000000000357493732171414                                           03410006970000000135929000007LOJA SE ARACAJU - 0200000000000009796037PAG0000000005822000000000000007           
52017050520170605000005142986027145      02010601C000000000374500000000000800000000000000000000000000357493732171596                                           03410006970000000135929000007LOJA SE ARACAJU - 0200000000000009796037PAG0000000003665000000000000007           
52017050520170605000248059390006075      02010601C000000000838500000000001800000000000000000000000000357493732171210                                           03410006970000000135929000007LOJA SE ARACAJU - 0200000000000009796037PAG0000000008205000000000000007           
52017050520170605000002533582207235      03010601C000000004029500000000008620000000000000000000000000357493732170942                                           03410006970000000135929000007LOJA SE ARACAJU - 0200000000000009796037PAG0000000039433000000000000007           
52017050520170605000004484754069293      05010601C000000000253100000000000540000000000000000000000000357493732171420                                           03410006970000000135929000007LOJA SE ARACAJU - 0200000000000009796037PAG0000000002477000000000000007           
52017040320170605000005012912744860      05010601C000000000257700000000000550000000000000000000000000357493732126637                                           03410006970000000135929000021SHOPPING BA IGUATEMI00000000000009796037PAG0000000002522000000000000021           
52017050520170605000249260646087139      05010601C000000000197800000000000420000000000000000000000000357493732170946                                           03410006970000000135929000007LOJA SE ARACAJU - 0200000000000009796037PAG0000000001936000000000000007           
52017050520170605000004729818039660      10010601C000000000788400000000001810000000000000000000000000357493752171484                                           03410006970000000135929000007LOJA DE ARACAJU     00000000000009796037PAG0000000007703000000000000007           
52017050520170605000002681326046728      01010601C000000000780000000000001510000000000000000000000000986306572170964                                           03410006970000000135929000007LOJA SE ARACAJU - 0200000000000009796037PAG0000000007649000000000000007           
52017050520170605000003257606866755      01010601C000000000329000000000000640000000000000000000000000986306572171105                                           03410006970000000135929000007LOJA SE ARACAJU - 0200000000000009796037PAG0000000003226000000000000007           
52017072020170605000003283136879883      01010601C000000000061000000000000120000000000000000000000000986306572237309                                           03410006970000000135929000036SHOPPING BA JEQUITIB00000000000009796037PAG0000000000598000000000000036           
52017072220170605000003976676021050      01010601C000000000549000000000001070000000000000000000000000986306572238964                                           03410006970000000135929000021SHOPPING BA IGUATEMI00000000000009796037PAG0000000005383000000000000021           
52017050520170605000004925456133672      01010601C000000000329000000000000640000000000000000000000000986306572171532                                           03410006970000000135929000007LOJA SE ARACAJU - 0200000000000009796037PAG0000000003226000000000000007           
52017050520170605000248701174786793      01010601C000000000459000000000000890000000000000000000000000986306572171079                                           03410006970000000135929000007LOJA SE ARACAJU - 0200000000000009796037PAG0000000004501000000000000007           
52017050420170605000002751748081885      02010603C000000000424500000000001040000000000000000000000000021495592170089                                           03410006970000000135929000007LOJA SE ARACAJU - 0200000000000009796037PAG0000000004141000000000000007           
52017050420170605000003249390061106      02010603C000000000674000000000001650000000000000000000000000021495592170220                                           03410006970000000135929000007LOJA SE ARACAJU - 0200000000000009796037PAG0000000006575000000000000007           
52017050420170605000247162632045824      02010603C000000000329400000000000800000000000000000000000000021495592170585                                           03410006970000000135929000007LOJA SE ARACAJU - 0200000000000009796037PAG0000000003214000000000000007           
52017050420170605000247557014077864      02010603C000000000790000000000001940000000000000000000000000021495592170441                                           03410006970000000135929000007LOJA DE ARACAJU     00000000000009796037PAG0000000007706000000000000007           
52017050420170605000247720164088755      02010603C000000001445000000000003540000000000000000000000000021495592170404                                           03410006970000000135929000007LOJA SE ARACAJU - 0200000000000009796037PAG0000000014096000000000000007           
52017050420170605000248029570009974      02010603C000000000449000000000001100000000000000000000000000021495592170319                                           03410006970000000135929000007LOJA SE ARACAJU - 0200000000000009796037PAG0000000004380000000000000007           
52017050420170605000004573160052336      04010603C000000000417200000000001020000000000000000000000000021495592170594                                           03410006970000000135929000007LOJA SE ARACAJU - 0200000000000009796037PAG0000000004070000000000000007           
52017050420170605000248978548016073      06010603C000000000465000000000001140000000000000000000000000021495592170091                                           03410006970000000135929000007LOJA SE ARACAJU - 0200000000000009796037PAG0000000004536000000000000007           
52017050420170605000002711170073935      10010603C000000000698800000000001780000000000000000000000000021495602170081                                           03410006970000000135929000007LOJA SE ARACAJU - 0200000000000009796037PAG0000000006810000000000000007           
52017050420170605000004072902004074      10010603C000000001498800000000003820000000000000000000000000021495602170427                                           03410006970000000135929000007LOJA SE ARACAJU - 0200000000000009796037PAG0000000014606000000000000007           
52017050420170605000004791324025654      10010603C000000003377600000000008610000000000000000000000000021495602170651                                           03410006970000000135929000007LOJA SE ARACAJU - 0200000000000009796037PAG0000000032915000000000000007           
52017050420170605000246875468089922      10010603C000000000231500000000000590000000000000000000000000021495602170656                                           03410006970000000135929000007LOJA SE ARACAJU - 0200000000000009796037PAG0000000002256000000000000007           
52017050420170605000002668218065662      01010603C000000000449000000000000990000000000000000000000000797304352170065                                           03410006970000000135929000007LOJA SE ARACAJU - 0200000000000009796037PAG0000000004391000000000000007           
52017050520170605000247253470021455      02010603C000000000300000000000000740000000000000000000000000357493762171435                                           03410006970000000135929000007LOJA DE ARACAJU     00000000000009796037PAG0000000002926000000000000007           
52017050520170605000004141538055796      05010603C000000000217800000000000530000000000000000000000000357493762171324                                           03410006970000000135929000007LOJA SE ARACAJU - 0200000000000009796037PAG0000000002125000000000000007           
52017050520170605000248516456093138      05010603C000000000417800000000001020000000000000000000000000357493762171116                                           03410006970000000135929000007LOJA SE ARACAJU - 0200000000000009796037PAG0000000004076000000000000007           
52017050520170605000249548328071881      05010603C000000000475200000000001160000000000000000000000000357493762170917                                           03410006970000000135929000007LOJA SE ARACAJU - 0200000000000009796037PAG0000000004636000000000000007           
52017050520170605000004179532062046      01010603C000000000449000000000000990000000000000000000000000986306582171335                                           03410006970000000135929000007LOJA SE ARACAJU - 0200000000000009796037PAG0000000004391000000000000007           
52017050420170605000004393688022207      10010603C000000000966400000000002470000000000000000000000000137493102170546                                           03410006970000000135929000011LOJA BA LAURO DE FRE00000000000026404095PAG0000000009417000000000000011           
52017050420170605000248958262019637      01010603C000000020769300000000045690000000000000000000000000858296092170093                                           03410006970000000135929000011LOJA BA LAURO DE FRE00000000000026404095PAG0000000203124000000000000011           
52017050520170605000249574244068188      01010603C000000000549000000000001210000000000000000000000000049328472170914                                           03410006970000000135929000011LOJA BA LAURO DE FRE00000000000026404095PAG0000000005369000000000000011           
52017050520170605000248858306040501      06010603C000000000704500000000001730000000000000000000000000479493942171042                                           03410006970000000135929000011LOJA BA LAURO DE FRE00000000000026404095PAG0000000006872000000000000011           
52017050520170605000248868320091648      06010603C000000002571700000000006300000000000000000000000000479493942171032                                           03410006970000000135929000011LOJA BA LAURO DE FRE00000000000026404095PAG0000000025087000000000000011           
52017050420170605000002369654019374      02010600C000000001198900000000002560000000000000000000000000137493072170008                                           03410006970000000135929000011LOJA BA LAURO DE FRE00000000000026404095PAG0000000011733000000000000011           
52017050420170605000248674342038606      02010600C000000003969500000000008500000000000000000000000000137493072170176                                           03410006970000000135929000011LOJA BA LAURO DE FRE00000000000026404095PAG0000000038845000000000000011           
52017050420170605000002921054065484      01010600C000000000449000000000000850000000000000000000000000858296072170132                                           03410006970000000135929000011LOJA BA LAURO DE FRE00000000000026404095PAG0000000004405000000000000011           
52017050420170605000004158472R38313      01010600C000000000179000000000000340000000000000000000000000858296072170455                                           03410006970000000135929000011LOJA BA LAURO DE FRE00000000000026404095PAG0000000001756000000000000011           
52017050520170605000002840954088771      01010600C000000000369000000000000700000000000000000000000000049328452171004                                           03410006970000000135929000011LOJA BA LAURO DE FRE00000000000026404095PAG0000000003620000000000000011           
52017050520170605000249156550089360      01010600C000000000849000000000001600000000000000000000000000049328452170963                                           03410006970000000135929000011LOJA BA LAURO DE FRE00000000000026404095PAG0000000008330000000000000011           
52017050520170605000003358058201103      02010600C000000000424500000000000910000000000000000000000000479493912171131                                           03410006970000000135929000011LOJA BA LAURO DE FRE00000000000026404095PAG0000000004154000000000000011           
52017071120170605000003877010076068      02010600C000000000350000000000000750000000000000000000000000479493912229712                                           03410006970000000135929000018SHOPPING BA SALVADOR00000000000026404095PAG0000000003425000000000000018           
52017050520170605000002523510020719      03010600C000000000616300000000001320000000000000000000000000479493912170940                                           03410006970000000135929000011LOJA BA LAURO DE FRE00000000000026404095PAG0000000006031000000000000011           
52017050520170605000002449386572177      05010600C000000000221200000000000470000000000000000000000000479493912170924                                           03410006970000000135929000011LOJA BA LAURO DE FRE00000000000026404095PAG0000000002165000000000000011           
52017050520170605000004212538070967      05010600C000000000257900000000000550000000000000000000000000479493912171347                                           03410006970000000135929000011LOJA BA LAURO DE FRE00000000000026404095PAG0000000002524000000000000011           
52017050520170605000003285522168986      06010600C000000000539600000000001160000000000000000000000000479493912171112                                           03410006970000000135929000011LOJA BA LAURO DE FRE00000000000026404095PAG0000000005280000000000000011           
52017050520170605000247087202667063      06010600C000000000790100000000001690000000000000000000000000479493912171485                                           03410006970000000135929000011LOJA BA LAURO DE FRE00000000000026404095PAG0000000007732000000000000011           
52017050420170605000002790336689139      02010601C000000000474500000000001020000000000000000000000000137493082170096                                           03410006970000000135929000011LOJA BA LAURO DE FRE00000000000026404095PAG0000000004643000000000000011           
52017050420170605000002866626645289      02010601C000000000449500000000000960000000000000000000000000137493082170109                                           03410006970000000135929000011LOJA BA LAURO DE FRE00000000000026404095PAG0000000004399000000000000011           
52017050420170605000004162642643871      02010601C000000000449000000000000960000000000000000000000000137493082170456                                           03410006970000000135929000011LOJA BA LAURO DE FRE00000000000026404095PAG0000000004394000000000000011           
52017050420170605000004482796030015      02010601C000000000424500000000000910000000000000000000000000137493082170570                                           03410006970000000135929000011LOJA BA LAURO DE FRE00000000000026404095PAG0000000004154000000000000011           
52017050420170605000247264408036661      02010601C000000001094900000000002340000000000000000000000000137493082170554                                           03410006970000000135929000011LOJA BA LAURO DE FRE00000000000026404095PAG0000000010715000000000000011           
52017050420170605000247349290084218      02010601C000000000349500000000000750000000000000000000000000137493082170528                                           03410006970000000135929000011LOJA BA LAURO DE FRE00000000000026404095PAG0000000003420000000000000011           
52017050420170605000248023952695102      02010601C000000002495000000000005340000000000000000000000000137493082170320                                           03410006970000000135929000011LOJA BA LAURO DE FRE00000000000026404095PAG0000000024416000000000000011           
52017050420170605000003596486622949      03010601C000000001171200000000002510000000000000000000000000137493082170296                                           03410006970000000135929000011LOJA BA LAURO DE FRE00000000000026404095PAG0000000011461000000000000011           
52017050420170605000002475716630649      05010601C000000000409400000000000880000000000000000000000000137493082170030                                           03410006970000000135929000011LOJA BA LAURO DE FRE00000000000026404095PAG0000000004006000000000000011           
52017050420170605000004370730071840      05010601C000000000598000000000001280000000000000000000000000137493082170535                                           03410006970000000135929000011LOJA BA LAURO DE FRE00000000000026404095PAG0000000005852000000000000011           
52017050420170605000249380748062673      10010601C000000000583300000000001340000000000000000000000000137493092170011                                           03410006970000000135929000011LOJA BA LAURO DE FRE00000000000026404095PAG0000000005699000000000000011           
52017050420170605000003648388621263      01010601C000000013849200000000026870000000000000000000000000858296082170312                                           03410006970000000135929000011LOJA BA LAURO DE FRE00000000000026404095PAG0000000135805000000000000011           
52017050420170605000246856482485245      01010601C000000000790000000000001530000000000000000000000000858296082170661                                           03410006970000000135929000011LOJA BA LAURO DE FRE00000000000026404095PAG0000000007747000000000000011           
52017050420170605000247154520488056      01010601C000000000341000000000000660000000000000000000000000858296082170587                                           03410006970000000135929000011LOJA BA LAURO DE FRE00000000000026404095PAG0000000003344000000000000011           
52017050520170605000002667608035118      01010601C000000000899000000000001740000000000000000000000000049328462170959                                           03410006970000000135929000011LOJA BA LAURO DE FRE00000000000026404095PAG0000000008816000000000000011           
52017050520170605000002743316635368      01010601C000000001500000000000002910000000000000000000000000049328462170981                                           03410006970000000135929000011LOJA BA LAURO DE FRE00000000000026404095PAG0000000014709000000000000011           
52017050520170605000003022294737351      01010601C000000000459000000000000890000000000000000000000000049328462171065                                           03410006970000000135929000011LOJA BA LAURO DE FRE00000000000026404095PAG0000000004501000000000000011           
52017050520170605000004197890242932      01010601C000000005176300000000010040000000000000000000000000049328462171341                                           03410006970000000135929000011LOJA BA LAURO DE FRE00000000000026404095PAG0000000050759000000000000011           
52017050520170605000004554890005823      01010601C000000000790000000000001530000000000000000000000000049328462171438                                           03410006970000000135929000011LOJA BA LAURO DE FRE00000000000026404095PAG0000000007747000000000000011           
52017050520170605000247125184070870      01010601C000000000698000000000001350000000000000000000000000049328462171473                                           03410006970000000135929000011LOJA BA LAURO DE FRE00000000000026404095PAG0000000006845000000000000011           
52017050520170605000002814818074250      02010601C000000000579500000000001240000000000000000000000000479493922170999                                           03410006970000000135929000011LOJA BA LAURO DE FRE00000000000026404095PAG0000000005671000000000000011           
52017050520170605000002857996031576      02010601C000000000945000000000002020000000000000000000000000479493922171015                                           03410006970000000135929000011LOJA BA LAURO DE FRE00000000000026404095PAG0000000009248000000000000011           
52017050520170605000004439586472048      02010601C000000000360000000000000770000000000000000000000000479493922171402                                           03410006970000000135929000011LOJA BA LAURO DE FRE00000000000026404095PAG0000000003523000000000000011           
52017050520170605000247964930051725      02010601C000000000445000000000000950000000000000000000000000479493922171234                                           03410006970000000135929000011LOJA BA LAURO DE FRE00000000000026404095PAG0000000004355000000000000011           
52017050520170605000004082820073277      03010601C000000000529900000000001130000000000000000000000000479493922171306                                           03410006970000000135929000011LOJA BA LAURO DE FRE00000000000026404095PAG0000000005186000000000000011           
52017050520170605000004323598192985      03010601C000000000851000000000001820000000000000000000000000479493922171368                                           03410006970000000135929000011LOJA BA LAURO DE FRE00000000000026404095PAG0000000008328000000000000011           
52017050520170605000003996566064896      04010601C000000001247500000000002670000000000000000000000000479493922171284                                           03410006970000000135929000011LOJA BA LAURO DE FRE00000000000026404095PAG0000000012208000000000000011           
52017050520170605000248050330010537      05010601C000000000238000000000000510000000000000000000000000479493922171214                                           03410006970000000135929000011LOJA BA LAURO DE FRE00000000000026404095PAG0000000002329000000000000011           
52017050520170605000248864932685007      05010601C000000000359600000000000770000000000000000000000000479493922171038                                           03410006970000000135929000011LOJA BA LAURO DE FRE00000000000026404095PAG0000000003519000000000000011           
52017050520170605000249351868040858      05010601C000000000357800000000000770000000000000000000000000479493922170930                                           03410006970000000135929000011LOJA BA LAURO DE FRE00000000000026404095PAG0000000003501000000000000011           
52017050520170605000248547200220260      10010601C000000003137500000000007190000000000000000000000000479493932171108                                           03410006970000000135929000011LOJA BA LAURO DE FRE00000000000026404095PAG0000000030656000000000000011           
52017050420170605000003548396012669      02010600C000000001495000000000003200000000000000000000000000150493022170284                                           03410006970000000135929000018SHOPPING BA SALVADOR00000000000028781619PAG0000000014630000000000000018           
52017050420170605000005373384341673      02010600C000000000349500000000000750000000000000000000000000150493022170782                                           03410006970000000135929000018SHOPPING BA SALVADOR00000000000028781619PAG0000000003420000000000000018           
52017050420170605000245908272066546      02010600C000000000449500000000000960000000000000000000000000150493022170888                                           03410006970000000135929000018SHOPPING BA SALVADOR00000000000028781619PAG0000000004399000000000000018           
52017050420170605000246433022681454      02010600C000000000445000000000000950000000000000000000000000150493022170755                                           03410006970000000135929000018SHOPPING BA SALVADOR00000000000028781619PAG0000000004355000000000000018           
52017050420170605000247169038083422      02010600C000000000424500000000000910000000000000000000000000150493022170579                                           03410006970000000135929000018SHOPPING BA SALVADOR00000000000028781619PAG0000000004154000000000000018           
52017050420170605000002585890067184      03010600C000000001401500000000003000000000000000000000000000150493022170049                                           03410006970000000135929000018SHOPPING BA SALVADOR00000000000028781619PAG0000000013715000000000000018           
52017050420170605000004534938543956      03010600C000000000299700000000000640000000000000000000000000150493022170584                                           03410006970000000135929000018SHOPPING BA SALVADOR00000000000028781619PAG0000000002933000000000000018           
52017050420170605000245783088199673      03010600C000000000529900000000001130000000000000000000000000150493022170907                                           03410006970000000135929000018SHOPPING BA SALVADOR00000000000028781619PAG0000000005186000000000000018           
52017050420170605000246033852006715      03010600C000000000529900000000001130000000000000000000000000150493022170854                                           03410006970000000135929000018SHOPPING BA SALVADOR00000000000028781619PAG0000000005186000000000000018           
52017050420170605000248210332083892      03010600C000000000463300000000000990000000000000000000000000150493022170277                                           03410006970000000135929000018SHOPPING BA SALVADOR00000000000028781619PAG0000000004534000000000000018           
52017050420170605000245984458053005      04010600C000000000470000000000001000000000000000000000000000150493022170872                                           03410006970000000135929000018SHOPPING BA SALVADOR00000000000028781619PAG0000000004600000000000000018           
52017050420170605000247067190077030      04010600C000000000404300000000000860000000000000000000000000150493022170614                                           03410006970000000135929000018SHOPPING BA SALVADOR00000000000028781619PAG0000000003957000000000000018           
52017050420170605000248678402533673      04010600C000000005935100000000012700000000000000000000000000150493022170174                                           03410006970000000135929000018SHOPPING BA SALVADOR00000000000028781619PAG0000000058081000000000000018           
52017070320170605000004825616633938      05010600C000000000575900000000001230000000000000000000000000150493022223600                                           03410006970000000135929000023SHOPPING BA SSA NORT00000000000028781619PAG0000000005636000000000000023           
52017050420170605000005004028073777      05010600C000000000337800000000000720000000000000000000000000150493022170699                                           03410006970000000135929000018SHOPPING BA SALVADOR00000000000028781619PAG0000000003306000000000000018           
52017050420170605000005679312022222      05010600C000000000493600000000001060000000000000000000000000150493022170870                                           03410006970000000135929000018SHOPPING BA SALVADOR00000000000028781619PAG0000000004830000000000000018           
52017050420170605000004681012097666      06010600C000000000295600000000000630000000000000000000000000150493022170627                                           03410006970000000135929000018SHOPPING BA SALVADOR00000000000028781619PAG0000000002893000000000000018           
52017050420170605000004261400975985      10010600C000000000220800000000000500000000000000000000000000150493042170491                                           03410006970000000135929000018SHOPPING BA SALVADOR00000000000028781619PAG0000000002158000000000000018           
52017050420170605000004496422445559      10010600C000000000998300000000002240000000000000000000000000150493042170574                                           03410006970000000135929000018SHOPPING BA SALVADOR00000000000028781619PAG0000000009759000000000000018           
52017050420170605000004614720053982      10010600C000000001348000000000003020000000000000000000000000150493042170613                                           03410006970000000135929000018SHOPPING BA SALVADOR00000000000028781619PAG0000000013178000000000000018           
52017050420170605000245887366302061      10010600C000000000279200000000000630000000000000000000000000150493042170893                                           03410006970000000135929000018SHOPPING BA SALVADOR00000000000028781619PAG0000000002729000000000000018           
52017050420170605000245896654281461      10010600C000000001897800000000004250000000000000000000000000150493042170890                                           03410006970000000135929000018SHOPPING BA SALVADOR00000000000028781619PAG0000000018553000000000000018           
52017050420170605000247371490090574      10010600C000000001896100000000004250000000000000000000000000150493042170519                                           03410006970000000135929000018SHOPPING BA SALVADOR00000000000028781619PAG0000000018536000000000000018           
52017050420170605000247656178072682      10010600C000000001153500000000002580000000000000000000000000150493042170419                                           03410006970000000135929000018SHOPPING BA SALVADOR00000000000028781619PAG0000000011277000000000000018           
52017050420170605000247929168041103      10010600C000000001592300000000003570000000000000000000000000150493042170349                                           03410006970000000135929000018SHOPPING BA SALVADOR00000000000028781619PAG0000000015566000000000000018           
52017050420170605000002454900072680      02010600C000000000449000000000000960000000000000000000000000162490812170027                                           03410006970000000135929000021SHOPPING BA IGUATEMI00000000000031120199PAG0000000004394000000000000021           
52017050420170605000002908736057455      02010600C000000000699500000000001500000000000000000000000000162490812170124                                           03410006970000000135929000021SHOPPING BA IGUATEMI00000000000031120199PAG0000000006845000000000000021           
52017050420170605000003203062832701      02010600C000000000325000000000000700000000000000000000000000162490812170208                                           03410006970000000135929000021SHOPPING BA IGUATEMI00000000000031120199PAG0000000003180000000000000021           
52017050420170605000003663044083982      02010600C000000002845300000000006090000000000000000000000000162490812170316                                           03410006970000000135929000021SHOPPING IGUATEMI   00000000000031120199PAG0000000027844000000000000021           
52017050420170605000003670868075779      02010600C000000000249500000000000540000000000000000000000000162490812170317                                           03410006970000000135929000021SHOPPING IGUATEMI   00000000000031120199PAG0000000002441000000000000021           
52017050420170605000005084724335173      02010600C000000000445000000000000950000000000000000000000000162490812170716                                           03410006970000000135929000021SHOPPING BA IGUATEMI00000000000031120199PAG0000000004355000000000000021           
52017050420170605000005454842314528      02010600C000000000400000000000000860000000000000000000000000162490812170800                                           03410006970000000135929000021SHOPPING BA IGUATEMI00000000000031120199PAG0000000003914000000000000021           
52017050420170605000248464570856086      02010600C000000000449500000000000960000000000000000000000000162490812170219                                           03410006970000000135929000021SHOPPING BA IGUATEMI00000000000031120199PAG0000000004399000000000000021           
52017050420170605000003913578081560      03010600C000000000299800000000000640000000000000000000000000162490812170383                                           03410006970000000135929000021SHOPPING BA IGUATEMI00000000000031120199PAG0000000002934000000000000021           
52017050420170605000004080120024265      03010600C000000000978300000000002090000000000000000000000000162490812170428                                           03410006970000000135929000021SHOPPING BA IGUATEMI00000000000031120199PAG0000000009574000000000000021           
52017050420170605000005772216886389      03010600C000000002041400000000004370000000000000000000000000162490812170892                                           03410006970000000135929000021SHOPPING IGUATEMI   00000000000031120199PAG0000000019977000000000000021           
52017050420170605000246244042325051      03010600C000000000396800000000000850000000000000000000000000162490812170799                                           03410006970000000135929000021SHOPPING BA IGUATEMI00000000000031120199PAG0000000003883000000000000021           
52017050420170605000246254160019314      03010600C000000000299400000000000640000000000000000000000000162490812170795                                           03410006970000000135929000021SHOPPING BA IGUATEMI00000000000031120199PAG0000000002930000000000000021           
52017050420170605000248145378019565      03010600C000000000430000000000000920000000000000000000000000162490812170289                                           03410006970000000135929000021SHOPPING BA IGUATEMI00000000000031120199PAG0000000004208000000000000021           
52017050420170605000248250208093471      03010600C000000000296700000000000630000000000000000000000000162490812170267                                           03410006970000000135929000021SHOPPING IGUATEMI   00000000000031120199PAG0000000002904000000000000021           
52017050420170605000248381472101418      03010600C000000000396800000000000850000000000000000000000000162490812170238                                           03410006970000000135929000021SHOPPING BA IGUATEMI00000000000031120199PAG0000000003883000000000000021           
52017050420170605000249062472065378      03010600C000000000430000000000000920000000000000000000000000162490812170074                                           03410006970000000135929000021SHOPPING BA IGUATEMI00000000000031120199PAG0000000004208000000000000021           
52017050420170605000249108704094603      03010600C000000000316300000000000680000000000000000000000000162490812170060                                           03410006970000000135929000021SHOPPING BA IGUATEMI00000000000031120199PAG0000000003095000000000000021           
52017050420170605000003271576R24368      04010600C000000000397500000000000850000000000000000000000000162490812170223                                           03410006970000000135929000021SHOPPING BA IGUATEMI00000000000031120199PAG0000000003890000000000000021           
52017050420170605000005347810059673      04010600C000000001185100000000002540000000000000000000000000162490812170774                                           03410006970000000135929000021SHOPPING IGUATEMI   00000000000031120199PAG0000000011597000000000000021           
52017050420170605000003380354R29746      05010600C000000000257900000000000550000000000000000000000000162490812170249                                           03410006970000000135929000021SHOPPING BA IGUATEMI00000000000031120199PAG0000000002524000000000000021           
52017050420170605000003488060092053      05010600C000000000697800000000001490000000000000000000000000162490812170270                                           03410006970000000135929000021SHOPPING IGUATEMI   00000000000031120199PAG0000000006829000000000000021           
52017050420170605000245939378051114      05010600C000000001898100000000004060000000000000000000000000162490812170883                                           03410006970000000135929000021SHOPPING BA IGUATEMI00000000000031120199PAG0000000018575000000000000021           
52017050420170605000246243412092136      05010600C000000000189500000000000410000000000000000000000000162490812170798                                           03410006970000000135929000021SHOPPING IGUATEMI   00000000000031120199PAG0000000001854000000000000021           
52017050420170605000246892626242996      05010600C000000000997800000000002140000000000000000000000000162490812170655                                           03410006970000000135929000021SHOPPING IGUATEMI   00000000000031120199PAG0000000009764000000000000021           
52017050420170605000003293770070877      06010600C000000000365000000000000780000000000000000000000000162490812170229                                           03410006970000000135929000021SHOPPING BA IGUATEMI00000000000031120199PAG0000000003572000000000000021           
52017050420170605000004001030074561      06010600C000000000298100000000000640000000000000000000000000162490812170409                                           03410006970000000135929000021SHOPPING BA IGUATEMI00000000000031120199PAG0000000002917000000000000021           
52017050420170605000247836042543603      06010600C000000000821600000000001760000000000000000000000000162490812170372                                           03410006970000000135929000021SHOPPING BA IGUATEMI00000000000031120199PAG0000000008040000000000000021           
52017050420170605000248574412063685      06010600C000000000914600000000001960000000000000000000000000162490812170199                                           03410006970000000135929000021SHOPPING IGUATEMI   00000000000031120199PAG0000000008950000000000000021           
52017050420170605000246316584078948      08010600C000000001048500000000002350000000000000000000000000162490832170785                                           03410006970000000135929000021SHOPPING IGUATEMI   00000000000031120199PAG0000000010250000000000000021           
52017050420170605000003776798038691      10010600C000000000998300000000002240000000000000000000000000162490832170350                                           03410006970000000135929000021SHOPPING IGUATEMI   00000000000031120199PAG0000000009759000000000000021           
52017050420170605000003798652051928      10010600C000000000199100000000000450000000000000000000000000162490832170354                                           03410006970000000135929000021SHOPPING IGUATEMI   00000000000031120199PAG0000000001946000000000000021           
52017050420170605000004163280344776      10010600C000000000998300000000002240000000000000000000000000162490832170461                                           03410006970000000135929000021SHOPPING IGUATEMI   00000000000031120199PAG0000000009759000000000000021           
52017050420170605000004625288050513      10010600C000000000698500000000001570000000000000000000000000162490832170609                                           03410006970000000135929000021SHOPPING IGUATEMI   00000000000031120199PAG0000000006828000000000000021           
52017050420170605000005410988073617      10010600C000000000698500000000001570000000000000000000000000162490832170791                                           03410006970000000135929000021SHOPPING IGUATEMI   00000000000031120199PAG0000000006828000000000000021           
52017050420170605000003736538061015      02010600C000000000569000000000001220000000000000000000000000173493892170339                                           03410006970000000135929000023SHOPPING BA SSA NORT00000000000033879419PAG0000000005568000000000000023           
52017050420170605000005558668077446      02010600C000000000449000000000000960000000000000000000000000173493892170826                                           03410006970000000135929000023SHOPPING BA SSA NORT00000000000033879419PAG0000000004394000000000000023           
52017050420170605000005744058052322      02010600C000000000424500000000000910000000000000000000000000173493892170885                                           03410006970000000135929000023SHOPPING BA SSA NORT00000000000033879419PAG0000000004154000000000000023           
52017050420170605000005883556572171      02010600C000000000609400000000001300000000000000000000000000173493892170905                                           03410006970000000135929000023SHOPPING BA SSA NORT00000000000033879419PAG0000000005964000000000000023           
52017050420170605000246103118375161      02010600C000000000445000000000000950000000000000000000000000173493892170833                                           03410006970000000135929000023SHOPPING BA SSA NORT00000000000033879419PAG0000000004355000000000000023           
52017050420170605000247775282032436      02010600C000000003031300000000006480000000000000000000000000173493892170389                                           03410006970000000135929000023SHOPPING BA SSA NORT00000000000033879419PAG0000000029665000000000000023           
52017050420170605000248699870896039      02010600C000000000349500000000000750000000000000000000000000173493892170165                                           03410006970000000135929000023SHOPPING BA SSA NORT00000000000033879419PAG0000000003420000000000000023           
52017050420170605000002941024527227      03010600C000000000649400000000001390000000000000000000000000173493892170140                                           03410006970000000135929000023SHOPPING BA SSA NORT00000000000033879419PAG0000000006355000000000000023           
52017050420170605000246826408940693      03010600C000000000598400000000001280000000000000000000000000173493892170666                                           03410006970000000135929000023SHOPPING BA SSA NORT00000000000033879419PAG0000000005856000000000000023           
52017050420170605000004426000478025      04010600C000000000274300000000000590000000000000000000000000173493892170552                                           03410006970000000135929000023SHOPPING BA SSA NORT00000000000033879419PAG0000000002684000000000000023           
52017050420170605000005351504036001      04010600C000000000639300000000001370000000000000000000000000173493892170772                                           03410006970000000135929000023SHOPPING BA SSA NORT00000000000033879419PAG0000000006256000000000000023           
52017050420170605000003627996053287      05010600C000000000359400000000000770000000000000000000000000173493892170305                                           03410006970000000135929000023SHOPPING BA SSA NORT00000000000033879419PAG0000000003517000000000000023           
52017050420170605000004272104R85818      05010600C000000000968200000000002070000000000000000000000000173493892170496                                           03410006970000000135929000023SHOPPING BA SSA NORT00000000000033879419PAG0000000009475000000000000023           
52017050420170605000004276996R86206      05010600C000000000189500000000000410000000000000000000000000173493892170502                                           03410006970000000135929000023SHOPPING BA SSA NORT00000000000033879419PAG0000000001854000000000000023           
52017070320170605000247174186089710      05010600C000000000369600000000000790000000000000000000000000173493892223528                                           03410006970000000135929000006LOJA ESPAT?DEAS     00000000000033879419PAG0000000003617000000000000006           
52017050420170605000003165782174475      06010600C000000002393800000000005120000000000000000000000000173493892170201                                           03410006970000000135929000023SHOPPING BA SSA NORT00000000000033879419PAG0000000023426000000000000023           
52017050420170605000003174134191675      06010600C000000000329400000000000700000000000000000000000000173493892170203                                           03410006970000000135929000023SHOPPING BA SSA NORT00000000000033879419PAG0000000003224000000000000023           
52017050420170605000003972762057531      06010600C000000000581700000000001240000000000000000000000000173493892170402                                           03410006970000000135929000023SHOPPING BA SSA NORT00000000000033879419PAG0000000005693000000000000023           
52017050420170605000005371026752602      06010600C000000000498200000000001070000000000000000000000000173493892170779                                           03410006970000000135929000023SHOPPING BA SSA NORT00000000000033879419PAG0000000004875000000000000023           
52017050420170605000005668560580475      06010600C000000000948500000000002030000000000000000000000000173493892170862                                           03410006970000000135929000023SHOPPING BA SSA NORT00000000000033879419PAG0000000009282000000000000023           
52017050420170605000005671772591175      06010600C000000000199700000000000430000000000000000000000000173493892170863                                           03410006970000000135929000023SHOPPING BA SSA NORT00000000000033879419PAG0000000001954000000000000023           
52017050420170605000247278630026595      06010600C000000000764700000000001640000000000000000000000000173493892170550                                           03410006970000000135929000023SHOPPING BA SSA NORT00000000000033879419PAG0000000007483000000000000023           
52017050420170605000003005108036862      10010600C000000001248400000000002800000000000000000000000000173493912170161                                           03410006970000000135929000023SHOPPING BA SSA NORT00000000000033879419PAG0000000012204000000000000023           
52017050420170605000003285142473363      10010600C000000000527700000000001180000000000000000000000000173493912170226                                           03410006970000000135929000023SHOPPING BA SSA NORT00000000000033879419PAG0000000005159000000000000023           
52017050420170605000003793120049712      10010600C000000001098800000000002460000000000000000000000000173493912170351                                           03410006970000000135929000023SHOPPING BA SSA NORT00000000000033879419PAG0000000010742000000000000023           
52017050420170605000003798472052927      10010600C000000000219600000000000490000000000000000000000000173493912170353                                           03410006970000000135929000023SHOPPING BA SSA NORT00000000000033879419PAG0000000002147000000000000023           
52017050420170605000004466116057830      10010600C000000000658600000000001480000000000000000000000000173493912170564                                           03410006970000000135929000023SHOPPING BA SSA NORT00000000000033879419PAG0000000006438000000000000023           
52017050420170605000002602000074972      01010600C000000000599000000000001130000000000000000000000000865295002170053                                           03410006970000000135929000018SHOPPING BA SALVADOR00000000000028781619PAG0000000005877000000000000018           
52017050420170605000003866022016608      01010600C000000002563200000000004840000000000000000000000000865295002170371                                           03410006970000000135929000018SHOPPING BA SALVADOR00000000000028781619PAG0000000025148000000000000018           
52017050420170605000004088130028177      01010600C000000000229000000000000430000000000000000000000000865295002170433                                           03410006970000000135929000018SHOPPING BA SALVADOR00000000000028781619PAG0000000002247000000000000018           
52017050420170605000004246622494299      01010600C000000013491000000000025500000000000000000000000000865295002170485                                           03410006970000000135929000018SHOPPING BA SALVADOR00000000000028781619PAG0000000132360000000000000018           
52017050420170605000005113350392784      01010600C000000000359000000000000680000000000000000000000000865295002170724                                           03410006970000000135929000018SHOPPING BA SALVADOR00000000000028781619PAG0000000003522000000000000018           
52017050420170605000005147746460676      01010600C000000000599000000000001130000000000000000000000000865295002170731                                           03410006970000000135929000018SHOPPING BA SALVADOR00000000000028781619PAG0000000005877000000000000018           
52017050420170605000005241350080695      01010600C000000000449000000000000850000000000000000000000000865295002170751                                           03410006970000000135929000018SHOPPING BA SALVADOR00000000000028781619PAG0000000004405000000000000018           
52017050420170605000005286246R51115      01010600C000000000258000000000000490000000000000000000000000865295002170761                                           03410006970000000135929000018SHOPPING BA SALVADOR00000000000028781619PAG0000000002531000000000000018           
52017070720170605000005397338802207      01010600C000000001590000000000003010000000000000000000000000865295002226811                                           03410006970000000135929000034SHOPPING SE RIOMAR A00000000000028781619PAG0000000015599000000000000034           
52017050420170605000245840420470412      01010600C000000000499000000000000940000000000000000000000000865295002170898                                           03410006970000000135929000018SHOPPING BA SALVADOR00000000000028781619PAG0000000004896000000000000018           
52017050420170605000246215182591155      01010600C000000000490000000000000930000000000000000000000000865295002170804                                           03410006970000000135929000018SHOPPING BA SALVADOR00000000000028781619PAG0000000004807000000000000018           
52017050420170605000247184712084721      01010600C000000000499000000000000940000000000000000000000000865295002170576                                           03410006970000000135929000018SHOPPING BA SALVADOR00000000000028781619PAG0000000004896000000000000018           
52017050420170605000247776258031833      01010600C000000000790000000000001490000000000000000000000000865295002170391                                           03410006970000000135929000018SHOPPING BA SALVADOR00000000000028781619PAG0000000007751000000000000018           
52017050420170605000248288322R32184      01010600C000000000099000000000000190000000000000000000000000865295002170260                                           03410006970000000135929000018SHOPPING BA SALVADOR00000000000028781619PAG0000000000971000000000000018           
52017050420170605000248534572070169      01010600C000000000099000000000000190000000000000000000000000865295002170206                                           03410006970000000135929000018SHOPPING BA SALVADOR00000000000028781619PAG0000000000971000000000000018           
52017050420170605000248568120151086      01010600C000000000749000000000001420000000000000000000000000865295002170200                                           03410006970000000135929000018SHOPPING BA SALVADOR00000000000028781619PAG0000000007348000000000000018           
52017050420170605000249097160597287      01010600C000000000944100000000001780000000000000000000000000865295002170061                                           03410006970000000135929000018SHOPPING BA SALVADOR00000000000028781619PAG0000000009263000000000000018           
52017050420170605000003385058089054      01010600C000000000945000000000001790000000000000000000000000871313432170257                                           03410006970000000135929000021SHOPPING IGUATEMI   00000000000031120199PAG0000000009271000000000000021           
52017050420170605000003746978013361      01010600C000000000779000000000001470000000000000000000000000871313432170343                                           03410006970000000135929000021SHOPPING BA IGUATEMI00000000000031120199PAG0000000007643000000000000021           
52017050420170605000003797818121470      01010600C000000000599000000000001130000000000000000000000000871313432170352                                           03410006970000000135929000021SHOPPING BA IGUATEMI00000000000031120199PAG0000000005877000000000000021           
52017050420170605000003892054010322      01010600C000000000099000000000000190000000000000000000000000871313432170377                                           03410006970000000135929000021SHOPPING BA IGUATEMI00000000000031120199PAG0000000000971000000000000021           
52017050420170605000004582272024231      01010600C000000000199000000000000380000000000000000000000000871313432170595                                           03410006970000000135929000021SHOPPING BA IGUATEMI00000000000031120199PAG0000000001952000000000000021           
52017050420170605000004777772034148      01010600C000000000699000000000001320000000000000000000000000871313432170643                                           03410006970000000135929000021SHOPPING BA IGUATEMI00000000000031120199PAG0000000006858000000000000021           
52017050420170605000004961614043138      01010600C000000000229000000000000430000000000000000000000000871313432170684                                           03410006970000000135929000021SHOPPING BA IGUATEMI00000000000031120199PAG0000000002247000000000000021           
52017050420170605000005020652062613      01010600C000000000369000000000000700000000000000000000000000871313432170703                                           03410006970000000135929000021SHOPPING BA IGUATEMI00000000000031120199PAG0000000003620000000000000021           
52017050420170605000246289276070564      01010600C000000000159000000000000300000000000000000000000000871313432170789                                           03410006970000000135929000021SHOPPING BA IGUATEMI00000000000031120199PAG0000000001560000000000000021           
52017050420170605000246507396082862      01010600C000000000290000000000000550000000000000000000000000871313432170741                                           03410006970000000135929000021SHOPPING BA IGUATEMI00000000000031120199PAG0000000002845000000000000021           
52017050420170605000247249650849282      01010600C000000000690000000000001300000000000000000000000000871313432170559                                           03410006970000000135929000021SHOPPING BA IGUATEMI00000000000031120199PAG0000000006770000000000000021           
52017050420170605000247501716091023      01010600C000000000699000000000001320000000000000000000000000871313432170472                                           03410006970000000135929000021SHOPPING BA IGUATEMI00000000000031120199PAG0000000006858000000000000021           
52017050420170605000248094840035547      01010600C000000000499000000000000940000000000000000000000000871313432170303                                           03410006970000000135929000021SHOPPING IGUATEMI   00000000000031120199PAG0000000004896000000000000021           
52017050420170605000248101668088170      01010600C000000000199000000000000380000000000000000000000000871313432170298                                           03410006970000000135929000021SHOPPING BA IGUATEMI00000000000031120199PAG0000000001952000000000000021           
52017050420170605000248269946060855      01010600C000000000099000000000000190000000000000000000000000871313432170263                                           03410006970000000135929000021SHOPPING BA IGUATEMI00000000000031120199PAG0000000000971000000000000021           
52017050420170605000248462912029707      01010600C000000000390000000000000740000000000000000000000000871313432170222                                           03410006970000000135929000021SHOPPING BA IGUATEMI00000000000031120199PAG0000000003826000000000000021           
52017050420170605000249057466023674      01010600C000000000429000000000000810000000000000000000000000871313432170077                                           03410006970000000135929000021SHOPPING BA IGUATEMI00000000000031120199PAG0000000004209000000000000021           
52017050420170605000003382898545171      01010600C000000000150000000000000280000000000000000000000000878302932170248                                           03410006970000000135929000023SHOPPING BA SSA NORT00000000000033879419PAG0000000001472000000000000023           
52017050420170605000003542320470934      01010600C000000011241100000000021250000000000000000000000000878302932170282                                           03410006970000000135929000023SHOPPING BA SSA NORT00000000000033879419PAG0000000110286000000000000023           
52017050420170605000003708120R47005      01010600C000000000250000000000000470000000000000000000000000878302932170330                                           03410006970000000135929000023SHOPPING BA SSA NORT00000000000033879419PAG0000000002453000000000000023           
52017050420170605000004437564040963      01010600C000000000599000000000001130000000000000000000000000878302932170556                                           03410006970000000135929000023SHOPPING BA SSA NORT00000000000033879419PAG0000000005877000000000000023           
52017050420170605000005679824023893      01010600C000000000449000000000000850000000000000000000000000878302932170866                                           03410006970000000135929000023SHOPPING BA SSA NORT00000000000033879419PAG0000000004405000000000000023           
52017050420170605000246040716832860      01010600C000000000290000000000000550000000000000000000000000878302932170851                                           03410006970000000135929000023SHOPPING BA SSA NORT00000000000033879419PAG0000000002845000000000000023           
52017050420170605000246583890R40779      01010600C000000000229000000000000430000000000000000000000000878302932170720                                           03410006970000000135929000023SHOPPING BA SSA NORT00000000000033879419PAG0000000002247000000000000023           
52017050420170605000247148602020095      01010600C000000000329000000000000620000000000000000000000000878302932170586                                           03410006970000000135929000023SHOPPING BA SSA NORT00000000000033879419PAG0000000003228000000000000023           
52017050420170605000247281718055859      01010600C000000000590000000000001120000000000000000000000000878302932170549                                           03410006970000000135929000023SHOPPING BA SSA NORT00000000000033879419PAG0000000005788000000000000023           
52017050420170605000247505752R79397      01010600C000000000199000000000000380000000000000000000000000878302932170467                                           03410006970000000135929000023SHOPPING BA SSA NORT00000000000033879419PAG0000000001952000000000000023           
52017050420170605000247513700375753      01010600C000000000898000000000001700000000000000000000000000878302932170463                                           03410006970000000135929000023SHOPPING BA SSA NORT00000000000033879419PAG0000000008810000000000000023           
52017050420170605000247597778195059      01010600C000000001290000000000002440000000000000000000000000878302932170434                                           03410006970000000135929000023SHOPPING BA SSA NORT00000000000033879419PAG0000000012656000000000000023           
52017050420170605000247782012028787      01010600C000000000259000000000000490000000000000000000000000878302932170387                                           03410006970000000135929000023SHOPPING BA SSA NORT00000000000033879419PAG0000000002541000000000000023           
52017050420170605000248324102021456      01010600C000000000529000000000001000000000000000000000000000878302932170250                                           03410006970000000135929000023SHOPPING BA SSA NORT00000000000033879419PAG0000000005190000000000000023           
52017050520170605000003364302921955      01010600C000000000749000000000001420000000000000000000000000057302122171133                                           03410006970000000135929000018SHOPPING BA SALVADOR00000000000028781619PAG0000000007348000000000000018           
52017050520170605000003375146402666      01010600C000000000899000000000001700000000000000000000000000057302122171138                                           03410006970000000135929000018SHOPPING BA SALVADOR00000000000028781619PAG0000000008820000000000000018           
52017050520170605000003769170099639      01010600C000000000795000000000001500000000000000000000000000057302122171217                                           03410006970000000135929000018SHOPPING BA SALVADOR00000000000028781619PAG0000000007800000000000000018           
52017050520170605000004324654971245      01010600C000000000299000000000000570000000000000000000000000057302122171375                                           03410006970000000135929000018SHOPPING BA SALVADOR00000000000028781619PAG0000000002933000000000000018           
52017050520170605000004396522098905      01010600C000000000469000000000000890000000000000000000000000057302122171389                                           03410006970000000135929000018SHOPPING BA SALVADOR00000000000028781619PAG0000000004601000000000000018           
52017050520170605000246555118037490      01010600C000000000399000000000000750000000000000000000000000057302122171622                                           03410006970000000135929000018SHOPPING BA SALVADOR00000000000028781619PAG0000000003915000000000000018           
52017050520170605000246694184594615      01010600C000000001618200000000003060000000000000000000000000057302122171588                                           03410006970000000135929000018SHOPPING BA SALVADOR00000000000028781619PAG0000000015876000000000000018           
52017050520170605000247307834008404      01010600C000000001090000000000002060000000000000000000000000057302122171424                                           03410006970000000135929000018SHOPPING BA SALVADOR00000000000028781619PAG0000000010694000000000000018           
52017050520170605000247341240033061      01010600C000000002616300000000004940000000000000000000000000057302122171410                                           03410006970000000135929000018SHOPPING BA SALVADOR00000000000028781619PAG0000000025669000000000000018           
52017050520170605000247408750821056      01010600C000000000590000000000001120000000000000000000000000057302122171388                                           03410006970000000135929000018SHOPPING BA SALVADOR00000000000028781619PAG0000000005788000000000000018           
52017050520170605000247898342076890      01010600C000000001348000000000002550000000000000000000000000057302122171253                                           03410006970000000135929000018SHOPPING BA SALVADOR00000000000028781619PAG0000000013225000000000000018           
52017050520170605000248146116250472      01010600C000000000499000000000000940000000000000000000000000057302122171179                                           03410006970000000135929000018SHOPPING BA SALVADOR00000000000028781619PAG0000000004896000000000000018           
52017050520170605000248229254096292      01010600C000000000159000000000000300000000000000000000000000057302122171162                                           03410006970000000135929000018SHOPPING BA SALVADOR00000000000028781619PAG0000000001560000000000000018           
52017050520170605000003222794013221      01010600C000000000129000000000000240000000000000000000000000064294642171099                                           03410006970000000135929000021SHOPPING BA IGUATEMI00000000000031120199PAG0000000001266000000000000021           
52017031420170605000003265560036046      01010600C000000000849000000000001600000000000000000000000000064294642090256                                           03410006970000000135929000021SHOPPING BA IGUATEMI00000000000031120199PAG0000000008330000000000000021           
52017050520170605000003313790304068      01010600C000000000099000000000000190000000000000000000000000064294642171120                                           03410006970000000135929000021SHOPPING BA IGUATEMI00000000000031120199PAG0000000000971000000000000021           
52017050520170605000003982092025611      01010600C000000000699000000000001320000000000000000000000000064294642171279                                           03410006970000000135929000021SHOPPING BA IGUATEMI00000000000031120199PAG0000000006858000000000000021           
52017050520170605000004606174751151      01010600C000000003591000000000006790000000000000000000000000064294642171449                                           03410006970000000135929000021SHOPPING BA IGUATEMI00000000000031120199PAG0000000035231000000000000021           
52017050520170605000004627796023560      01010600C000000005841100000000011040000000000000000000000000064294642171460                                           03410006970000000135929000021SHOPPING BA IGUATEMI00000000000031120199PAG0000000057307000000000000021           
52017050520170605000245906914018212      01010600C000000000199000000000000380000000000000000000000000064294642171784                                           03410006970000000135929000021SHOPPING BA IGUATEMI00000000000031120199PAG0000000001952000000000000021           
52017050520170605000246609552015315      01010600C000000008091000000000015290000000000000000000000000064294642171611                                           03410006970000000135929000021SHOPPING BA IGUATEMI00000000000031120199PAG0000000079381000000000000021           
52017050520170605000247008298032028      01010600C000000000925200000000001750000000000000000000000000064294642171497                                           03410006970000000135929000021SHOPPING BA IGUATEMI00000000000031120199PAG0000000009077000000000000021           
52017050520170605000247159560026473      01010600C000000000528000000000001000000000000000000000000000064294642171464                                           03410006970000000135929000021SHOPPING BA IGUATEMI00000000000031120199PAG0000000005180000000000000021           
52017050520170605000248812882071104      01010600C000000002365500000000004470000000000000000000000000064294642171058                                           03410006970000000135929000021SHOPPING BA IGUATEMI00000000000031120199PAG0000000023208000000000000021           
52017050520170605000248923828090572      01010600C000000000449000000000000850000000000000000000000000064294642171022                                           03410006970000000135929000021SHOPPING BA IGUATEMI00000000000031120199PAG0000000004405000000000000021           
52017050520170605000249009596512471      01010600C000000000449000000000000850000000000000000000000000064294642170998                                           03410006970000000135929000021SHOPPING BA IGUATEMI00000000000031120199PAG0000000004405000000000000021           
52017050520170605000003693448059529      01010600C000000000599000000000001130000000000000000000000000071298652171191                                           03410006970000000135929000023SHOPPING BA SSA NORT00000000000033879419PAG0000000005877000000000000023           
52017050520170605000004193236046063      01010600C000000000369000000000000700000000000000000000000000071298652171337                                           03410006970000000135929000023SHOPPING BA SSA NORT00000000000033879419PAG0000000003620000000000000023           
52017050520170605000005747764523058      01010600C000000000289000000000000550000000000000000000000000071298652171738                                           03410006970000000135929000023SHOPPING BA SSA NORT00000000000033879419PAG0000000002835000000000000023           
52017050520170605000246277560706485      01010600C000000000595000000000001120000000000000000000000000071298652171696                                           03410006970000000135929000023SHOPPING BA SSA NORT00000000000033879419PAG0000000005838000000000000023           
52017050520170605000246570208120517      01010600C000000000590000000000001120000000000000000000000000071298652171617                                           03410006970000000135929000023SHOPPING BA SSA NORT00000000000033879419PAG0000000005788000000000000023           
52017050520170605000247618230037285      01010600C000000000790000000000001490000000000000000000000000071298652171331                                           03410006970000000135929000023SHOPPING BA SSA NORT00000000000033879419PAG0000000007751000000000000023           
52017050520170605000002476238281054      02010600C000000000324500000000000700000000000000000000000000493490182170927                                           03410006970000000135929000018SHOPPING BA SALVADOR00000000000028781619PAG0000000003175000000000000018           
52017050520170605000004546516670428      02010600C000000001495000000000003200000000000000000000000000493490182171437                                           03410006970000000135929000018SHOPPING BA SALVADOR00000000000028781619PAG0000000014630000000000000018           
52017050520170605000004684974064895      02010600C000000000444500000000000950000000000000000000000000493490182171474                                           03410006970000000135929000018SHOPPING BA SALVADOR00000000000028781619PAG0000000004350000000000000018           
52017050520170605000004898524065607      02010600C000000000349500000000000750000000000000000000000000493490182171523                                           03410006970000000135929000018SHOPPING BA SALVADOR00000000000028781619PAG0000000003420000000000000018           
52017050520170605000005191116280468      02010600C000000000195000000000000420000000000000000000000000493490182171609                                           03410006970000000135929000018SHOPPING BA SALVADOR00000000000028781619PAG0000000001908000000000000018           
52017050520170605000246139612280672      02010600C000000000795000000000001700000000000000000000000000493490182171730                                           03410006970000000135929000018SHOPPING BA SALVADOR00000000000028781619PAG0000000007780000000000000018           
52017050520170605000248232032054704      02010600C000000001415500000000003030000000000000000000000000493490182171161                                           03410006970000000135929000018SHOPPING BA SALVADOR00000000000028781619PAG0000000013852000000000000018           
52017050520170605000249057502047575      02010600C000000000379500000000000810000000000000000000000000493490182170988                                           03410006970000000135929000018SHOPPING BA SALVADOR00000000000028781619PAG0000000003714000000000000018           
