000520170601                2017060120170630ALLPAYMENTS  LOGIN        000001                                                                                                                                                                    
52017033120170601000249047410764961      02020605C000000000399600000000000860000000000000000000000000577495512123648                                           03410006970000000536571000011LOJA BA LAURO DE FRE00000000000026404095PAG0000000003910000000000000011           
52017050220170602000247415846034065      02010600C000000000345000000000000740000000000000000000000000409491722168699                                           03410006970000000135929000006LOJA BA ESPAT?DEAS -00000000000009005048PAG0000000003376000000000000006           
52017050220170602000003039908066112      02010600C000000000674400000000001440000000000000000000000000409491742168221                                           03410006970000000135929000006LOJA BA ESPAT?DEAS -00000000000009005048PAG0000000006600000000000000006           
52017050220170602000005003272053366      03010600C000000000296700000000000630000000000000000000000000409491742168646                                           03410006970000000135929000006LOJA BA ESPAT?DEAS -00000000000009005048PAG0000000002904000000000000006           
52017050220170602000005154090325670      03010600C000000003581600000000007660000000000000000000000000409491742168712                                           03410006970000000135929000006LOJA BA ESPAT?DEAS -00000000000009005048PAG0000000035050000000000000006           
52017050220170602000005037004098833      06010600C000000000781800000000001670000000000000000000000000409491742168632                                           03410006970000000135929000006LOJA BA ESPAT?DEAS -00000000000009005048PAG0000000007651000000000000006           
52017050220170602000003145606645145      10010600C000000002066800000000004630000000000000000000000000409491762168240                                           03410006970000000135929000006LOJA BA ESPAT?DEAS -00000000000009005048PAG0000000020205000000000000006           
52017050220170602000003150894660151      10010600C000000000242500000000000540000000000000000000000000409491762168241                                           03410006970000000135929000006LOJA BA ESPAT?DEAS -00000000000009005048PAG0000000002371000000000000006           
52017050220170602000003316336005185      10010600C000000001898600000000004250000000000000000000000000409491762168285                                           03410006970000000135929000006LOJA BA ESPAT?DEAS -00000000000009005048PAG0000000018561000000000000006           
52017050220170602000248675720092589      01010600C000000000790000000000001490000000000000000000000000440294412168372                                           03410006970000000135929000006LOJA BA ESPAT?DEAS -00000000000009005048PAG0000000007751000000000000006           
52017020820170602000003308398490854      01010600C000000000449000000000000850000000000000000000000000440294422064546                                           03410006970000000135929000023SHOPPING BA SSA NORT00000000000009005048PAG0000000004405000000000000023           
52017050220170602000003868612R21027      01010600C000000000260100000000000490000000000000000000000000440294422168385                                           03410006970000000135929000006LOJA BA ESPAT?DEAS -00000000000009005048PAG0000000002552000000000000006           
52017050220170602000002983290601200      03010600C000000051666700000000110570000000000000000000000000529494832168217                                           03410006970000000135929000006LOJA BA ESPAT?DEAS -00000000000030226848PAG0000000505610000000000000006           
52017050220170602000002594342044429      02010601C000000001524000000000003260000000000000000000000000409491752168155                                           03410006970000000135929000006LOJA BA ESPAT?DEAS -00000000000009005048PAG0000000014914000000000000006           
52017050220170602000003224770046864      02010601C000000000400000000000000860000000000000000000000000409491752168262                                           03410006970000000135929000006LOJA BA ESPAT?DEAS -00000000000009005048PAG0000000003914000000000000006           
52017050220170602000003347898032438      02010601C000000001654500000000003540000000000000000000000000409491752168293                                           03410006970000000135929000006LOJA BA ESPAT?DEAS -00000000000009005048PAG0000000016191000000000000006           
52017050220170602000004986174098092      03010601C000000001099900000000002350000000000000000000000000409491752168626                                           03410006970000000135929000006LOJA BA ESPAT?DEAS -00000000000009005048PAG0000000010764000000000000006           
52017050220170602000003078228084463      04010601C000000002136000000000004570000000000000000000000000409491752168227                                           03410006970000000135929000006LOJA BA ESPAT?DEAS -00000000000009005048PAG0000000020903000000000000006           
52017050220170602000247237488080482      04010601C000000000337400000000000720000000000000000000000000409491752168714                                           03410006970000000135929000006LOJA BA ESPAT?DEAS -00000000000009005048PAG0000000003302000000000000006           
52017050220170602000004983558016582      10010601C000000000537700000000001230000000000000000000000000409491772168624                                           03410006970000000135929000006LOJA BA ESPAT?DEAS -00000000000009005048PAG0000000005254000000000000006           
52017050220170602000004992418076621      10010601C000000000066900000000000150000000000000000000000000409491772168631                                           03410006970000000135929000006LOJA BA ESPAT?DEAS -00000000000009005048PAG0000000000654000000000000006           
52017050220170602000005427710640257      10010601C000000001463700000000003350000000000000000000000000409491772168791                                           03410006970000000135929000006LOJA BA ESPAT?DEAS -00000000000009005048PAG0000000014302000000000000006           
52017050220170602000003095402094029      01010601C000000000499000000000000970000000000000000000000000440294432168230                                           03410006970000000135929000006LOJA BA ESPAT?DEAS -00000000000009005048PAG0000000004893000000000000006           
52017050220170602000003289778089662      01010601C000000001161900000000002250000000000000000000000000440294432168274                                           03410006970000000135929000006LOJA BA ESPAT?DEAS -00000000000009005048PAG0000000011394000000000000006           
52017050220170602000247749820033543      01010601C000000000599000000000001160000000000000000000000000440294432168561                                           03410006970000000135929000006LOJA BA ESPAT?DEAS -00000000000009005048PAG0000000005874000000000000006           
52017050220170602000005024098055911      02010603C000000000498900000000001220000000000000000000000000409491782168635                                           03410006970000000135929000006LOJA BA ESPAT?DEAS -00000000000009005048PAG0000000004867000000000000006           
52017050220170602000002747932050172      01010603C000000003231000000000007110000000000000000000000000440294442168196                                           03410006970000000135929000006LOJA BA ESPAT?DEAS -00000000000009005048PAG0000000031599000000000000006           
52017050220170602000003729366575427      02010600C000000000645000000000001380000000000000000000000000413494702168363                                           03410006970000000135929000007LOJA SE ARACAJU - 0200000000000009796037PAG0000000006312000000000000007           
52017050220170602000003537288648258      06010600C000000000464800000000001000000000000000000000000000413494702168338                                           03410006970000000135929000007LOJA SE ARACAJU - 0200000000000009796037PAG0000000004548000000000000007           
52017050220170602000003984568035561      02010601C000000000474500000000001020000000000000000000000000413494712168406                                           03410006970000000135929000007LOJA SE ARACAJU - 0200000000000009796037PAG0000000004643000000000000007           
52017050220170602000004001374042406      02010601C000000000424500000000000910000000000000000000000000413494712168412                                           03410006970000000135929000007LOJA SE ARACAJU - 0200000000000009796037PAG0000000004154000000000000007           
52017050220170602000004097730883777      02010601C000000000424500000000000910000000000000000000000000413494712168438                                           03410006970000000135929000007LOJA SE ARACAJU - 0200000000000009796037PAG0000000004154000000000000007           
52017050220170602000004134670645995      03010601C000000003645000000000007800000000000000000000000000413494712168450                                           03410006970000000135929000007LOJA SE ARACAJU - 0200000000000009796037PAG0000000035670000000000000007           
52017050220170602000004632810200676      03010601C000000000996600000000002130000000000000000000000000413494712168562                                           03410006970000000135929000007LOJA SE ARACAJU - 0200000000000009796037PAG0000000009753000000000000007           
52017050220170602000004762956078799      04010601C000000000372300000000000800000000000000000000000000413494712168629                                           03410006970000000135929000007LOJA SE ARACAJU - 0200000000000009796037PAG0000000003643000000000000007           
52017050220170602000003387190043726      10010601C000000000998300000000002290000000000000000000000000413494722168303                                           03410006970000000135929000007LOJA SE ARACAJU - 0200000000000009796037PAG0000000009754000000000000007           
52017042320170602000003296236093034      01010601C000000010399800000000020180000000000000000000000000442304792152576                                           03410006970000000135929000018SHOPPING BA SALVADOR00000000000009796037PAG0000000101980000000000000018           
52017050220170602000005125616047003      01010601C000000000549000000000001070000000000000000000000000442304792168727                                           03410006970000000135929000007LOJA SE ARACAJU - 0200000000000009796037PAG0000000005383000000000000007           
52017050220170602000005302968045495      01010601C000000026784000000000051960000000000000000000000000442304792168824                                           03410006970000000135929000007LOJA SE ARACAJU - 0200000000000009796037PAG0000000262644000000000000007           
52017050220170602000248098894052632      06010603C000000000913600000000002240000000000000000000000000413494732168473                                           03410006970000000135929000007LOJA SE ARACAJU - 0200000000000009796037PAG0000000008912000000000000007           
52017050220170602000248163978042579      10010603C000000001743200000000004450000000000000000000000000413494742168487                                           03410006970000000135929000007LOJA SE ARACAJU - 0200000000000009796037PAG0000000016987000000000000007           
52017050220170602000247123916094516      01010603C000000000449000000000000990000000000000000000000000442304802168823                                           03410006970000000135929000007LOJA SE ARACAJU - 0200000000000009796037PAG0000000004391000000000000007           
52017050220170602000247264060072554      02010603C000000000524400000000001280000000000000000000000000512495662168731                                           03410006970000000135929000011LOJA BA LAURO DE FRE00000000000026404095PAG0000000005116000000000000011           
52017050220170602000003076386085228      01010601C000000005743700000000011140000000000000000000000000498311312168228                                           03410006970000000135929000011LOJA BA LAURO DE FRE00000000000026404095PAG0000000056323000000000000011           
52017050220170602000003154030164371      01010601C000000000600000000000001160000000000000000000000000498311312168242                                           03410006970000000135929000011LOJA BA LAURO DE FRE00000000000026404095PAG0000000005884000000000000011           
52017050220170602000004523480650753      01010601C000000032841000000000063710000000000000000000000000498311312168540                                           03410006970000000135929000011LOJA BA LAURO DE FRE00000000000026404095PAG0000000322039000000000000011           
52017050220170602000004649076817767      01010601C000000002370300000000004600000000000000000000000000498311312168571                                           03410006970000000135929000011LOJA BA LAURO DE FRE00000000000026404095PAG0000000023243000000000000011           
52017050220170602000004678752575956      01010601C000000000690000000000001340000000000000000000000000498311312168582                                           03410006970000000135929000011LOJA BA LAURO DE FRE00000000000026404095PAG0000000006766000000000000011           
52017050220170602000247385258205961      01010601C000000000559000000000001080000000000000000000000000498311312168664                                           03410006970000000135929000011LOJA BA LAURO DE FRE00000000000026404095PAG0000000005482000000000000011           
52017050220170602000004868280040577      02010601C000000000694900000000001480000000000000000000000000512495632168653                                           03410006970000000135929000011LOJA BA LAURO DE FRE00000000000026404095PAG0000000006801000000000000011           
52017050220170602000005218618618011      02010601C000000000749400000000001600000000000000000000000000512495632168732                                           03410006970000000135929000011LOJA BA LAURO DE FRE00000000000026404095PAG0000000007334000000000000011           
52017050220170602000005472840034274      02010601C000000000449500000000000960000000000000000000000000512495632168808                                           03410006970000000135929000011LOJA BA LAURO DE FRE00000000000026404095PAG0000000004399000000000000011           
52017050220170602000002920492274575      05010601C000000000269500000000000580000000000000000000000000512495632168207                                           03410006970000000135929000011LOJA BA LAURO DE FRE00000000000026404095PAG0000000002637000000000000011           
52017050220170602000003063938572771      06010601C000000000464800000000001000000000000000000000000000512495632168226                                           03410006970000000135929000011LOJA BA LAURO DE FRE00000000000026404095PAG0000000004548000000000000011           
52017050220170602000004379068015588      10010601C000000001005900000000002300000000000000000000000000512495652168531                                           03410006970000000135929000011LOJA BA LAURO DE FRE00000000000026404095PAG0000000009829000000000000011           
52017050220170602000002594034160370      01010600C000000001580000000000002990000000000000000000000000498311302168197                                           03410006970000000135929000011LOJA BA LAURO DE FRE00000000000026404095PAG0000000015501000000000000011           
52017050220170602000002709744633629      01010600C000000000658000000000001240000000000000000000000000498311302168198                                           03410006970000000135929000011LOJA BA LAURO DE FRE00000000000026404095PAG0000000006456000000000000011           
52017050220170602000004016776050101      01010600C000000000599000000000001130000000000000000000000000498311302168416                                           03410006970000000135929000011LOJA BA LAURO DE FRE00000000000026404095PAG0000000005877000000000000011           
52017050220170602000005477644081268      01010600C000000001049000000000001980000000000000000000000000498311302168809                                           03410006970000000135929000011LOJA BA LAURO DE FRE00000000000026404095PAG0000000010292000000000000011           
52017050220170602000249320030628917      01010600C000000002705600000000005110000000000000000000000000498311302168216                                           03410006970000000135929000011LOJA BA LAURO DE FRE00000000000026404095PAG0000000026545000000000000011           
52017050220170602000004488354094545      02010600C000000000443500000000000950000000000000000000000000512495622168538                                           03410006970000000135929000011LOJA BA LAURO DE FRE00000000000026404095PAG0000000004340000000000000011           
52017050220170602000004578228942371      02010600C000000000474500000000001020000000000000000000000000512495622168549                                           03410006970000000135929000011LOJA BA LAURO DE FRE00000000000026404095PAG0000000004643000000000000011           
52017050220170602000005093510736529      02010600C000000000424500000000000910000000000000000000000000512495622168698                                           03410006970000000135929000011LOJA BA LAURO DE FRE00000000000026404095PAG0000000004154000000000000011           
52017050220170602000005130190074467      02010600C000000000373000000000000800000000000000000000000000512495622168730                                           03410006970000000135929000011LOJA BA LAURO DE FRE00000000000026404095PAG0000000003650000000000000011           
52017050220170602000247106838038841      03010600C000000000468900000000001000000000000000000000000000512495622168779                                           03410006970000000135929000011LOJA BA LAURO DE FRE00000000000026404095PAG0000000004589000000000000011           
52017050220170602000248064552007926      03010600C000000001296200000000002770000000000000000000000000512495622168504                                           03410006970000000135929000011LOJA BA LAURO DE FRE00000000000026404095PAG0000000012685000000000000011           
52017050220170602000002752696531384      10010600C000000002355300000000005280000000000000000000000000512495642168532                                           03410006970000000135929000011LOJA BA LAURO DE FRE00000000000026404095PAG0000000023025000000000000011           
52017050220170602000248374346043368      10010600C000000000603500000000001350000000000000000000000000512495642168410                                           03410006970000000135929000011LOJA BA LAURO DE FRE00000000000026404095PAG0000000005900000000000000011           
52017050220170602000003487180644529      01010600C000000000449000000000000850000000000000000000000000504325322168315                                           03410006970000000135929000018SHOPPING BA SALVADOR00000000000028781619PAG0000000004405000000000000018           
52017050220170602000003897008670363      01010600C000000003315500000000006270000000000000000000000000504325322168392                                           03410006970000000135929000018SHOPPING BA SALVADOR00000000000028781619PAG0000000032528000000000000018           
52017050220170602000004109626604537      01010600C000000000120000000000000230000000000000000000000000504325322168440                                           03410006970000000135929000018SHOPPING BA SALVADOR00000000000028781619PAG0000000001177000000000000018           
52017050220170602000004129018072528      01010600C000000000159000000000000300000000000000000000000000504325322168448                                           03410006970000000135929000018SHOPPING BA SALVADOR00000000000028781619PAG0000000001560000000000000018           
52017050220170602000004173814067391      01010600C000000000399000000000000750000000000000000000000000504325322168454                                           03410006970000000135929000018SHOPPING BA SALVADOR00000000000028781619PAG0000000003915000000000000018           
52017050220170602000004591426043994      01010600C000000000759000000000001430000000000000000000000000504325322168545                                           03410006970000000135929000018SHOPPING BA SALVADOR00000000000028781619PAG0000000007447000000000000018           
52017050220170602000004602724060279      01010600C000000001126000000000002130000000000000000000000000504325322168546                                           03410006970000000135929000018SHOPPING BA SALVADOR00000000000028781619PAG0000000011047000000000000018           
52017050220170602000004651922513620      01010600C000000000849000000000001600000000000000000000000000504325322168567                                           03410006970000000135929000018SHOPPING BA SALVADOR00000000000028781619PAG0000000008330000000000000018           
52017050220170602000005699582103240      01010600C000000005391000000000010190000000000000000000000000504325322168869                                           03410006970000000135929000018SHOPPING BA SALVADOR00000000000028781619PAG0000000052891000000000000018           
52017050220170602000005772774633399      01010600C000000000898000000000001700000000000000000000000000504325322168889                                           03410006970000000135929000018SHOPPING BA SALVADOR00000000000028781619PAG0000000008810000000000000018           
52017050220170602000006258078084003      01010600C000000000229000000000000430000000000000000000000000504325322169001                                           03410006970000000135929000018SHOPPING BA SALVADOR00000000000028781619PAG0000000002247000000000000018           
52017050220170602000006493500013999      01010600C000000001089000000000002060000000000000000000000000504325322169073                                           03410006970000000135929000018SHOPPING BA SALVADOR00000000000028781619PAG0000000010684000000000000018           
52017050220170602000006584024087169      01010600C000000000369000000000000700000000000000000000000000504325322169093                                           03410006970000000135929000018SHOPPING BA SALVADOR00000000000028781619PAG0000000003620000000000000018           
52017050220170602000249065284033531      01010600C000000000229000000000000430000000000000000000000000504325322168270                                           03410006970000000135929000018SHOPPING BA SALVADOR00000000000028781619PAG0000000002247000000000000018           
52017050220170602000003041480R28864      01010600C000000001390000000000002630000000000000000000000000510319072168222                                           03410006970000000135929000021SHOPPING BA IGUATEMI00000000000031120199PAG0000000013637000000000000021           
52017050220170602000003144404033323      01010600C000000000759000000000001430000000000000000000000000510319072168239                                           03410006970000000135929000021SHOPPING BA IGUATEMI00000000000031120199PAG0000000007447000000000000021           
52017050220170602000003912706701511      01010600C000000000745000000000001410000000000000000000000000510319072168395                                           03410006970000000135929000021SHOPPING BA IGUATEMI00000000000031120199PAG0000000007309000000000000021           
52017050220170602000004468188025622      01010600C000000000199000000000000380000000000000000000000000510319072168519                                           03410006970000000135929000021SHOPPING BA IGUATEMI00000000000031120199PAG0000000001952000000000000021           
52017050220170602000005174100670022      01010600C000000000120000000000000230000000000000000000000000510319072168716                                           03410006970000000135929000021SHOPPING BA IGUATEMI00000000000031120199PAG0000000001177000000000000021           
52017050220170602000005369800061052      01010600C000000000060000000000000110000000000000000000000000510319072168766                                           03410006970000000135929000021SHOPPING BA IGUATEMI00000000000031120199PAG0000000000589000000000000021           
52017050220170602000005492972653029      01010600C000000000409000000000000770000000000000000000000000510319072168817                                           03410006970000000135929000021SHOPPING BA IGUATEMI00000000000031120199PAG0000000004013000000000000021           
52017050220170602000005770458082261      01010600C000000000120000000000000230000000000000000000000000510319072168887                                           03410006970000000135929000021SHOPPING BA IGUATEMI00000000000031120199PAG0000000001177000000000000021           
52017050220170602000006211950091845      01010600C000000000339000000000000640000000000000000000000000510319072168987                                           03410006970000000135929000021SHOPPING BA IGUATEMI00000000000031120199PAG0000000003326000000000000021           
52017050220170602000006522568192360      01010600C000000000369000000000000700000000000000000000000000510319072169082                                           03410006970000000135929000021SHOPPING BA IGUATEMI00000000000031120199PAG0000000003620000000000000021           
52017050220170602000246863498025255      01010600C000000000449000000000000850000000000000000000000000510319072168840                                           03410006970000000135929000021SHOPPING BA IGUATEMI00000000000031120199PAG0000000004405000000000000021           
52017050220170602000246986286069256      01010600C000000000209000000000000400000000000000000000000000510319072168788                                           03410006970000000135929000021SHOPPING BA IGUATEMI00000000000031120199PAG0000000002050000000000000021           
52017050220170602000247145612001479      01010600C000000000299000000000000570000000000000000000000000510319072168747                                           03410006970000000135929000021SHOPPING BA IGUATEMI00000000000031120199PAG0000000002933000000000000021           
52017050220170602000247365256100473      01010600C000000000490000000000000930000000000000000000000000510319072168636                                           03410006970000000135929000021SHOPPING BA IGUATEMI00000000000031120199PAG0000000004807000000000000021           
52017050220170602000247982022199670      01010600C000000000549000000000001040000000000000000000000000510319072168508                                           03410006970000000135929000021SHOPPING BA IGUATEMI00000000000031120199PAG0000000005386000000000000021           
52017050220170602000249169606R80328      01010600C000000000390000000000000740000000000000000000000000510319072168246                                           03410006970000000135929000021SHOPPING BA IGUATEMI00000000000031120199PAG0000000003826000000000000021           
52017050220170602000003238108842570      01010600C000000000790000000000001490000000000000000000000000516319552168263                                           03410006970000000135929000023SHOPPING BA SSA NORT00000000000033879419PAG0000000007751000000000000023           
52017050220170602000005389622064164      01010600C000000001190000000000002250000000000000000000000000516319552168771                                           03410006970000000135929000023SHOPPING BA SSA NORT00000000000033879419PAG0000000011675000000000000023           
52017050220170602000005909836R23924      01010600C000000000349000000000000660000000000000000000000000516319552168930                                           03410006970000000135929000023SHOPPING BA SSA NORT00000000000033879419PAG0000000003424000000000000023           
52017050220170602000006150512072068      01010600C000000000349000000000000660000000000000000000000000516319552168967                                           03410006970000000135929000023SHOPPING BA SSA NORT00000000000033879419PAG0000000003424000000000000023           
52017050220170602000249027338501167      01010600C000000002048000000000003870000000000000000000000000516319552168284                                           03410006970000000135929000023SHOPPING BA SSA NORT00000000000033879419PAG0000000020093000000000000023           
52017050220170602000004719558661439      02010600C000000000349500000000000750000000000000000000000000523492892168603                                           03410006970000000135929000018SHOPPING BA SALVADOR00000000000028781619PAG0000000003420000000000000018           
52017050220170602000005544026066318      02010600C000000000574500000000001230000000000000000000000000523492892168841                                           03410006970000000135929000018SHOPPING BA SALVADOR00000000000028781619PAG0000000005622000000000000018           
52017050220170602000246796512053738      02010600C000000000645000000000001380000000000000000000000000523492892168853                                           03410006970000000135929000018SHOPPING BA SALVADOR00000000000028781619PAG0000000006312000000000000018           
52017050220170602000003283616088397      03010600C000000004596800000000009840000000000000000000000000523492892168273                                           03410006970000000135929000018SHOPPING BA SALVADOR00000000000028781619PAG0000000044984000000000000018           
52017050220170602000004132000234373      03010600C000000003663300000000007840000000000000000000000000523492892168449                                           03410006970000000135929000018SHOPPING BA SALVADOR00000000000028781619PAG0000000035849000000000000018           
52017050220170602000248099736241691      03010600C000000000722600000000001550000000000000000000000000523492892168483                                           03410006970000000135929000018SHOPPING BA SALVADOR00000000000028781619PAG0000000007071000000000000018           
52017050220170602000249046452093316      03010600C000000001376800000000002950000000000000000000000000523492892168278                                           03410006970000000135929000018SHOPPING BA SALVADOR00000000000028781619PAG0000000013473000000000000018           
52017050220170602000248786820031058      05010600C000000000439600000000000940000000000000000000000000523492892168358                                           03410006970000000135929000018SHOPPING BA SALVADOR00000000000028781619PAG0000000004302000000000000018           
52017050220170602000005914492054524      06010600C000000001043200000000002230000000000000000000000000523492892168931                                           03410006970000000135929000018SHOPPING BA SALVADOR00000000000028781619PAG0000000010209000000000000018           
52017050220170602000006649736015963      06010600C000000000363000000000000780000000000000000000000000523492892169102                                           03410006970000000135929000018SHOPPING BA SALVADOR00000000000028781619PAG0000000003552000000000000018           
52017050220170602000247713548663386      06010600C000000000615500000000001320000000000000000000000000523492892168577                                           03410006970000000135929000018SHOPPING BA SALVADOR00000000000028781619PAG0000000006023000000000000018           
52017050220170602000005144856055974      10010600C000000000698500000000001570000000000000000000000000523492912168736                                           03410006970000000135929000018SHOPPING BA SALVADOR00000000000028781619PAG0000000006828000000000000018           
52017050220170602000248420740R25142      10010600C000000001165500000000002610000000000000000000000000523492912168401                                           03410006970000000135929000018SHOPPING BA SALVADOR00000000000028781619PAG0000000011394000000000000018           
52017050220170602000004208480048259      02010600C000000000449500000000000960000000000000000000000000533491562168462                                           03410006970000000135929000021SHOPPING BA IGUATEMI00000000000031120199PAG0000000004399000000000000021           
52017050220170602000005061610013255      02010600C000000001690000000000003620000000000000000000000000533491562168675                                           03410006970000000135929000021SHOPPING BA IGUATEMI00000000000031120199PAG0000000016538000000000000021           
52017050220170602000005073442019715      02010600C000000000544900000000001160000000000000000000000000533491562168682                                           03410006970000000135929000021SHOPPING BA IGUATEMI00000000000031120199PAG0000000005333000000000000021           
52017050220170602000005147484674377      02010600C000000000345000000000000740000000000000000000000000533491562168709                                           03410006970000000135929000021SHOPPING BA IGUATEMI00000000000031120199PAG0000000003376000000000000021           
52017050220170602000005366026021282      02010600C000000000424500000000000910000000000000000000000000533491562168765                                           03410006970000000135929000021SHOPPING BA IGUATEMI00000000000031120199PAG0000000004154000000000000021           
52017050220170602000005872534614945      02010600C000000000645000000000001380000000000000000000000000533491562168920                                           03410006970000000135929000021SHOPPING BA IGUATEMI00000000000031120199PAG0000000006312000000000000021           
52017050220170602000006223040096474      02010600C000000000295000000000000630000000000000000000000000533491562168990                                           03410006970000000135929000021SHOPPING BA IGUATEMI00000000000031120199PAG0000000002887000000000000021           
52017050220170602000246658666205079      02010600C000000000758000000000001620000000000000000000000000533491562168882                                           03410006970000000135929000021SHOPPING BA IGUATEMI00000000000031120199PAG0000000007418000000000000021           
52017050220170602000247271444048775      02010600C000000000674400000000001440000000000000000000000000533491562168703                                           03410006970000000135929000021SHOPPING BA IGUATEMI00000000000031120199PAG0000000006600000000000000021           
52017050220170602000247586714070204      02010600C000000000924000000000001980000000000000000000000000533491562168607                                           03410006970000000135929000021SHOPPING BA IGUATEMI00000000000031120199PAG0000000009042000000000000021           
52017050220170602000004643248074549      03010600C000000001339500000000002870000000000000000000000000533491562168573                                           03410006970000000135929000021SHOPPING BA IGUATEMI00000000000031120199PAG0000000013108000000000000021           
52017050220170602000005144694055927      03010600C000000001924600000000004120000000000000000000000000533491562168708                                           03410006970000000135929000021SHOPPING BA IGUATEMI00000000000031120199PAG0000000018834000000000000021           
52017050220170602000005171890066613      03010600C000000000865900000000001850000000000000000000000000533491562168715                                           03410006970000000135929000021SHOPPING BA IGUATEMI00000000000031120199PAG0000000008474000000000000021           
52017050220170602000005405754030940      03010600C000000000316300000000000680000000000000000000000000533491562168778                                           03410006970000000135929000021SHOPPING BA IGUATEMI00000000000031120199PAG0000000003095000000000000021           
52017050220170602000005775398034597      03010600C000000000480800000000001030000000000000000000000000533491562168894                                           03410006970000000135929000021SHOPPING BA IGUATEMI00000000000031120199PAG0000000004705000000000000021           
52017050220170602000246386372140085      03010600C000000000916900000000001960000000000000000000000000533491562168943                                           03410006970000000135929000021SHOPPING BA IGUATEMI00000000000031120199PAG0000000008973000000000000021           
52017050220170602000246386636635686      03010600C000000000333300000000000710000000000000000000000000533491562168942                                           03410006970000000135929000021SHOPPING BA IGUATEMI00000000000031120199PAG0000000003262000000000000021           
52017050220170602000247145676091120      03010600C000000002467400000000005280000000000000000000000000533491562168750                                           03410006970000000135929000021SHOPPING BA IGUATEMI00000000000031120199PAG0000000024146000000000000021           
52017050220170602000003399844093403      04010600C000000000459700000000000980000000000000000000000000533491562168298                                           03410006970000000135929000021SHOPPING BA IGUATEMI00000000000031120199PAG0000000004499000000000000021           
52017050220170602000004684744082432      04010600C000000002135200000000004570000000000000000000000000533491562168587                                           03410006970000000135929000021SHOPPING BA IGUATEMI00000000000031120199PAG0000000020895000000000000021           
52017050220170602000004750774041033      05010600C000000000279100000000000600000000000000000000000000533491562168597                                           03410006970000000135929000021SHOPPING BA IGUATEMI00000000000031120199PAG0000000002731000000000000021           
52017050220170602000247293878544482      05010600C000000000299900000000000640000000000000000000000000533491562168857                                           03410006970000000135929000021SHOPPING BA IGUATEMI00000000000031120199PAG0000000002935000000000000021           
52017050220170602000247790544062162      05010600C000000000905900000000001940000000000000000000000000533491562168550                                           03410006970000000135929000021SHOPPING BA IGUATEMI00000000000031120199PAG0000000008865000000000000021           
52017050220170602000005632534074208      06010600C000000000452000000000000970000000000000000000000000533491562168858                                           03410006970000000135929000021SHOPPING BA IGUATEMI00000000000031120199PAG0000000004423000000000000021           
52017050220170602000005801880023424      06010600C000000001263300000000002700000000000000000000000000533491562168896                                           03410006970000000135929000021SHOPPING BA IGUATEMI00000000000031120199PAG0000000012363000000000000021           
52017050220170602000006438232367280      06010600C000000001343800000000002880000000000000000000000000533491562169056                                           03410006970000000135929000021SHOPPING BA IGUATEMI00000000000031120199PAG0000000013150000000000000021           
52017050220170602000006443970974487      06010600C000000000266500000000000570000000000000000000000000533491562169060                                           03410006970000000135929000021SHOPPING BA IGUATEMI00000000000031120199PAG0000000002608000000000000021           
52017050220170602000246117406061141      06010600C000000000298100000000000640000000000000000000000000533491562169011                                           03410006970000000135929000021SHOPPING BA IGUATEMI00000000000031120199PAG0000000002917000000000000021           
52017050220170602000247491840022782      06010600C000000001706800000000003650000000000000000000000000533491562168623                                           03410006970000000135929000021SHOPPING BA IGUATEMI00000000000031120199PAG0000000016703000000000000021           
52017050220170602000004729268064808      10010600C000000000299000000000000670000000000000000000000000533491582168591                                           03410006970000000135929000021SHOPPING BA IGUATEMI00000000000031120199PAG0000000002923000000000000021           
52017050220170602000005000094082876      10010600C000000000848800000000001900000000000000000000000000533491582168639                                           03410006970000000135929000021SHOPPING BA IGUATEMI00000000000031120199PAG0000000008298000000000000021           
52017050220170602000005053572008620      10010600C000000000291400000000000650000000000000000000000000533491582168668                                           03410006970000000135929000021SHOPPING BA IGUATEMI00000000000031120199PAG0000000002849000000000000021           
52017050220170602000005057790010748      10010600C000000000229200000000000510000000000000000000000000533491582168674                                           03410006970000000135929000021SHOPPING BA IGUATEMI00000000000031120199PAG0000000002241000000000000021           
52017050220170602000005344042062278      10010600C000000001211500000000002720000000000000000000000000533491582168763                                           03410006970000000135929000021SHOPPING BA IGUATEMI00000000000031120199PAG0000000011843000000000000021           
52017050220170602000005665122044286      10010600C000000000998300000000002240000000000000000000000000533491582168862                                           03410006970000000135929000021SHOPPING BA IGUATEMI00000000000031120199PAG0000000009759000000000000021           
52017050220170602000247914468150369      10010600C000000002327600000000005220000000000000000000000000533491582168522                                           03410006970000000135929000021SHOPPING BA IGUATEMI00000000000031120199PAG0000000022754000000000000021           
52017050220170602000248977702029968      10010600C000000000877400000000001970000000000000000000000000533491582168296                                           03410006970000000135929000021SHOPPING BA IGUATEMI00000000000031120199PAG0000000008577000000000000021           
52017050320170602000497123728098296      06010600C000000000900700000000001930000000000000000000000000542494202169698                                           03410006970000000135929000023SHOPPING BA SSA NORT00000000000033879419PAG0000000008814000000000000023           
52017050220170602000003860052074810      02010600C000000000674000000000001440000000000000000000000000542494222168383                                           03410006970000000135929000023SHOPPING BA SSA NORT00000000000033879419PAG0000000006596000000000000023           
52017050220170602000006415594R72552      02010600C000000000439000000000000940000000000000000000000000542494222169047                                           03410006970000000135929000023SHOPPING BA SSA NORT00000000000033879419PAG0000000004296000000000000023           
52017050220170602000246991196002567      02010600C000000000499500000000001070000000000000000000000000542494222168786                                           03410006970000000135929000023SHOPPING BA SSA NORT00000000000033879419PAG0000000004888000000000000023           
52017050220170602000247583292003191      02010600C000000000645000000000001380000000000000000000000000542494222168611                                           03410006970000000135929000023SHOPPING BA SSA NORT00000000000033879419PAG0000000006312000000000000023           
52017050220170602000004202222044912      03010600C000000000521900000000001120000000000000000000000000542494222168460                                           03410006970000000135929000023SHOPPING BA SSA NORT00000000000033879419PAG0000000005107000000000000023           
52017050220170602000006525302502978      03010600C000000000466300000000001000000000000000000000000000542494222169083                                           03410006970000000135929000023SHOPPING BA SSA NORT00000000000033879419PAG0000000004563000000000000023           
52017050220170602000006618150003607      03010600C000000001339500000000002870000000000000000000000000542494222169097                                           03410006970000000135929000023SHOPPING BA SSA NORT00000000000033879419PAG0000000013108000000000000023           
52017050220170602000003885202086988      05010600C000000000201500000000000430000000000000000000000000542494222168391                                           03410006970000000135929000023SHOPPING BA SSA NORT00000000000033879419PAG0000000001972000000000000023           
52017050220170602000005309286097947      05010600C000000000259600000000000560000000000000000000000000542494222168759                                           03410006970000000135929000023SHOPPING BA SSA NORT00000000000033879419PAG0000000002540000000000000023           
52017050220170602000006441180R38473      05010600C000000000239600000000000510000000000000000000000000542494222169058                                           03410006970000000135929000023SHOPPING BA SSA NORT00000000000033879419PAG0000000002345000000000000023           
52017050220170602000003054456552854      06010600C000000000715900000000001530000000000000000000000000542494222168223                                           03410006970000000135929000023SHOPPING BA SSA NORT00000000000033879419PAG0000000007006000000000000023           
52017072420170602000004377114034503      06010600C000000001664800000000003560000000000000000000000000542494222240501                                           03410006970000000135929000023SHOPPING BA SSA NORT00000000000033879419PAG0000000016292000000000000023           
52017050220170602000006601392024390      06010600C000000001581700000000003380000000000000000000000000542494222169096                                           03410006970000000135929000023SHOPPING BA SSA NORT00000000000033879419PAG0000000015479000000000000023           
52017050220170602000004128836R20291      08010600C000000000486000000000001090000000000000000000000000542494242168447                                           03410006970000000135929000023SHOPPING BA SSA NORT00000000000033879419PAG0000000004751000000000000023           
52017050220170602000005055642008002      10010600C000000002727900000000006110000000000000000000000000542494242168670                                           03410006970000000135929000023SHOPPING BA SSA NORT00000000000033879419PAG0000000026668000000000000023           
52017050220170602000245775698018995      10010600C000000000498300000000001120000000000000000000000000542494242169103                                           03410006970000000135929000023SHOPPING BA SSA NORT00000000000033879419PAG0000000004871000000000000023           
52017050220170602000003105966016809      01010601C000000000990000000000001920000000000000000000000000504325332168234                                           03410006970000000135929000018SHOPPING BA SALVADOR00000000000028781619PAG0000000009708000000000000018           
52017050220170602000003153376038028      01010601C000000000289000000000000560000000000000000000000000504325332168243                                           03410006970000000135929000018SHOPPING BA SALVADOR00000000000028781619PAG0000000002834000000000000018           
52017050220170602000003369864615608      01010601C000000000219000000000000420000000000000000000000000504325332168297                                           03410006970000000135929000018SHOPPING BA SALVADOR00000000000028781619PAG0000000002148000000000000018           
52017050220170602000004187238031914      01010601C000000001528000000000002960000000000000000000000000504325332168458                                           03410006970000000135929000018SHOPPING BA SALVADOR00000000000028781619PAG0000000014984000000000000018           
52017050220170602000004745636069096      01010601C000000000349000000000000680000000000000000000000000504325332168613                                           03410006970000000135929000018SHOPPING BA SALVADOR00000000000028781619PAG0000000003422000000000000018           
52017050220170602000004810784013616      01010601C000000000120000000000000230000000000000000000000000504325332168628                                           03410006970000000135929000018SHOPPING BA SALVADOR00000000000028781619PAG0000000001177000000000000018           
52017050220170602000004885702087901      01010601C000000000599000000000001160000000000000000000000000504325332168656                                           03410006970000000135929000018SHOPPING BA SALVADOR00000000000028781619PAG0000000005874000000000000018           
52017050220170602000005722502143776      01010601C000000000449000000000000870000000000000000000000000504325332168875                                           03410006970000000135929000018SHOPPING BA SALVADOR00000000000028781619PAG0000000004403000000000000018           
52017050220170602000006640348612486      01010601C000000000819000000000001590000000000000000000000000504325332169099                                           03410006970000000135929000018SHOPPING BA SALVADOR00000000000028781619PAG0000000008031000000000000018           
52017050220170602000245874818185058      01010601C000000000369000000000000720000000000000000000000000504325332169090                                           03410006970000000135929000018SHOPPING BA SALVADOR00000000000028781619PAG0000000003618000000000000018           
52017020620170602000247625178067780      01010601C000000000499000000000000970000000000000000000000000504325332063156                                           03410006970000000135929000036SHOPPING BA JEQUITIB00000000000028781619PAG0000000004893000000000000036           
52017050220170602000247828302097148      01010601C000000001490000000000002890000000000000000000000000504325332168539                                           03410006970000000135929000018SHOPPING BA SALVADOR00000000000028781619PAG0000000014611000000000000018           
52017050220170602000003616978053814      01010601C000000000890000000000001730000000000000000000000000510319082168337                                           03410006970000000135929000021SHOPPING BA IGUATEMI00000000000031120199PAG0000000008727000000000000021           
52017050220170602000003751364132863      01010601C000000000690000000000001340000000000000000000000000510319082168345                                           03410006970000000135929000021SHOPPING BA IGUATEMI00000000000031120199PAG0000000006766000000000000021           
52017050220170602000004046326859294      01010601C000000000199000000000000390000000000000000000000000510319082168421                                           03410006970000000135929000021SHOPPING BA IGUATEMI00000000000031120199PAG0000000001951000000000000021           
52017050220170602000004094322882089      01010601C000000000899000000000001740000000000000000000000000510319082168433                                           03410006970000000135929000021SHOPPING BA IGUATEMI00000000000031120199PAG0000000008816000000000000021           
52017050220170602000004159292059925      01010601C000000000549000000000001070000000000000000000000000510319082168451                                           03410006970000000135929000021SHOPPING BA IGUATEMI00000000000031120199PAG0000000005383000000000000021           
52017050220170602000004264352665747      01010601C000000001225500000000002380000000000000000000000000510319082168467                                           03410006970000000135929000021SHOPPING BA IGUATEMI00000000000031120199PAG0000000012017000000000000021           
52017050220170602000004640256600190      01010601C000000000259000000000000500000000000000000000000000510319082168564                                           03410006970000000135929000021SHOPPING BA IGUATEMI00000000000031120199PAG0000000002540000000000000021           
52017050220170602000005231076098780      01010601C000000001090000000000002110000000000000000000000000510319082168725                                           03410006970000000135929000021SHOPPING BA IGUATEMI00000000000031120199PAG0000000010689000000000000021           
52017050220170602000005399238685792      01010601C000000004183200000000008120000000000000000000000000510319082168776                                           03410006970000000135929000021SHOPPING BA IGUATEMI00000000000031120199PAG0000000041020000000000000021           
52017050220170602000005502138044859      01010601C000000000899000000000001740000000000000000000000000510319082168820                                           03410006970000000135929000021SHOPPING BA IGUATEMI00000000000031120199PAG0000000008816000000000000021           
52017050220170602000005506274674748      01010601C000000000300000000000000580000000000000000000000000510319082168822                                           03410006970000000135929000021SHOPPING BA IGUATEMI00000000000031120199PAG0000000002942000000000000021           
52017050220170602000005666728645845      01010601C000000000449000000000000870000000000000000000000000510319082168863                                           03410006970000000135929000021SHOPPING BA IGUATEMI00000000000031120199PAG0000000004403000000000000021           
52017050220170602000005750268660660      01010601C000000000399000000000000770000000000000000000000000510319082168879                                           03410006970000000135929000021SHOPPING BA IGUATEMI00000000000031120199PAG0000000003913000000000000021           
52017050220170602000245990900067346      01010601C000000000099000000000000190000000000000000000000000510319082169064                                           03410006970000000135929000021SHOPPING BA IGUATEMI00000000000031120199PAG0000000000971000000000000021           
52017050220170602000247222862087485      01010601C000000000449000000000000870000000000000000000000000510319082168718                                           03410006970000000135929000021SHOPPING BA IGUATEMI00000000000031120199PAG0000000004403000000000000021           
52017050220170602000248443754420487      01010601C000000000099000000000000190000000000000000000000000510319082168397                                           03410006970000000135929000021SHOPPING BA IGUATEMI00000000000031120199PAG0000000000971000000000000021           
52017050220170602000249091290079439      01010601C000000000220000000000000430000000000000000000000000510319082168264                                           03410006970000000135929000021SHOPPING BA IGUATEMI00000000000031120199PAG0000000002157000000000000021           
52017050220170602000249123694692303      01010601C000000000990000000000001920000000000000000000000000510319082168257                                           03410006970000000135929000021SHOPPING BA IGUATEMI00000000000031120199PAG0000000009708000000000000021           
52017050220170602000002909130252459      01010601C000000000290000000000000560000000000000000000000000516319562168205                                           03410006970000000135929000023SHOPPING BA SSA NORT00000000000033879419PAG0000000002844000000000000023           
52017050220170602000003198448044737      01010601C000000000599000000000001160000000000000000000000000516319562168253                                           03410006970000000135929000023SHOPPING BA SSA NORT00000000000033879419PAG0000000005874000000000000023           
52017050220170602000004435008065507      01010601C000000000159000000000000310000000000000000000000000516319562168512                                           03410006970000000135929000023SHOPPING BA SSA NORT00000000000033879419PAG0000000001559000000000000023           
52017050220170602000005460688072253      01010601C000000000599000000000001160000000000000000000000000516319562168804                                           03410006970000000135929000023SHOPPING BA SSA NORT00000000000033879419PAG0000000005874000000000000023           
52017050220170602000006006326673285      01010601C000000000390000000000000760000000000000000000000000516319562168937                                           03410006970000000135929000023SHOPPING BA SSA NORT00000000000033879419PAG0000000003824000000000000023           
52017050220170602000006465592053265      01010601C000000008991000000000017440000000000000000000000000516319562169066                                           03410006970000000135929000023SHOPPING BA SSA NORT00000000000033879419PAG0000000088166000000000000023           
52017050220170602000003696258092452      02010601C000000000449500000000000960000000000000000000000000523492902168376                                           03410006970000000135929000018SHOPPING BA SALVADOR00000000000028781619PAG0000000004399000000000000018           
52017050220170602000003814510635272      02010601C000000000374500000000000800000000000000000000000000523492902168377                                           03410006970000000135929000018SHOPPING BA SALVADOR00000000000028781619PAG0000000003665000000000000018           
52017050220170602000004458290017493      02010601C000000000349500000000000750000000000000000000000000523492902168518                                           03410006970000000135929000018SHOPPING BA SALVADOR00000000000028781619PAG0000000003420000000000000018           
52017050220170602000004582564046930      02010601C000000000449000000000000960000000000000000000000000523492902168542                                           03410006970000000135929000018SHOPPING BA SALVADOR00000000000028781619PAG0000000004394000000000000018           
52017050220170602000006423270032789      02010601C000000000394900000000000840000000000000000000000000523492902169051                                           03410006970000000135929000018SHOPPING BA SALVADOR00000000000028781619PAG0000000003865000000000000018           
52017050220170602000246789534574858      02010601C000000000324500000000000700000000000000000000000000523492902168854                                           03410006970000000135929000018SHOPPING BA SALVADOR00000000000028781619PAG0000000003175000000000000018           
52017050220170602000004970058684277      03010601C000000000296200000000000630000000000000000000000000523492902168658                                           03410006970000000135929000018SHOPPING BA SALVADOR00000000000028781619PAG0000000002899000000000000018           
52017050220170602000005693952634417      03010601C000000004526000000000009690000000000000000000000000523492902168867                                           03410006970000000135929000018SHOPPING BA SALVADOR00000000000028781619PAG0000000044291000000000000018           
52017050220170602000003493222092100      05010601C000000000577800000000001240000000000000000000000000523492902168331                                           03410006970000000135929000018SHOPPING BA SALVADOR00000000000028781619PAG0000000005654000000000000018           
52017050220170602000005313070044840      05010601C000000001689600000000003620000000000000000000000000523492902168795                                           03410006970000000135929000018SHOPPING BA SALVADOR00000000000028781619PAG0000000016534000000000000018           
52017050220170602000004238442951191      06010601C000000001106400000000002370000000000000000000000000523492902168481                                           03410006970000000135929000018SHOPPING BA SALVADOR00000000000028781619PAG0000000010827000000000000018           
52017050220170602000248892486077029      06010601C000000001977500000000004230000000000000000000000000523492902168307                                           03410006970000000135929000018SHOPPING BA SALVADOR00000000000028781619PAG0000000019352000000000000018           
52017050220170602000246678976062516      10010601C000000001398600000000003200000000000000000000000000523492922168878                                           03410006970000000135929000018SHOPPING BA SALVADOR00000000000028781619PAG0000000013666000000000000018           
52017050220170602000003062792099448      02010601C000000000399000000000000860000000000000000000000000533491572168225                                           03410006970000000135929000021SHOPPING BA IGUATEMI00000000000031120199PAG0000000003904000000000000021           
52017050220170602000003347970019742      02010601C000000000894000000000001920000000000000000000000000533491572168292                                           03410006970000000135929000021SHOPPING BA IGUATEMI00000000000031120199PAG0000000008748000000000000021           
52017050220170602000003982414010663      02010601C000000000399000000000000860000000000000000000000000533491572168404                                           03410006970000000135929000021SHOPPING BA IGUATEMI00000000000031120199PAG0000000003904000000000000021           
52017050220170602000005492006652096      02010601C000000000519500000000001110000000000000000000000000533491572168816                                           03410006970000000135929000021SHOPPING BA IGUATEMI00000000000031120199PAG0000000005084000000000000021           
52017050220170602000246290058835111      02010601C000000000673500000000001440000000000000000000000000533491572168964                                           03410006970000000135929000021SHOPPING BA IGUATEMI00000000000031120199PAG0000000006591000000000000021           
52017050220170602000003107214037022      03010601C000000000299400000000000640000000000000000000000000533491572168233                                           03410006970000000135929000021SHOPPING BA IGUATEMI00000000000031120199PAG0000000002930000000000000021           
52017050220170602000004739454202709      03010601C000000000299400000000000640000000000000000000000000533491572168594                                           03410006970000000135929000021SHOPPING BA IGUATEMI00000000000031120199PAG0000000002930000000000000021           
52017050220170602000005393682036656      03010601C000000000440200000000000940000000000000000000000000533491572168773                                           03410006970000000135929000021SHOPPING BA IGUATEMI00000000000031120199PAG0000000004308000000000000021           
52017050220170602000005404722094405      03010601C000000001163400000000002490000000000000000000000000533491572168777                                           03410006970000000135929000021SHOPPING BA IGUATEMI00000000000031120199PAG0000000011385000000000000021           
52017050220170602000004701176622035      04010601C000000002122400000000004540000000000000000000000000533491572168590                                           03410006970000000135929000021SHOPPING BA IGUATEMI00000000000031120199PAG0000000020770000000000000021           
52017050220170602000005568526058194      04010601C000000000472400000000001010000000000000000000000000533491572168844                                           03410006970000000135929000021SHOPPING BA IGUATEMI00000000000031120199PAG0000000004623000000000000021           
52017050220170602000006412592008498      04010601C000000000584700000000001250000000000000000000000000533491572169046                                           03410006970000000135929000021SHOPPING BA IGUATEMI00000000000031120199PAG0000000005722000000000000021           
52017050220170602000247299996093591      04010601C000000001187600000000002540000000000000000000000000533491572168697                                           03410006970000000135929000021SHOPPING BA IGUATEMI00000000000031120199PAG0000000011622000000000000021           
52017050220170602000004432118076176      05010601C000000002372800000000005080000000000000000000000000533491572168515                                           03410006970000000135929000021SHOPPING BA IGUATEMI00000000000031120199PAG0000000023220000000000000021           
52017050220170602000005396476048528      06010601C000000000553700000000001180000000000000000000000000533491572168774                                           03410006970000000135929000021SHOPPING BA IGUATEMI00000000000031120199PAG0000000005419000000000000021           
52017050220170602000005539366063144      06010601C000000000406500000000000870000000000000000000000000533491572168838                                           03410006970000000135929000021SHOPPING BA IGUATEMI00000000000031120199PAG0000000003978000000000000021           
52017050220170602000006401734057687      06010601C000000002057000000000004400000000000000000000000000533491572169041                                           03410006970000000135929000021SHOPPING BA IGUATEMI00000000000031120199PAG0000000020130000000000000021           
52017050220170602000249172786683994      06010601C000000000431800000000000920000000000000000000000000533491572168245                                           03410006970000000135929000021SHOPPING BA IGUATEMI00000000000031120199PAG0000000004226000000000000021           
52017050220170602000002959168055333      10010601C000000000447500000000001030000000000000000000000000533491592168210                                           03410006970000000135929000021SHOPPING BA IGUATEMI00000000000031120199PAG0000000004372000000000000021           
52017050220170602000003979714010467      10010601C000000000698900000000001600000000000000000000000000533491592168407                                           03410006970000000135929000021SHOPPING BA IGUATEMI00000000000031120199PAG0000000006829000000000000021           
52017050220170602000005293970764700      10010601C000000002298500000000005260000000000000000000000000533491592168756                                           03410006970000000135929000021SHOPPING BA IGUATEMI00000000000031120199PAG0000000022459000000000000021           
52017050220170602000006398544099705      10010601C000000000180200000000000410000000000000000000000000533491592169040                                           03410006970000000135929000021SHOPPING BA IGUATEMI00000000000031120199PAG0000000001761000000000000021           
52017050220170602000246050808098512      10010601C000000002887500000000006610000000000000000000000000533491592169037                                           03410006970000000135929000021SHOPPING BA IGUATEMI00000000000031120199PAG0000000028214000000000000021           
52017050220170602000247599640002575      10010601C000000000365700000000000840000000000000000000000000533491592168604                                           03410006970000000135929000021SHOPPING BA IGUATEMI00000000000031120199PAG0000000003573000000000000021           
52017050220170602000004921076065770      02010601C000000001745000000000003740000000000000000000000000542494232168620                                           03410006970000000135929000023SHOPPING BA SSA NORT00000000000033879419PAG0000000017076000000000000023           
52017050220170602000006531622214750      02010601C000000000494000000000001060000000000000000000000000542494232169084                                           03410006970000000135929000023SHOPPING BA SSA NORT00000000000033879419PAG0000000004834000000000000023           
52017050220170602000004206710411649      03010601C000000000449400000000000960000000000000000000000000542494232168461                                           03410006970000000135929000023SHOPPING BA SSA NORT00000000000033879419PAG0000000004398000000000000023           
52017050220170602000006409240672337      03010601C000000000863300000000001850000000000000000000000000542494232169044                                           03410006970000000135929000023SHOPPING BA SSA NORT00000000000033879419PAG0000000008448000000000000023           
52017050220170602000006038814141241      05010601C000000000597800000000001280000000000000000000000000542494232168944                                           03410006970000000135929000023SHOPPING BA SSA NORT00000000000033879419PAG0000000005850000000000000023           
52017050220170602000006062946800744      05010601C000000000349500000000000750000000000000000000000000542494232168949                                           03410006970000000135929000023SHOPPING BA SSA NORT00000000000033879419PAG0000000003420000000000000023           
52017050220170602000247765482057854      05010601C000000000255400000000000550000000000000000000000000542494232168554                                           03410006970000000135929000023SHOPPING BA SSA NORT00000000000033879419PAG0000000002499000000000000023           
52017050220170602000005751684072554      06010601C000000001054200000000002260000000000000000000000000542494232168881                                           03410006970000000135929000023SHOPPING BA SSA NORT00000000000033879419PAG0000000010316000000000000023           
52017050220170602000006351416496673      06010601C000000000617000000000001320000000000000000000000000542494232169025                                           03410006970000000135929000023SHOPPING BA SSA NORT00000000000033879419PAG0000000006038000000000000023           
52017050220170602000006495470124269      06010601C000000001724500000000003690000000000000000000000000542494232169075                                           03410006970000000135929000023SHOPPING BA SSA NORT00000000000033879419PAG0000000016876000000000000023           
52017050220170602000002892016035911      10010601C000000000550000000000001260000000000000000000000000542494252168202                                           03410006970000000135929000023SHOPPING BA SSA NORT00000000000033879419PAG0000000005374000000000000023           
52017050220170602000006426482625741      10010601C000000001249000000000002860000000000000000000000000542494252169052                                           03410006970000000135929000023SHOPPING BA SSA NORT00000000000033879419PAG0000000012204000000000000023           
52017050220170602000006431538643254      10010601C000000000337300000000000770000000000000000000000000542494252169054                                           03410006970000000135929000023SHOPPING BA SSA NORT00000000000033879419PAG0000000003296000000000000023           
52017050220170602000003017278087087      01010603C000000001179000000000002590000000000000000000000000504325342168219                                           03410006970000000135929000018SHOPPING BA SALVADOR00000000000028781619PAG0000000011531000000000000018           
52017050220170602000005436610016946      01010603C000000000300000000000000660000000000000000000000000504325342168797                                           03410006970000000135929000018SHOPPING BA SALVADOR00000000000028781619PAG0000000002934000000000000018           
52017050220170602000003792558099381      01010603C000000000290000000000000640000000000000000000000000510319092168370                                           03410006970000000135929000021SHOPPING BA IGUATEMI00000000000031120199PAG0000000002836000000000000021           
52017050220170602000005281722093903      01010603C000000000229000000000000500000000000000000000000000510319092168753                                           03410006970000000135929000021SHOPPING BA IGUATEMI00000000000031120199PAG0000000002240000000000000021           
52017050220170602000005293436003110      01010603C000000000499000000000001100000000000000000000000000510319092168755                                           03410006970000000135929000021SHOPPING BA IGUATEMI00000000000031120199PAG0000000004880000000000000021           
52017050220170602000246326330098610      01010603C000000000299000000000000660000000000000000000000000510319092168954                                           03410006970000000135929000021SHOPPING BA IGUATEMI00000000000031120199PAG0000000002924000000000000021           
52017050220170602000247091040007310      01010603C000000000549000000000001210000000000000000000000000510319092168762                                           03410006970000000135929000021SHOPPING BA IGUATEMI00000000000031120199PAG0000000005369000000000000021           
52017050220170602000247314288064567      01010603C000000001348000000000002970000000000000000000000000510319092168686                                           03410006970000000135929000021SHOPPING BA IGUATEMI00000000000031120199PAG0000000013183000000000000021           
52017050220170602000003479040056527      01010603C000000000449000000000000990000000000000000000000000516319572168312                                           03410006970000000135929000023SHOPPING BA SSA NORT00000000000033879419PAG0000000004391000000000000023           
52017050220170602000006161530077789      01010603C000000000598000000000001320000000000000000000000000516319572168971                                           03410006970000000135929000023SHOPPING BA SSA NORT00000000000033879419PAG0000000005848000000000000023           
52017050220170602000004439662066815      02010603C000000000495000000000001220000000000000000000000000523492932168513                                           03410006970000000135929000018SHOPPING BA SALVADOR00000000000028781619PAG0000000004828000000000000018           
52017050220170602000248170454041864      02010603C000000000399000000000000980000000000000000000000000523492932168478                                           03410006970000000135929000018SHOPPING BA SALVADOR00000000000028781619PAG0000000003892000000000000018           
52017050220170602000248707994081603      02010603C000000000374500000000000920000000000000000000000000523492932168375                                           03410006970000000135929000018SHOPPING BA SALVADOR00000000000028781619PAG0000000003653000000000000018           
52017050220170602000247250788081402      03010603C000000000863200000000002120000000000000000000000000523492932168738                                           03410006970000000135929000018SHOPPING BA SALVADOR00000000000028781619PAG0000000008420000000000000018           
52017050220170602000005189710079422      06010603C000000000447900000000001100000000000000000000000000523492932168739                                           03410006970000000135929000018SHOPPING BA SALVADOR00000000000028781619PAG0000000004369000000000000018           
52017050220170602000006210902009871      10010603C000000001581600000000004030000000000000000000000000523492942168988                                           03410006970000000135929000018SHOPPING BA SALVADOR00000000000028781619PAG0000000015413000000000000018           
52017050220170602000003221828017785      02010603C000000000923900000000002260000000000000000000000000533491602168259                                           03410006970000000135929000021SHOPPING BA IGUATEMI00000000000031120199PAG0000000009013000000000000021           
52017050220170602000248423712016804      02010603C000000000424500000000001040000000000000000000000000533491602168399                                           03410006970000000135929000021SHOPPING BA IGUATEMI00000000000031120199PAG0000000004141000000000000021           
52017050220170602000004988132050576      05010603C000000000257900000000000630000000000000000000000000533491602168633                                           03410006970000000135929000021SHOPPING BA IGUATEMI00000000000031120199PAG0000000002516000000000000021           
52017022420170602000006388004026038      05010603C000000000453900000000001110000000000000000000000000533491602077603                                           03410006970000000135929000036SHOPPING BA JEQUITIB00000000000031120199PAG0000000004428000000000000036           
52017050220170602000003862468006063      06010603C000000001166600000000002860000000000000000000000000533491602168386                                           03410006970000000135929000021SHOPPING BA IGUATEMI00000000000031120199PAG0000000011380000000000000021           
52017050220170602000003880778008040      06010603C000000000549800000000001350000000000000000000000000533491602168390                                           03410006970000000135929000021SHOPPING BA IGUATEMI00000000000031120199PAG0000000005363000000000000021           
52017050220170602000004061400025837      10010603C000000001165900000000002970000000000000000000000000533491612168425                                           03410006970000000135929000021SHOPPING BA IGUATEMI00000000000031120199PAG0000000011362000000000000021           
52017050320170602000254167204065603      10010603C000000000269300000000000690000000000000000000000000542494212169724                                           03410006970000000135929000023SHOPPING BA SSA NORT00000000000033879419PAG0000000002624000000000000023           
52017050320170602000497067866054868      10010603C000000000998500000000002550000000000000000000000000542494212169711                                           03410006970000000135929000023SHOPPING BA SSA NORT00000000000033879419PAG0000000009730000000000000023           
52017050220170602000003058538093094      02010603C000000000446200000000001100000000000000000000000000542494262168224                                           03410006970000000135929000023SHOPPING BA SSA NORT00000000000033879419PAG0000000004352000000000000023           
52017050220170602000005227578085184      02010603C000000000474400000000001160000000000000000000000000542494262168723                                           03410006970000000135929000023SHOPPING BA SSA NORT00000000000033879419PAG0000000004628000000000000023           
52017050220170602000248084362051108      02010603C000000000449000000000001100000000000000000000000000542494262168477                                           03410006970000000135929000023SHOPPING BA SSA NORT00000000000033879419PAG0000000004380000000000000023           
52017050220170602000003267764024857      03010603C000000000429900000000001050000000000000000000000000542494262168267                                           03410006970000000135929000023SHOPPING BA SSA NORT00000000000033879419PAG0000000004194000000000000023           
52017050220170602000004981346049218      03010603C000000000583000000000001430000000000000000000000000542494262168621                                           03410006970000000135929000023SHOPPING BA SSA NORT00000000000033879419PAG0000000005687000000000000023           
52017050220170602000249036052030714      06010603C000000000885100000000002170000000000000000000000000542494262168280                                           03410006970000000135929000023SHOPPING BA SSA NORT00000000000033879419PAG0000000008634000000000000023           
52017040120170602000004937088599729      06020605C000000000581600000000001240000000000000000000000000962493532124823                                           03410006970000000536571000023SHOPPING BA SSA NORT00000000000033879419PAG0000000005692000000000000023           
52017040120170602000247953666657104      10020605C000000001881000000000004210000000000000000000000000962493552124819                                           03410006970000000536571000023SHOPPING BA SSA NORT00000000000033879419PAG0000000018389000000000000023           
52017050220170602000004037042684680      01010600C000000001498000000000002830000000000000000000000000546293822168418                                           03410006970000000135929000034SHOPPING SE RIOMAR A00000000000046138781PAG0000000014697000000000000034           
52017050220170602000004321970977026      01010600C000000000390000000000000740000000000000000000000000546293822168496                                           03410006970000000135929000034SHOPPING SE RIOMAR A00000000000046138781PAG0000000003826000000000000034           
52017031720170602000004566622096320      01010600C000000000559000000000001060000000000000000000000000546293822093109                                           03410006970000000135929000018SHOPPING BA SALVADOR00000000000046138781PAG0000000005484000000000000018           
52017050220170602000248037008232752      01010600C000000000599000000000001130000000000000000000000000546293822168500                                           03410006970000000135929000034SHOPPING SE RIOMAR A00000000000046138781PAG0000000005877000000000000034           
52017050220170602000003565864094822      02010600C000000000569500000000001220000000000000000000000000593490082168321                                           03410006970000000135929000034SHOPPING SE RIOMAR A00000000000046138781PAG0000000005573000000000000034           
52017050220170602000006140368475627      02010600C000000001083000000000002320000000000000000000000000593490082168965                                           03410006970000000135929000034SHOPPING SE RIOMAR A00000000000046138781PAG0000000010598000000000000034           
52017050220170602000245927836047953      02010600C000000000369000000000000790000000000000000000000000593490082169079                                           03410006970000000135929000034SHOPPING SE RIOMAR A00000000000046138781PAG0000000003611000000000000034           
52017050220170602000248905496634309      03010600C000000001922400000000004110000000000000000000000000593490082168305                                           03410006970000000135929000034SHOPPING SE RIOMAR A00000000000046138781PAG0000000018813000000000000034           
52017050220170602000003739728014083      06010600C000000001027200000000002200000000000000000000000000593490082168362                                           03410006970000000135929000034SHOPPING SE RIOMAR A00000000000046138781PAG0000000010052000000000000034           
52017050220170602000003456920690295      01010601C000000000289000000000000560000000000000000000000000546293832168306                                           03410006970000000135929000034SHOPPING SE RIOMAR A00000000000046138781PAG0000000002834000000000000034           
52017050220170602000003476592084868      01010601C000000001299000000000002520000000000000000000000000546293832168314                                           03410006970000000135929000034SHOPPING SE RIOMAR A00000000000046138781PAG0000000012738000000000000034           
52017050220170602000005412796001294      01010601C000000000599000000000001160000000000000000000000000546293832168787                                           03410006970000000135929000034SHOPPING SE RIOMAR A00000000000046138781PAG0000000005874000000000000034           
52017050220170602000006506156994524      01010601C000000003106000000000006030000000000000000000000000546293832169077                                           03410006970000000135929000034SHOPPING SE RIOMAR A00000000000046138781PAG0000000030457000000000000034           
52017050220170602000246952084292169      01010601C000000000390000000000000760000000000000000000000000546293832168803                                           03410006970000000135929000034SHOPPING SE RIOMAR A00000000000046138781PAG0000000003824000000000000034           
52017050220170602000006487468987731      02010601C000000000445000000000000950000000000000000000000000593490092169071                                           03410006970000000135929000034SHOPPING SE RIOMAR A00000000000046138781PAG0000000004355000000000000034           
52017050220170602000006475446027161      03010601C000000000529900000000001130000000000000000000000000593490092169070                                           03410006970000000135929000034SHOPPING SE RIOMAR A00000000000046138781PAG0000000005186000000000000034           
52017050220170602000006403360952756      06010601C000000000645000000000001380000000000000000000000000593490092169042                                           03410006970000000135929000034SHOPPING SE RIOMAR A00000000000046138781PAG0000000006312000000000000034           
52017050220170602000004255526959278      10010601C000000000773400000000001770000000000000000000000000593490102168482                                           03410006970000000135929000034SHOPPING SE RIOMAR A00000000000046138781PAG0000000007557000000000000034           
52017050220170602000006336068921721      10010601C000000001783400000000004080000000000000000000000000593490102169015                                           03410006970000000135929000034SHOPPING SE RIOMAR A00000000000046138781PAG0000000017426000000000000034           
52017050220170602000246876088061701      10010601C000000000998300000000002290000000000000000000000000593490102168831                                           03410006970000000135929000034SHOPPING SE RIOMAR A00000000000046138781PAG0000000009754000000000000034           
52017050220170602000003644754079474      10010603C000000000638100000000001630000000000000000000000000593490112168347                                           03410006970000000135929000034SHOPPING SE RIOMAR A00000000000046138781PAG0000000006218000000000000034           
52017050220170602000004292978050217      02010603C000000000299500000000000740000000000000000000000000606490272168474                                           03410006970000000135929000036SHOPPING BA JEQUITIB00000000000049693867PAG0000000002921000000000000036           
52017050220170602000247608336016864      02010603C000000000349500000000000860000000000000000000000000606490272168602                                           03410006970000000135929000036SHOPPING BA JEQUITIB00000000000049693867PAG0000000003409000000000000036           
52017050220170602000248110038048413      02010603C000000000645000000000001580000000000000000000000000606490272168471                                           03410006970000000135929000036SHOPPING BA JEQUITIB00000000000049693867PAG0000000006292000000000000036           
52017050220170602000247618060020352      03010603C000000013481200000000033030000000000000000000000000606490272168600                                           03410006970000000135929000036SHOPPING BA JEQUITIB00000000000049693867PAG0000000131509000000000000036           
52017050220170602000004068174026359      06010603C000000001977700000000004840000000000000000000000000606490272168426                                           03410006970000000135929000036SHOPPING BA JEQUITIB00000000000049693867PAG0000000019293000000000000036           
52017050220170602000003204948742842      01010601C000000000949000000000001840000000000000000000000000554301892168256                                           03410006970000000135929000036SHOPPING BA JEQUITIB00000000000049693867PAG0000000009306000000000000036           
52017050220170602000003293214000548      01010601C000000000598000000000001160000000000000000000000000554301892168275                                           03410006970000000135929000036SHOPPING BA JEQUITIB00000000000049693867PAG0000000005864000000000000036           
52017050220170602000003473782535923      01010601C000000003220500000000006250000000000000000000000000554301892168311                                           03410006970000000135929000036SHOPPING BA JEQUITIB00000000000049693867PAG0000000031580000000000000036           
52017050220170602000005068520171977      01010601C000000000990000000000001920000000000000000000000000554301892168678                                           03410006970000000135929000036SHOPPING BA JEQUITIB00000000000049693867PAG0000000009708000000000000036           
52017050220170602000006013966004495      01010601C000000000949000000000001840000000000000000000000000554301892168939                                           03410006970000000135929000036SHOPPING BA JEQUITIB00000000000049693867PAG0000000009306000000000000036           
52017050220170602000247408594096198      01010601C000000000599000000000001160000000000000000000000000554301892168622                                           03410006970000000135929000036SHOPPING BA JEQUITIB00000000000049693867PAG0000000005874000000000000036           
52017050220170602000247577352012881      01010601C000000001190000000000002310000000000000000000000000554301892168615                                           03410006970000000135929000036SHOPPING BA JEQUITIB00000000000049693867PAG0000000011669000000000000036           
52017050220170602000254025870512676      04010601C000000000522300000000001120000000000000000000000000606490242168871                                           03410006970000000135929000036SHOPPING BA JEQUITIB00000000000049693867PAG0000000005111000000000000036           
52017050220170602000004540758184078      02010601C000000000299500000000000640000000000000000000000000606490262168530                                           03410006970000000135929000036SHOPPING BA JEQUITIB00000000000049693867PAG0000000002931000000000000036           
52017050220170602000246814080090508      02010601C000000000499500000000001070000000000000000000000000606490262168847                                           03410006970000000135929000036SHOPPING BA JEQUITIB00000000000049693867PAG0000000004888000000000000036           
52017050220170602000249210744024700      05010601C000000000598000000000001280000000000000000000000000606490262168235                                           03410006970000000135929000036SHOPPING BA JEQUITIB00000000000049693867PAG0000000005852000000000000036           
52017050220170602000004029476573659      06010601C000000000314800000000000670000000000000000000000000606490262168417                                           03410006970000000135929000036SHOPPING BA JEQUITIB00000000000049693867PAG0000000003081000000000000036           
52017050220170602000003515216300868      01010600C000000000240000000000000450000000000000000000000000554301882168326                                           03410006970000000135929000036SHOPPING BA JEQUITIB00000000000049693867PAG0000000002355000000000000036           
52017050220170602000004014024592165      01010600C000000000590000000000001120000000000000000000000000554301882168413                                           03410006970000000135929000036SHOPPING BA JEQUITIB00000000000049693867PAG0000000005788000000000000036           
52017050220170602000004497264001522      01010600C000000000899000000000001700000000000000000000000000554301882168524                                           03410006970000000135929000036SHOPPING BA JEQUITIB00000000000049693867PAG0000000008820000000000000036           
52017050220170602000004747382040971      01010600C000000000229000000000000430000000000000000000000000554301882168596                                           03410006970000000135929000036SHOPPING BA JEQUITIB00000000000049693867PAG0000000002247000000000000036           
52017050220170602000005285414028267      01010600C000000000499000000000000940000000000000000000000000554301882168754                                           03410006970000000135929000036SHOPPING BA JEQUITIB00000000000049693867PAG0000000004896000000000000036           
52017050220170602000005569118186762      01010600C000000000899000000000001700000000000000000000000000554301882168845                                           03410006970000000135929000036SHOPPING BA JEQUITIB00000000000049693867PAG0000000008820000000000000036           
52017050220170602000006352430096291      01010600C000000003342100000000006320000000000000000000000000554301882169023                                           03410006970000000135929000036SHOPPING BA JEQUITIB00000000000049693867PAG0000000032789000000000000036           
52017050220170602000246797862562257      01010600C000000009891000000000018690000000000000000000000000554301882168852                                           03410006970000000135929000036SHOPPING BA JEQUITIB00000000000049693867PAG0000000097041000000000000036           
52017050220170602000004895322465389      02010600C000000000645000000000001380000000000000000000000000606490252168642                                           03410006970000000135929000036SHOPPING BA JEQUITIB00000000000049693867PAG0000000006312000000000000036           
52017050220170602000005459046831755      02010600C000000000379500000000000810000000000000000000000000606490252168802                                           03410006970000000135929000036SHOPPING BA JEQUITIB00000000000049693867PAG0000000003714000000000000036           
52017050220170602000006034864054036      02010600C000000000413900000000000880000000000000000000000000606490252168941                                           03410006970000000135929000036SHOPPING BA JEQUITIB00000000000049693867PAG0000000004051000000000000036           
52017050220170602000006132274345676      03010600C000000000762900000000001630000000000000000000000000606490252168961                                           03410006970000000135929000036SHOPPING BA JEQUITIB00000000000049693867PAG0000000007466000000000000036           
52017050220170602000004447040093673      04010600C000000000872300000000001870000000000000000000000000606490252168514                                           03410006970000000135929000036SHOPPING BA JEQUITIB00000000000049693867PAG0000000008536000000000000036           
52017050220170602000006359186086650      05010600C000000000897900000000001920000000000000000000000000606490252169027                                           03410006970000000135929000036SHOPPING BA JEQUITIB00000000000049693867PAG0000000008787000000000000036           
52017050220170602000248749470506634      06010600C000000000636400000000001360000000000000000000000000606490252168335                                           03410006970000000135929000036SHOPPING BA JEQUITIB00000000000049693867PAG0000000006228000000000000036           
52017050220170602000003411526055344      01010601C000000000499000000000000970000000000000000000000000557309392168301                                           03410006970000000135929000038SHOPPING SE JARDINS 00000000000051121808PAG0000000004893000000000000038           
52017050220170602000003975348173977      01010601C000000000809100000000001570000000000000000000000000557309392168402                                           03410006970000000135929000038SHOPPING SE JARDINS 00000000000051121808PAG0000000007934000000000000038           
52017050220170602000004850922032494      01010601C000000000599000000000001160000000000000000000000000557309392168644                                           03410006970000000135929000038SHOPPING SE JARDINS 00000000000051121808PAG0000000005874000000000000038           
52017050220170602000005932342742982      01010601C000000000299000000000000580000000000000000000000000557309392168932                                           03410006970000000135929000038SHOPPING SE JARDINS 00000000000051121808PAG0000000002932000000000000038           
52017050220170602000006134214063025      01010601C000000000790000000000001530000000000000000000000000557309392168963                                           03410006970000000135929000038SHOPPING SE JARDINS 00000000000051121808PAG0000000007747000000000000038           
52017050220170602000006212428398275      01010601C000000000809100000000001570000000000000000000000000557309392168989                                           03410006970000000135929000038SHOPPING SE JARDINS 00000000000051121808PAG0000000007934000000000000038           
52017050220170602000006419964960407      01010601C000000000249000000000000480000000000000000000000000557309392169050                                           03410006970000000135929000038SHOPPING SE JARDINS 00000000000051121808PAG0000000002442000000000000038           
52017050220170602000006690688051351      01010601C000000017991000000000034900000000000000000000000000557309392169106                                           03410006970000000135929000038SHOPPING SE JARDINS 00000000000051121808PAG0000000176420000000000000038           
52017050220170602000246286884020579      01010601C000000000396000000000000770000000000000000000000000557309392168966                                           03410006970000000135929000038SHOPPING SE JARDINS 00000000000051121808PAG0000000003883000000000000038           
52017050220170602000246614612684358      01010601C000000000269000000000000520000000000000000000000000557309392168897                                           03410006970000000135929000038SHOPPING SE JARDINS 00000000000051121808PAG0000000002638000000000000038           
52017050220170602000245759302004819      01010601C000000002400000000000004660000000000000000000000000557309402169104                                           03410006970000000135929000038SHOPPING SE JARDINS 00000000000051121808PAG0000000023534000000000000038           
52017050220170602000003688426020745      02010601C000000000490000000000001050000000000000000000000000610496672168357                                           03410006970000000135929000038SHOPPING SE JARDINS 00000000000051121808PAG0000000004795000000000000038           
52017050220170602000004291178975788      02010601C000000000394900000000000840000000000000000000000000610496672168484                                           03410006970000000135929000038SHOPPING SE JARDINS 00000000000051121808PAG0000000003865000000000000038           
52017050220170602000004067606869054      03010601C000000000655900000000001400000000000000000000000000610496672168428                                           03410006970000000135929000038SHOPPING SE JARDINS 00000000000051121808PAG0000000006419000000000000038           
52017050220170602000006271146226126      06010601C000000001581400000000003380000000000000000000000000610496672169005                                           03410006970000000135929000038SHOPPING SE JARDINS 00000000000051121808PAG0000000015476000000000000038           
52017050220170602000006488928988229      06010601C000000000598300000000001280000000000000000000000000610496672169072                                           03410006970000000135929000038SHOPPING SE JARDINS 00000000000051121808PAG0000000005855000000000000038           
52017050220170602000004655234041963      10010601C000000000698900000000001600000000000000000000000000610496692168569                                           03410006970000000135929000038SHOPPING SE JARDINS 00000000000051121808PAG0000000006829000000000000038           
52017050220170602000006097128816002      10010601C000000000758300000000001740000000000000000000000000610496692168955                                           03410006970000000135929000038SHOPPING SE JARDINS 00000000000051121808PAG0000000007409000000000000038           
52017050220170602000006255232024256      10010601C000000002683300000000006150000000000000000000000000610496692168999                                           03410006970000000135929000038SHOPPING SE JARDINS 00000000000051121808PAG0000000026218000000000000038           
52017050220170602000004449216600195      01010600C000000000790000000000001490000000000000000000000000557309382168516                                           03410006970000000135929000038SHOPPING SE JARDINS 00000000000051121808PAG0000000007751000000000000038           
52017050220170602000005259948521862      01010600C000000000349000000000000660000000000000000000000000557309382168745                                           03410006970000000135929000038SHOPPING SE JARDINS 00000000000051121808PAG0000000003424000000000000038           
52017050220170602000006311798053072      01010600C000000000404100000000000760000000000000000000000000557309382169009                                           03410006970000000135929000038SHOPPING SE JARDINS 00000000000051121808PAG0000000003965000000000000038           
52017050220170602000006424982088320      01010600C000000000499000000000000940000000000000000000000000557309382169053                                           03410006970000000135929000038SHOPPING SE JARDINS 00000000000051121808PAG0000000004896000000000000038           
52017050220170602000006439990571862      01010600C000000000498000000000000940000000000000000000000000557309382169059                                           03410006970000000135929000038SHOPPING SE JARDINS 00000000000051121808PAG0000000004886000000000000038           
52017050220170602000245869588080771      01010600C000000000419000000000000790000000000000000000000000557309382169092                                           03410006970000000135929000038SHOPPING SE JARDINS 00000000000051121808PAG0000000004111000000000000038           
52017050220170602000246060140029434      01010600C000000000339000000000000640000000000000000000000000557309382169034                                           03410006970000000135929000038SHOPPING SE JARDINS 00000000000051121808PAG0000000003326000000000000038           
